:100000000C94F5010C945E1D0C948B1D0C941D0238
:100010000C941D020C941D020C9460020C941D02A1
:100020000C941D020C941D020C941D020C941D02D4
:100030000C941D020C941D020C941D020C941D02C4
:100040000C94B81D0C941D020C9424210C94562180
:100050000C941D020C941D020C941D020C941D02A4
:100060000C94011C0C941D02E20A740AED0AED0ABC
:10007000ED0AED0A980AED0A600AED0AED0AED0AAA
:10008000ED0AED0AED0AB90AED0AED0AE20AED0AF7
:10009000ED0ACB0A20620A00202D3E20000A41769C
:1000A00061696C61626C6520636F6D6D616E647314
:1000B0003A0A20203C6E6E3E206920202020202D10
:1000C00020736574206E6F64652049447320287323
:1000D00074616E64617264206E6F6465206964731C
:1000E0002061726520312E2E3330290A20203C6E8B
:1000F0003E20622020202020202D20736574204D7A
:10010000487A2062616E64202834203D20343333E5
:100110002C2038203D203836382C2039203D2039FD
:100120003135290A20203C6E6E6E3E20672020204B
:10013000202D20736574206E6574776F726B206755
:10014000726F7570202852464D3132206F6E6C7977
:1001500020616C6C6F7773203231322C2030203D5F
:1001600020616E79290A20203C6E3E2063202020E9
:100170002020202D2073657420636F6C6C65637480
:10018000206D6F64652028616476616E6365642C00
:10019000206E6F726D616C6C792030290A20202EE0
:1001A0002E2E2C3C6E6E3E2061202D2073656E64D9
:1001B0002064617461207061636B657420746F20CA
:1001C0006E6F6465203C6E6E3E2C207265717565A5
:1001D00073742061636B0A20202E2E2E2C3C6E6ED1
:1001E0003E2073202D2073656E642064617461204D
:1001F0007061636B657420746F206E6F6465203C62
:100200006E6E3E2C206E6F2061636B0A20202E2EB6
:100210002E2C3C6E3E207020202D205365742041F2
:10022000432041646170746572205663616C2031B3
:1002300070203D20554B2C203270203D20555341DD
:100240000A202076202020202020202020202D2061
:1002500053686F77206669726D7761726520766585
:100260007273696F6E0A00010402000302048A05BA
:100270000506C30B2019421E2C25802E882F2D37F2
:100280000038003C8F3D106F2000005EBCE2613FF3
:10029000DD83C29C7E20A3FD1F419DC3217FFCA264
:1002A000401E5F01E3BD3E6082DC237D9FC1421C96
:1002B000FEA0E1BF5D0380DE3C62BEE0025CDF8148
:1002C000633D7C22C09E1D43A1FF4618FAA42779F6
:1002D0009BC584DA3866E5BB5907DB856739BAE424
:1002E00006581947A5FB7826C49A653BD987045A56
:1002F000B8E6A7F91B45C6987A24F8A6441A99C708
:10030000257B3A6486D85B05E7B98CD2306EEDB3B5
:10031000510F4E10F2AC2F7193CD114FADF3702EE3
:10032000CC92D38D6F31B2EC0E50AFF1134DCE9015
:10033000722C6D33D18F0C52B0EE326C8ED0530DC7
:10034000EFB1F0AE4C1291CF2D73CA947628ABF575
:1003500017490856B4EA6937D58B5709EBB53668A3
:100360008AD495CB2977F4AA4816E9B7550B88D6D5
:10037000346A2B7597C94A14F6A8742AC896154B87
:10038000A9F7B6E80A54D7896B35000000080002C7
:10039000010000030407000000000000000001024B
:1003A0000408102040800102040810200102040803
:1003B00010200404040404040404020202020202E1
:1003C00003030303030300000000230026002900A9
:1003D00000000000250028002B0000000000240081
:1003E00027002A008108D41B862111241FBECFEFCD
:1003F000D8E0DEBFCDBF13E0A0E0B1E0EAE6FEE466
:1004000002C005900D92AA3FB107D9F728E0AAEFE4
:10041000B3E001C01D92A435B207E1F713E0CAEEC4
:10042000D3E004C02297FE010E940627C43ED107F4
:10043000C9F70E94CA210C9433270C9400001F9323
:10044000CF93DF93EC01FE011491112371F01A3068
:1004500029F46DE087EB97E00E941922612F87EB6A
:1004600097E00E9419222196EECFDF91CF911F9144
:1004700008950F931F930E94021E0091640410912F
:1004800065042091660430916704601B710B820B38
:10049000930B6F3671058105910578F080916C049E
:1004A0008F5F80936C040E94021E609364047093BB
:1004B000650480936604909367041F910F910895DB
:1004C0001F920F920FB60F9211242F933F934F93C9
:1004D0005F936F937F938F939F93AF93BF93EF93AC
:1004E000FF930E94870FFF91EF91BF91AF919F9172
:1004F0008F917F916F915F914F913F912F910F90CD
:100500000FBE0F901F90189561E086E00E94801F3B
:1005100062E370E080E090E00E94311E60E086E0DF
:100520000C94801F61E086E00E94801F69E170E00A
:1005300080E090E00E94311E60E086E00E94801F13
:1005400061E086E00E94801F69E170E080E090E059
:100550000E94311E60E086E00C94801FCF93DF93F1
:100560006AE070E080E090E00E94311E20E436E016
:1005700040910E0160911301809112010E9492112D
:10058000CAE0D0E0D0938204C09381044EE161E8D8
:1005900074E080E00E94011264E670E080E090E088
:1005A0000E94311E219770F782E00E942012109263
:1005B000820410928104DF91CF910895FF920F93EE
:1005C0001F93CF93DF930E94EB11882309F461C03E
:1005D000F090A3068091E9069091EA06892B09F034
:1005E00059C06AE171E087EB97E00E9417226BE740
:1005F00073E087EB97E00E9417226091A2066F716B
:1006000070E04AE050E087EB97E00E94D9226BE768
:1006100073E087EB97E00E94172204EA16E0E801F6
:100620008C2F801B8F1570F4699170E04AE050E0C8
:1006300087EB97E00E940D2360E287EB97E00E9432
:100640001922EECF6DE171E087EB97E00E9417224F
:100650006091970670E07595679571956195710940
:100660004AE050E087EB97E00E94D92269E073E00E
:1006700087EB97E00E94172287EB97E00E942022E9
:100680008091A20685FF1BC08091A20687FF04C04F
:1006900016C019C080E017C06FE171E087EB97E0EA
:1006A0000E9417228091A20686FD0BC08091A206AF
:1006B0008F71806C40E060E070E00E94FF1181E08B
:1006C00002C080E8F7CFDF91CF911F910F91FF908B
:1006D000089580911A048823D1F10E94FD1181119F
:1006E00001C0089561E086E00E94801F68EC70E020
:1006F00080E090E00E94311E60E086E00E94801F52
:1007000088E990E00E941F0260911C0470E04AE0BA
:1007100050E087EB97E00E940D2384E990E00E946F
:100720001F0280911A04813681F080E090911B04B1
:10073000992311F09064892B40911C046EE174E0C0
:100740000E94FF1110921A04089580E2EFCF0895DD
:10075000CF93DF9367E271E087EB97E00E94172267
:1007600022E030E04DEC5CEC65EB72E487EB97E067
:100770000E94122462E371E087EB97E00E94172247
:1007800022E030E04DEC5CEC65EB72E487EB97E047
:100790000E9412246DE371E087EB97E00E9417221C
:1007A00022E030E04DEC5CEC65EB72E487EB97E027
:1007B0000E94122468E471E087EB97E00E94172200
:1007C00022E030E049E25CE565E871E487EB97E020
:1007D0000E94122468EE73E080E090E00E94311ED7
:1007E00063E571E087EB97E00E941722409179045E
:1007F00050917A0460917B0470917C0422E030E097
:1008000087EB97E00E94102462E173E087EB97E0AA
:100810000E94242280917404882309F461C0CAE0F4
:10082000D0E061E086E00E94801F68EC70E080E02C
:1008300090E00E94311E60E086E00E94801F6CE222
:1008400071E080E090E00E94311E219751F76DE544
:1008500071E087EB97E00E9424228091F5048823C1
:1008600031F068E871E087EB97E00E94172269E9B0
:1008700071E087EB97E00E94172240917D04509130
:100880007E0460917F047091800422E030E087EB69
:1008900097E00E94122460EA71E087EB97E00E94E3
:1008A00017224AE050E06091710487EB97E00E94C4
:1008B000062362E173E087EB97E00E94242267EA57
:1008C00071E087EB97E00E94172222E030E04AE9CE
:1008D00059E969ED7FE387EB97E00E9412243EC05F
:1008E00068EE73E080E090E00E94311E61E086E0F7
:1008F0000E94801F60ED77E080E090E00E94311E52
:1009000060E086E00E94801F65EB71E087EB97E076
:100910000E9424228091F504882331F063EE71E077
:1009200087EB97E00E9424226CEE71E087EB97E062
:100930000E9417224AE050E06091710487EB97E033
:100940000E94062362E173E087EB97E00E94242275
:100950006CEF71E087EB97E00E9424228091720493
:10096000811103C063E372E024C08091780488237E
:1009700031F062E472E087EB97E00E9424228091DC
:100980007704882331F06EE472E087EB97E00E94F1
:10099000242280917604882331F06AE572E087EBA7
:1009A00097E00E94242280917504882331F066E646
:1009B00072E087EB97E00E94242260ED77E080E010
:1009C00090E00E94311E80917304882389F062E7D1
:1009D00072E087EB97E00E9417224AE050E06091B6
:1009E000A30487EB97E00E9406236AE772E002C047
:1009F00063E872E087EB97E00E9424228091140163
:100A0000882309F474C066E972E087EB97E00E94DE
:100A1000242265EA72E087EB97E00E9417224AE001
:100A200050E06091120187EB97E00E9406236BEA89
:100A300072E087EB97E00E941722809113018130CA
:100A400031F462EB72E087EB97E00E94172280910D
:100A50001301823031F469EB72E087EB97E00E947A
:100A6000172280911301833031F460EC72E087EB40
:100A700097E00E94172267EC72E087EB97E00E94F4
:100A8000172240910E0150910F0160911001709159
:100A900011012AE030E087EB97E00E94132361ED1B
:100AA00072E087EB97E00E941722809173048823FD
:100AB00071F061EF72E087EB97E00E9417224AE045
:100AC00050E06091A30487EB97E00E9406236BE758
:100AD00073E087EB97E00E94242264EF71E080E0EE
:100AE00090E00E94311E8DE990E00E941F0264E1B7
:100AF00070E080E090E0DF91CF910C94311EEF9296
:100B0000FF920F931F93CF93DF93CDB7DEB76E970E
:100B10000FB6F894DEBF0FBECDBF8EE1E1E8F4E082
:100B2000DE01119601900D928A95E1F761E073E084
:100B300087EB97E00E9417224AE050E06091120193
:100B400087EB97E00E9406238E010F5F1F4F7E0107
:100B50008FE1E80EF11C60E287EB97E00E9419221A
:100B6000F80161918F014AE050E087EB97E00E9425
:100B700006230E151F0579F765E073E087EB97E014
:100B80000E94172287EB97E00E9420226AE070E023
:100B900080E090E06E960FB6F894DEBF0FBECDBF3A
:100BA000DF91CF911F910F91FF90EF900C94311E28
:100BB000CF92DF92EF92FF920F931F93CF93DF9329
:100BC000EB0100E010E0C12CD12C76010C171D07C1
:100BD0007CF480E00E94A21EDC01B2509D010E94C4
:100BE0000A27C60ED71EE81EF91E0F5F1F4FEECF55
:100BF000C701B6010E9427256B017C01BE01882731
:100C000077FD8095982F0E9429259B01AC01C70193
:100C1000B6010E948E24DF91CF911F910F91FF901A
:100C2000EF90DF90CF900C94442661E086E00E9424
:100C3000471F61E086E00E94801F61E084E00E941F
:100C4000471F60E084E00E94801F60E083E00E9414
:100C5000471F26E040E056E960E070E087EB97E050
:100C60000E94C2206BE073E087EB97E00E9417229E
:100C700022E030E047E656E666E070E487EB97E076
:100C80000E94122464E173E087EB97E00E94242223
:100C90006AE273E087EB97E00C94242281E00E94E3
:100CA000A21E181619064CF481E0809378048091F6
:100CB00072048F5F8093720402C01092780482E005
:100CC0000E94A21E181619064CF481E08093770446
:100CD000809172048F5F8093720402C01092770437
:100CE00083E00E94A21E181619064CF481E080933E
:100CF0007604809172048F5F8093720402C0109218
:100D0000760484E00E94A21E181619064CF481E0B5
:100D100080937504809172048F5F8093720402C087
:100D20001092750480917204811103C081E0809358
:100D3000780480E197E20E94320F60E086E00E9432
:100D4000801F61E08EE00E94471F6FEF70E08EE031
:100D50000E94BF1E60E070E08EE00E94BF1E60E057
:100D60008EE00E94471F64EF71E080E090E00E94F7
:100D7000311E64EF76E080E090E00E94D80522E525
:100D800038EB4EE55FE30E94DD2520E030E044EBE8
:100D900052E40E94D925181624F481E0809374044B
:100DA0000895109274040895CF9384ED94E00E9406
:100DB000BF1960E084ED94E00E94271A84ED94E06E
:100DC0000E944D188093A30484ED94E00E944D1876
:100DD0008093A304C0E08091A304C81760F488E066
:100DE000C89FB00111246C557B4F87EE94E00E94A0
:100DF0009B17811129C064EF71E080E090E00E94B0
:100E0000311EC0E08091A304C81768F488E0C89F31
:100E1000B00111246C557B4F4CE084ED94E00E94AE
:100E20004919CF5FEFCF811103C01092730408C03E
:100E300091E090937304873018F086E08093A304C8
:100E40008091A304CF910895CF5FC5CFEF92FF9219
:100E50000F931F93CF9361E086E00E94471F62E0EB
:100E600083E00E94471F61E086E00E94801F26E029
:100E700040E855E260E070E087EB97E00E94C22016
:100E800065E373E087EB97E00E94242264E173E05E
:100E900087EB97E00E94242265E473E087EB97E0FC
:100EA0000E94242262E088E00E94471F62E089E0FD
:100EB0000E94471F88E00E94B61F892B29F4809169
:100EC000120181508093120189E00E94B61F892B84
:100ED00019F481E08093F50464E670E080E090E02E
:100EE0000E94311E8091F504882371F080E090E02B
:100EF000A2E0B3E480937D0490937E04A0937F04EA
:100F0000B09380048EE611C0809115019091160176
:100F1000A0911701B091180180937D0490937E04F5
:100F2000A0937F04B093800486EE809371040E94A6
:100F300015068091140181110E94AE020E94D40610
:100F40006CED75E080E090E00E94311E0E944E063C
:100F50000E94A8038DE697EEA3E5B0E48093FA041F
:100F60009093FB04A093FC04B093FD041092F6044C
:100F70001092F7041092F8041092F90410920405EC
:100F8000AC01BD0180E095E00E94950D85E090E008
:100F90009093FF048093FE0442E050E069E372E026
:100FA00081E00E942E1D10929B0410929C041092CE
:100FB0009D0410929E04C6E02DEC3CEC45EB52E4FF
:100FC00061E070E085E396E00E945B12C150A1F7FA
:100FD0002DEC3CEC45EB52E462E070E089ED95E0ED
:100FE0000E945B122DEC3CEC45EB52E463E070E0B8
:100FF0008DE795E00E945B1229E23CE545E851E46B
:1010000064E070E081E295E00E945B1280917404DC
:101010008823F1F120917D0430917E0440917F047A
:10102000509180041AE9E12E19E9F12E09ED1FE330
:1010300060E070E085E396E00E943F1220917D041D
:1010400030917E0440917F045091800460E070E014
:1010500089ED95E00E943F1220917D0430917E043D
:1010600040917F045091800460E070E08DE795E04E
:101070000E943F1220917D0430917E0440917F04B4
:101080005091800460E070E081E295E00E943F12A0
:10109000CF911F910F91FF90EF900895CF92DF9223
:1010A000EF92FF9298E0899FB00111246C557B4F1D
:1010B00084ED94E00E94391B6B017C0120E030E05C
:1010C0004AEF52E40E948A2487FF16C020E030E0F5
:1010D0004CE552ECC701B6010E94D925181664F4FC
:1010E00020E030E040E251E4C701B6010E94DD2576
:1010F0000E94F624CB0100C0FF90EF90DF90CF90CC
:10110000089583E393E3A3E5B0E48093000590930F
:101110000105A0930205B09303051092040583E036
:1011200090E0909306058093050581E090E0909310
:1011300008058093070584E690E090930A05809364
:10114000090588EC90E090930C0580930B051092B4
:101150001D0510921E0510921F051092200565E0D6
:1011600087EE94E00E94781767EE74E084ED94E0D7
:101170000C943E188F929F92AF92BF92CF92DF92C3
:10118000EF92FF920F931F9383E10E94A21E909310
:101190000F0480930E0464E670E080E090E00E940B
:1011A000311E80910E0490910F0425E0289FB0011C
:1011B000299F700D1124882777FD8095982F0E9414
:1011C000292520E030E040E85AE30E94DD256B014C
:1011D0007C0160931404709315048093160490931B
:1011E00017048090060190900701A0900801B0902C
:1011F000090120910A0130910B0140910C0150919D
:101200000D01C501B4010E9426249B01AC01C5015A
:10121000B4010E948E249B01AC01C701B6010E945B
:101220008E246093060470930704809308049093BF
:1012300009040E94021EC090FA03D090FB03E090C4
:10124000FC03F090FD039B01AC012C193D094E09F4
:101250005F0969017A0130EDC31637E0D306E10476
:10126000F10408F476C06093FA037093FB03809353
:10127000FC039093FD0383E10E94A21EBC0188271A
:1012800077FD8095982F0E94292560930A0470931A
:101290000B0480930C0490930D0420E030E040EAAE
:1012A00050E40E94DD2520E030E040E85AE30E944F
:1012B000DD256B017C016093FE037093FF03809337
:1012C0000004909301048090060190900701A09083
:1012D0000801B090090120910A0130910B01409161
:1012E0000C0150910D01C501B4010E9426249B01FF
:1012F000AC01C501B4010E948E249B01AC01C70161
:10130000B6010E948E2460930204709303048093BC
:101310000404909305042091060430910704409141
:101320000804509109040E94262420E030E040E2A5
:1013300051E40E94DD2520E030E040E05FE30E94C0
:10134000DD25609310047093110480931204909330
:1013500013040E94021E60936804709369048093D2
:101360006A0490936B048091F504882371F080E007
:1013700090E0A2E0B3E480937D0490937E04A09378
:101380007F04B09380048EE611C080911501909186
:101390001601A0911701B091180180937D049093DC
:1013A0007E04A0937F04B093800486EE8093710442
:1013B00020917D0430917E0440917F0450918004FF
:1013C0001AE9E12E19E9F12E09ED1FE360E070E062
:1013D00085E396E00E943F1220917D0430917E04C7
:1013E00040917F045091800460E070E089ED95E0C9
:1013F0000E943F1220917D0430917E0440917F0431
:101400005091800460E070E08DE795E00E943F120B
:1014100020917D0430917E0440917F04509180049E
:1014200060E070E081E295E00E943F1287EB97E078
:101430000E94DF1F892B09F43EC187EB97E00E94D1
:10144000F81F90ED980F9A30A8F44091180450912D
:1014500019049AE0949F9001959F300D1124205318
:101460003109280F311D87FD3A95309319042093D7
:1014700018041FC18C3281F4E0911D04E63408F099
:1014800014C181E08E0F80931D04F0E0E25EFB4FFB
:1014900080911804808309C181320CF404C1482F63
:1014A000552747FD5095652F752FFA01E156F10933
:1014B000E631F10508F091C0EC5CFF4F0C94042775
:1014C0008091180490911904009771F08093120193
:1014D00020911401222309F484C020E436E04091D5
:1014E0000E016091130142C080911804843031F0E4
:1014F000883031F0893031F463E005C061E003C029
:1015000062E001C060E0862F90E090931904809320
:101510001804892B09F465C06093130180911401AC
:10152000882309F45EC020E436E040910E011CC01F
:1015300040911804509119044115510509F451C006
:10154000CA01A0E0B0E080930E0190930F01A09338
:101550001001B093110180911401882309F441C056
:1015600020E436E060911301809112010E949211F3
:1015700038C08091180490911904009791F181303E
:10158000910519F41092F5042CC0029751F581E0F1
:101590008093F50426C067E573E087EB97E00E942F
:1015A000172222E030E047E656E666E070E487EB7B
:1015B00097E00E94102460E673E087EB97E00E94BA
:1015C00017220FC080931A0480911D0480931C047D
:1015D0008091180480931B0404C08DE990E00E9460
:1015E0001F0280911401882309F448C060E287EB50
:1015F00097E00E941922609112016F71605C87EB85
:1016000097E00E94192262E673E087EB97E00E9460
:101610001722609112016F7170E04AE050E087EB91
:1016200097E00E94D92265E673E087EB97E00E947D
:10163000172268E673E087EB97E00E9417228091FB
:101640001301813039F0823041F0833049F463E98D
:1016500073E008C061EB71E005C064E673E002C0AE
:1016600060E070E04AE050E087EB97E00E94D9220A
:101670006CE673E087EB97E00E94172261E773E066
:1016800087EB97E00E9417226091F50470E04AE032
:1016900050E087EB97E00E94D9226BE773E087EB7D
:1016A00097E00E94242210921D04109219041092B7
:1016B00018040E94920280911401882339F00E943C
:1016C000DE0281110E9492020E94690380916804E7
:1016D00090916904A0916A04B0916B0440916D04EB
:1016E00050916E0460916F0470917004841B950B8F
:1016F000A60BB70B89389341A105B10508F40AC2BE
:101700000E94840280917404882359F140ED57E0CF
:1017100064E170E085E396E00E94921260913506E4
:101720007091360680913706909138060E94F62413
:10173000709382046093810420E030E048EC52E42E
:101740006091410670914206809143069091440653
:101750000E94DD250E94F62470938E0460938D0410
:1017600024C068EC75E085E396E00E9463156B0188
:101770007C01B09071046B2D70E080E090E00E94DD
:1017800029259B01AC01C701B6010E94DD250E94FD
:10179000F624709382046093810454E6B59EC001E0
:1017A000112490938E0480938D0480917404882377
:1017B00059F140ED57E064E170E089ED95E00E9459
:1017C00092126091D9057091DA058091DB059091B4
:1017D000DC050E94F624709384046093830420E067
:1017E00030E048EC52E46091E5057091E6058091A7
:1017F000E7059091E8050E94DD250E94F62470938C
:101800008E0460938D0424C068EC75E089ED95E04A
:101810000E9463156B017C01B09071046B2D70E028
:1018200080E090E00E9429259B01AC01C701B60130
:101830000E94DD250E94F624709384046093830443
:1018400024E6B29EC001112490938E0480938D04EF
:1018500080917404882359F140ED57E064E170E011
:101860008DE795E00E94921260917D0570917E0552
:1018700080917F05909180050E94F62470938604E4
:101880006093850420E030E048EC52E460918905E3
:1018900070918A0580918B0590918C050E94DD25C1
:1018A0000E94F62470938E0460938D0424C068EC2B
:1018B00075E08DE795E00E9463156B017C01B090A7
:1018C00071046B2D70E080E090E00E9429259B015F
:1018D000AC01C701B6010E94DD250E94F624709379
:1018E00086046093850434E6B39EC001112490936E
:1018F0008E0480938D0480917404882359F140ED07
:1019000057E064E170E081E295E00E9492126091FC
:1019100021057091220580912305909124050E9454
:10192000F624709388046093870420E030E048EC4C
:1019300052E460912D0570912E0580912F059091B4
:1019400030050E94DD250E94F62470938E0460937A
:101950008D0424C068EC75E081E295E00E94631577
:101960006B017C01B09071046B2D70E080E090E021
:101970000E9429259B01AC01C701B6010E94DD250B
:101980000E94F624709388046093870444E6B49E12
:10199000C001112490938E0480938D0460911004F3
:1019A0007091110480911204909113040E94F62406
:1019B00070938A04609389042091F6043091F704AF
:1019C0004091F8045091F9046091FE047091FF0475
:1019D00080E095E00E94A40E60939F047093A004A1
:1019E0008093A1049093A20420E030E048EC52E4FC
:1019F0000E94DD250E94F62470938C0460938B0472
:101A000080910405882381F167E773E087EB97E015
:101A10000E94172240919F045091A0046091A1045C
:101A20007091A20422E030E087EB97E00E9410243E
:101A30006DE773E087EB97E00E94172220E030E02B
:101A400048EC52E460919F047091A0048091A1043D
:101A50009091A2040E94DD250E94F6244AE050E005
:101A600087EB97E00E94E12280917404811103C00A
:101A700087E00E94A21E8091730481111FC0809193
:101A80006C048823A9F1F89420916C0480919B0444
:101A900090919C04A0919D04B0919E04820F911D91
:101AA000A11DB11D80939B0490939C04A0939D0461
:101AB000B0939E0410926C0478941AC082E390E074
:101AC0000E94320F84ED94E00E94A81AF12C8091BC
:101AD000A304F816A0F68F2D0E944E08EF2DF0E01B
:101AE000EE0FFF1FE157FB4F91838083F394EFCFFD
:101AF0000E947F058091680490916904A0916A0416
:101B0000B0916B0480936D0490936E04A0936F0466
:101B1000B09370041F910F91FF90EF90DF90CF90E2
:101B2000BF90AF909F908F9008950F931F93CF9386
:101B3000DF9300D000D0CDB7DEB78C0181E04983C0
:101B40005A836B837C830E949F1E49815A816B81DB
:101B50007C81F801408351836283738383E090E04A
:101B60009683858384E690E09287818788EC90E075
:101B70009487838781E090E090878783158E168E07
:101B8000178E10A20F900F900F900F90DF91CF91B2
:101B90001F910F9108954F925F926F927F928F9253
:101BA0009F92AF92BF92CF92DF92EF92FF92CF932C
:101BB000DF93EC015B010E94021E6D8B7E8B8F8B8D
:101BC000988FC12CD12C7601812C912C8B859C85F2
:101BD00088169906ECF582E0A816B104A9F04CF439
:101BE000A114B104B9F081E0A816B10499F48FE012
:101BF00012C084E0A816B10459F044F085E0A8169C
:101C0000B10441F483E107C080E105C081E103C074
:101C100082E101C08EE00E94A21EBC01882777FDF0
:101C20008095982F0E9429259B01AC01C701B60120
:101C30000E9426246B017C018FEF881A980A6F811D
:101C40007885882777FD8095982F0E94311EBECF1A
:101C50008D889E88AF88B88C0E94021E861A970ACB
:101C6000A80AB90A898E9A8EAB8EBC8E6B857C854C
:101C7000882777FD8095982F0E9429259B01AC012C
:101C8000C701B6010E948E242B013C0128813981B5
:101C90004A815B810E94DD2520E030EC4FE754E46F
:101CA0000E948E244B015C0121E73DEB4CE053E4A4
:101CB0000E94DD2526EF38EE46EB53E40E942524F2
:101CC0006B017C018C81882371F165E873E087EBFF
:101CD00097E00E94242264EA73E087EB97E00E9479
:101CE0002422498D5A8D6B8D7C8D2AE030E087EB64
:101CF00097E00E94132322E030E0B301A20187EBBA
:101D000097E00E94122422E030E0B501A40187EBA5
:101D100097E00E94122422E030E0B701A60187EB91
:101D200097E00E941224C701B601DF91CF91FF9086
:101D3000EF90DF90CF90BF90AF909F908F907F906B
:101D40006F905F904F9008954F925F926F927F9245
:101D5000AF92BF92CF92DF92EF92FF920F931F93B9
:101D6000CF93DF93EC015B0129013A0100E010E021
:101D7000C12CD12C76016D817E8106171707BCF42A
:101D8000B501CE010E94CB0D9B01AC01C701B6018C
:101D90000E9426246B017C0169857A85882777FD5E
:101DA0008095982F0E94311E0F5F1F4FE4CF882728
:101DB00077FD8095982F0E9429259B01AC01C701D2
:101DC000B6010E948E24A30192010E9426246D8FE9
:101DD0007E8F8F8F98A3DF91CF911F910F91FF90EE
:101DE000EF90DF90CF90BF90AF907F906F905F901B
:101DF0004F90089583FF02C098E2892787FD06C0AF
:101E00008064909160009093910602C08091910649
:101E100094B7977F94BFF8949091600098619093E5
:101E200060008093600078940895EAE7F0E0908184
:101E300080818F77808383B7817F846083BFF894AC
:101E400083B7816083BF85B7806685BF85B78F798B
:101E5000806485BF7894889583B78E7F83BF909385
:101E60007A000895DF92EF92FF920F931F93CF9322
:101E7000DF938C01EC0128E0E22EF12CC031D1057A
:101E800038F19E01D12C2032310538F0D39489E00D
:101E9000D81619F036952795F6CF109292068D2D0B
:101EA0000E94FA0E0E94150F8FEF0E94FA0EC701D2
:101EB00002C0880F991FDA94E2F7C81BD90B209152
:101EC0009206222319F0C81BD90BD8CF80E001C09D
:101ED00081E04091AF075091B0076091B1077091D8
:101EE000B2070C1B1D0B400F511F611D711D40934C
:101EF000AF075093B0076093B1077093B207DF91BB
:101F0000CF911F910F91FF90EF90DF9008958091F6
:101F100092068F5F8093920608958627682F6295B8
:101F20006827062E669566956025062E66956025BF
:101F30006770082E892F669507946795902D8627E0
:101F400006946795902586270895E8982A988EBD6F
:101F50000DB407FEFDCF8EB56EBD0DB407FEFDCFEF
:101F60008EB52A9AE89A089560E00C94A50F88E24D
:101F70000E94B40F807521F080E00E94B40FF7CF6B
:101F80000895CF93C82F81E00E94B40F682F637E1D
:101F90006C2B81E8CF910C94A50F22E0660F771F80
:101FA000881F991F2A95D1F729E03DE340E050E0D2
:101FB0000E94C32666E0220F331F441F551F6A95F7
:101FC000D1F720939C0630939D0640939E06509334
:101FD0009F06089580919506853021F4809196069C
:101FE000882311F080E0089584E0809395060E9494
:101FF000C10F81E008959091950681E094300CF036
:1020000080E00895CF93DF932A9A229A2A9A84B186
:102010008C6284B980E58CBD8DB581608DBD6AEA26
:102020008FEA0E94A50F8FE20E94B40F8A3AB9F797
:1020300065E58FEA0E94A50F8FE20E94B40F8535F7
:10204000B9F7C7E6D2E0FE018491882339F03196D2
:10205000649180680E94A50F2296F5CF60919B063F
:1020600080EB0E94A50F80919C0690919D06A09107
:102070009E06B0919F06BD018827992787E80E9498
:10208000A50F80919C0690919D06A0919E06B0910F
:102090009F06692F7A2F8B2F992788E80E94A50F1A
:1020A00060919C0689E80E94A50F84E080939506C4
:1020B000DF91CF910895CF93DF93EC018091950646
:1020C000843019F0853021F14DC01092A306109292
:1020D000960660919B068FEF9FEF0E948D0F909365
:1020E000990680939806D0939406C093930685E052
:1020F000809395060E94B70F60E885EA0E94A50FBD
:1021000080E10E94C10F62E08EE90E94A50F2AC003
:102110008091A3062091960690E0049630E0821705
:10212000930724F0809196068834E0F084E0809351
:1021300095060E94C10F8091A3068334B0F480916C
:10214000980690919906892B81F48091A20686FFCA
:102150000FC090919A069F3159F08091A2068F711D
:10216000891731F08FEF9FEF05C081E090E002C04A
:1021700080E090E0DF91CF910895CF934093A30644
:10218000FB0120E030E050E02417350744F4D9018A
:10219000AC55B94F91919C932F5F3F4FF5CF86FD82
:1021A00004C0807E90919A06890F8093A206609168
:1021B0009B068FEF9FEF0E948D0F9093990680935F
:1021C00098069091A3068EEF891B809395060E9436
:1021D000B70F8CE00E94C10F60E085EA0E94A50F56
:1021E000809195068330DCF588E20E94B40F87FD6C
:1021F000F7CF8091950687FF1BC09091A306809131
:102200009506E0919306F0919406E90FF11DE80F11
:10221000F11D87FDFA95C3816C2F809198069091EE
:1022200099060E948D0F90939906809398060DC091
:1022300080919506882329F0813031F4C091990668
:1022400004C0C091980601C0CAEA6C2F80E80E94C1
:10225000A50F809195068F5F80939506C1CFCF9192
:10226000089580919506853009F04DC060E485EAB7
:102270000E94A50F84E20E94B40F80939706789481
:1022800088E20E94B40F8075D9F38091960681117F
:102290000FC0E0919306F09194068091960691E02C
:1022A000980F9093960690919B06E80FF11D9083EE
:1022B00080E00E94B40FE0919306F0919406909113
:1022C000960621E0290F20939606E90FF11D8083E1
:1022D000682F80919806909199060E948D0F909397
:1022E0009906809398068091A3062091960690E027
:1022F000049630E082179307A4F080919606883404
:1023000008F4BECF089588E20E94B40F83FF09C08D
:1023100084E0809395060E94C10F60E885EA0C94E2
:10232000A50F0895CF92DF92EF92FF921F93CF9364
:10233000DF93C82F162FD42FF901AFEFA60FA330CC
:1023400028F4B0E0AF53BC4FAC9101C0A0E0B0E0C6
:1023500020E836E948E950E00E9428276B017C011B
:10236000212F30E0A4ECB9E00E941227DF019B018D
:10237000AC010E942827C60ED71EE81EF91EC70111
:10238000B6010E94CD0FD0939B068C2F8F71809346
:102390009A0664E170E080E090E00E94311E809136
:1023A0009A06882341F043E050E061E371E180E068
:1023B0000E942E1D03C080E00E944E1D0E9402104C
:1023C000C093A0068C2FDF91CF911F91FF90EF90CB
:1023D000DF90CF90089581EA96E00E945B10909381
:1023E000EA068093E9062091E9063091EA0681E049
:1023F0002F3F3F4F09F480E008950C94EA0F0C94AE
:10240000BD10EF92FF921F93CF93DF931F92CDB732
:10241000DEB7182F7B0149830E94EA0F49818111A1
:1024200005C049830E94EB114981F5CFB701812F87
:102430000F90DF91CF911F91FF90EF900C94BD1002
:10244000CF93C82F0E94FB0F8823B9F0CC23D1F380
:1024500083B7817FC33021F0C23021F49CE003C0F8
:1024600094E001C090E0892B83BF83B7816083BF74
:10247000889583B78E7F83BFE5CFCF910895EF9284
:10248000FF920F931F93FC01758B648B208F318F0C
:10249000428F538FE0A2F1A202A313A340E050E0C9
:1024A00060E074E444AB55AB66AB77AB1F910F9122
:1024B000FF90EF900895FC01778B668B248F358F0A
:1024C000468F578F40E050E060E074E440AF51AF7A
:1024D00062AF73AF08958EE480937C0062E070E099
:1024E00080E090E00E94311E80917A0080648093A9
:1024F0007A0080917A0086FDFCCF8091780020914F
:10250000790030E0322F2227442737FD4095542FA1
:10251000282B60E070E381E190E00E94E526CA018B
:10252000B90108952F923F924F925F926F927F92DE
:102530008F929F92AF92BF92CF92DF92EF92FF92D3
:102540000F931F93CF93DF93CDB7DEB7A8970FB646
:10255000F894DEBF0FBECDBF98A78FA37E8F6D8F7F
:102560008A010E946B126D8B7E8B8F8B988F0E94DD
:10257000021E4B015C016FA078A428E5620E711C5D
:10258000C801A0E0B0E0898B9A8BAB8BBC8BAFA16C
:10259000B8A554968C910E94A21EF301918380836A
:1025A000BC01882777FD8095982F0E9429256B0113
:1025B0007C012DEC3CEC4CE054E40E948A2487FF23
:1025C0000BC011E026E636E646EE53E4C701B6013D
:1025D0000E94D92518160CF010E00E94021E6819FE
:1025E00079098A099B0929893A894B895C892617C7
:1025F00037074807590708F040C00E94021E698F3C
:102600007A8F8B8F9C8F00E010E01A8219824FA185
:1026100058A5405C5F4F58A34F8F8FA198A58C5B46
:102620009F4F9C878B87AFA1B8A5A85BBF4FBAA36C
:10263000A9A3EFA1F8A5E45BFF4FFE87ED872FA1CB
:1026400038A5205B3F4F3CA32BA34FA158A54C5A64
:102650005F4F588B4F878FA198A5865A9F4F9E83B7
:102660008D832FA038A49BE5290E311CAFA1B8A5FE
:10267000A85ABF4FBEA3ADA344C1112309F487CF0D
:10268000BCCF0E94021E298D3A8D4B8D5C8D621B42
:10269000730B840B950B29893A894B895C896217E6
:1026A00073078407950708F034C10F5F1F4FEFA130
:1026B000F8A584A595A5A6A5B7A580A791A7A2A7CB
:1026C000B3A784890E94A21EAFA1B8A595969C933A
:1026D0008E93949756968C910E94A21E3C01EFA176
:1026E000F8A597A386A324A135A13A872987B90124
:1026F000882777FD8095982F0E9429256B017C0102
:10270000AFA1B8A5D4968D909D90AD90BC90D79771
:10271000A50194010E94252420E030E040E85AE31E
:102720000E94DD259B01AC01C501B4010E94262455
:102730009B01AC01EFA1F8A564AB75AB86AB97AB81
:10274000C701B6010E9425244B015C01AFA1B8A5C9
:102750009C966D937D938D939C939F97B30188274F
:1027600077FD8095982F0E9429256B017C01EFA1B0
:10277000F8A540AC51AC62AC73ACA30192010E94CD
:10278000252420E030E040E85AE30E94DD259B014B
:10279000AC01C301B2010E9426249B01AC01AFA190
:1027A000B8A5D8966D937D938D939C93DB97C701C5
:1027B000B6010E9425246B017C01EFA1F8A560AB56
:1027C00071AB82AB93ABA5019401C501B4010E942A
:1027D000DD259B01AC01AF8DB8A16D937D938D93E9
:1027E0009C931397EB85FC85608171818281938135
:1027F0000E942624AB85BC856D937D938D939C931D
:102800001397A7019601C701B6010E94DD259B0120
:10281000AC01E9A1FAA16083718382839383AD85C2
:10282000BE856D917D918D919C910E942624ED85B0
:10283000FE856083718382839383AFA1B8A5989648
:102840004D905D906D907C909B97A3019201C50186
:10285000B4010E942524EFA1F8A520A131A142A135
:1028600053A10E94DD259B01AC01C301B2010E946E
:102870002624AFA1B8A5DC966D937D938D939C9390
:10288000DF97A70196010E94DD259B01AC01EBA11A
:10289000FCA16083718382839383AF85B8896D9136
:1028A0007D918D919C910E942624EF85F88960830B
:1028B000718382839383D1018C91ED81FE8180832A
:1028C000ADA1BEA18D919C91E985FA858E179F07D8
:1028D0000CF0F6C021E0F10120830130110529F44C
:1028E000F1018081AD81BE818C93ED81FE8190816B
:1028F000D1018C91981729F0E981FA813196FA83F8
:10290000E98329813A814D8D5E8D2417350708F4BE
:10291000B8CEAD89BE89BD01882777FD8095982FF7
:102920000E94292520E030E04AE754E40E948E24EA
:1029300020E030E040E85AE30E94DD252B013C0115
:10294000EFA1F8A5208D318D428D538D0E94DD259C
:102950004B015C01B80180E090E00E9427256B01EB
:102960007C012FA038A4F4E42F0E311C9B01AC0194
:10297000D1016D917D918D919C910E948E240E9438
:1029800044269B01AC01C501B4010E94DD25698389
:102990007A838B839C83EFA1F8A5648775878687EC
:1029A0009787248D358D468D578DC301B2010E94C6
:1029B000DD252B013C010FA118A5045B1F4FA701CA
:1029C0009601D8016D917D918D919C910E948E24EC
:1029D0000E9444269B01AC01C301B2010E94DD2587
:1029E0006D837E838F839887EFA1F8A5608B718BB1
:1029F000828B938BA3019201C501B4010E94DD2556
:102A0000AFA0B8A4F4E5AF0EB11CD5012D913D9156
:102A10004D915C910E94DD25A70196010E948E24B4
:102A20006B017C01EFA1F8A560837183828393839E
:102A30002D813E814F81588569817A818B819C816E
:102A40000E94DD259B01AC01AFA1B8A514966D9342
:102A50007D938D939C931797C701B6010E948E2496
:102A6000EFA1F8A56087718782879387D1011D92B6
:102A70001D921D921C921397F801108211821282EE
:102A80001382D5011D921D921D921C921397A89638
:102A90000FB6F894DEBF0FBECDBFDF91CF911F916F
:102AA0000F91FF90EF90DF90CF90BF90AF909F90ED
:102AB0008F907F906F905F904F903F902F900895F0
:102AC000D1011C920ACF2F923F924F925F926F9248
:102AD0007F928F929F92AF92BF92CF92DF92EF92AE
:102AE000FF920F931F93CF93DF9300D000D000D0BD
:102AF000CDB7DEB79E838D837A8369830E946B1284
:102B00002B013C0100E010E08D819E81845B9F4F92
:102B10001C01ED81FE81E85BFF4FFC83EB83898123
:102B20009A810817190709F455C0ED81FE8186893D
:102B30000E94A21EED81FE8197A386A3BC01882777
:102B400077FD8095982F0E9429256B017C01ED81EE
:102B5000FE8180AC91ACA2ACB3ACA50194010E9403
:102B6000252420E030E040E85AE30E94DD259B0167
:102B7000AC01C501B4010E9426249B01AC01ED818A
:102B8000FE8160AF71AF82AF93AFC701B6010E9403
:102B90002524ED81FE8160AB71AB82AB93AB9B01D1
:102BA000AC010E94DD259B01AC01EB81FC816083BF
:102BB000718382839383F10160817181828193812A
:102BC0000E942624F10160837183828393830F5FC7
:102BD0001F4FA5CFB80180E090E00E9427259B0100
:102BE000AC01F10160817181828193810E948E2408
:102BF0000E9444266B017C01B201882777FD8095F5
:102C0000982F0E94292520E030E04AE754E40E94F2
:102C10008E2420E030E040E85AE30E94DD25ED817B
:102C2000FE81248D358D468D578D0E94DD25A701AF
:102C300096010E94DD25ED81FE81608B718B828B78
:102C4000938BF101108211821282138226960FB6A5
:102C5000F894DEBF0FBECDBFDF91CF911F910F91D2
:102C6000FF90EF90DF90CF90BF90AF909F908F90AC
:102C70007F906F905F904F903F902F900895FF92BC
:102C80000F931F93CF93DF93FC010081C181D28109
:102C9000F8948981F02EF0948F21898378941DE730
:102CA000115029F182E090E00E94591E8881802312
:102CB000B9F3F8948A818F218A838981802B898353
:102CC000789480EE91E00E94591EF89489818F21BA
:102CD000898386E490E00E94591E8881802311E058
:102CE00009F010E078948AE991E00E94591E812F42
:102CF000DF91CF911F910F91FF9008951F93CF9374
:102D0000DF93FC011081C181D281912F909560FFEA
:102D100012C0F8948A8189238A838981812B8983CF
:102D20008AE090E00E94591E8A81812B8A837894E0
:102D300087E390E011C0F8948A8189238A8389818E
:102D4000812B898381E490E00E94591E8A81812B26
:102D50008A83789485E090E0DF91CF911F910C9465
:102D6000591E0F931F93CF93DF93FC011081C181F4
:102D7000D281F8948981812B89838A81012F0095E2
:102D800080238A8383E090E00E94591E89818023FA
:102D900089838AE090E00E94591EC881789485E377
:102DA00090E00E94591E1C2381E009F480E0DF912D
:102DB000CF911F910F910895CF92DF92EF92FF92E2
:102DC0000F931F93CF93DF931F92CDB7DEB76C01A4
:102DD000E62E08E010E0FF24F39461E09F2D9E2191
:102DE00009F460E0C60149830E947E16FF0C015081
:102DF000110949810115110581F7411115C0F89498
:102E0000D6011196ED91FC91129791818C9180954C
:102E1000892381831196ED91FC91129792818C9177
:102E200080958923828378940F90DF91CF911F91B1
:102E30000F91FF90EF90DF90CF900895EF92FF9267
:102E40000F931F93CF93DF938C01C8E0D0E0F12C58
:102E5000EE24E394C8010E94B1168111FE28EE0C05
:102E60002197C1F78F2DDF91CF911F910F91FF9087
:102E7000EF900895CF92DF92FF920F931F93CF931D
:102E8000DF931F92CDB7DEB78C01F62E40E065E5EB
:102E900079830E94DC16CF2C7981D72E88E0F82E1A
:102EA000F60161916F0140E0C8010E94DC16FA94BE
:102EB000B9F70F90DF91CF911F910F91FF90DF90A5
:102EC000CF90089540E06CEC0C94DC16FC01138666
:102ED0001586148627E030E0DF01A20FB31F13969A
:102EE0001C922115310519F021503109F5CF0895B3
:102EF0001F93CF93DF93EC01162F60E0812F0E9488
:102F0000471F612F70E0FB01E256FC4FE491E8831C
:102F1000FB01EE54FC4FE491F0E0EE0FFF1FEA538B
:102F2000FC4F859194919A838983CE01DF91CF9153
:102F30001F910C946617AF92BF92CF92DF92EF92DF
:102F4000FF920F931F93CF93DF931F92CDB7DEB7FE
:102F50005C01D62EE72EFC01858581115DC0C5017F
:102F60000E943F16811105C0F5011386158614864F
:102F70006CC040E060EFC5010E94DC1601E0F12C5E
:102F8000C12C11E0C5010E94B116682FC5016983EB
:102F90000E94B1166981613019F48130B9F433C0EF
:102FA0002F2D30E068131BC0F5018385181730F40E
:102FB000E20FF31F8381802349F402C0181731F018
:102FC00060E0193058F4F501148708C0F501EF0DE1
:102FD000F11D8381802B838361E009C0C12EF5013F
:102FE000E20FF31F8381902F909589238383C5017E
:102FF0000E947E161F5F000F11F4F39401E0F7E0CA
:10300000FF1508F0BFCF113438F0F501C386C110A9
:1030100009C081E0858706C0F501138615861486F0
:1030200080E013C0F50183818823B1F3ED2DFE2DDF
:1030300080E090E0D501A80FB91F13962C91219341
:10304000019688309105B1F781E00F90DF91CF9123
:103050001F910F91FF90EF90DF90CF90BF90AF90B6
:103060000895DC0180E0615038F0ED91E827F0E050
:10307000E657FD4F8491F7CF08950895FC018DE345
:1030800098E1928B818B768365831482108289E02C
:10309000818381E0828383830895FC018481089584
:1030A000CF93DF93EB0167E0CE010E94311891E0EE
:1030B0002F81821390E0892FDF91CF910895CF92D5
:1030C000DF92EF92FF920F931F93CF93DF9300D085
:1030D000CDB7DEB76C01F42EE52EFC01858196811B
:1030E00069837A830E943F1669817A81882311F16E
:1030F000F601858196810E943A1740E06EEBF60159
:10310000858196810E94DC160F2D1E2D89E0F82EF8
:10311000F601858196810E941E17F80181938F0127
:10312000FA94B1F7F601858196810E943F1691E0ED
:10313000813009F090E0892F0F900F90DF91CF91AF
:103140001F910F91FF90EF90DF90CF900895CF9354
:10315000DF93EA010E945F18882351F068E0CE01F6
:103160000E94311891E02885821390E0892F01C0D8
:1031700080E0DF91CF910895EF92FF920F931F931C
:10318000CF93DF93EC018B017A018D819E810E94A8
:103190003F16B8018D819E810E943A1740E06EE48F
:1031A0008D819E810E94DC1640E0F70162818D8155
:1031B0009E810E94DC1640E0F70163818D819E8133
:1031C0000E94DC16F8018081803139F040E0F7017F
:1031D00064818D819E810E94DC168D819E810E947A
:1031E0003F16B8018D819E810E943A17488168E49C
:1031F0008D819E810E94DC1664E170E080E090E0A9
:103200000E94311E8881882331F06AE070E080E0FE
:1032100090E00E94311E8D819E81DF91CF911F91A0
:103220000F91FF90EF900C943F16EF92FF921F9337
:10323000CF93DF9300D0CDB7DEB77C01FC01858151
:10324000968169837A830E943F1669817A81F701AA
:10325000858196810E943A1740E064EBF7018581F1
:1032600096810E94DC16F701858196810E94B11635
:10327000182FF701858196810E943F1681E0111178
:1032800080E00F900F90DF91CF911F91FF90EF9012
:103290000895EF92FF920F931F93CF93DF93CDB7D3
:1032A000DEB72A970FB6F894DEBF0FBECDBF7C0104
:1032B0008B01242FAE014F5F5F4F2A870E94A71812
:1032C0002A858823D1F0F80180818031C1F02B302C
:1032D00041F02C3021F02A3031F48FE305C08FE724
:1032E00003C08FE501C08FE18D83AE014F5F5F4F5B
:1032F000B801C7010E94BC1802C080E001C081E093
:103300002A960FB6F894DEBF0FBECDBFDF91CF91E6
:103310001F910F91FF90EF900895CF93DF93CDB75A
:10332000DEB729970FB6F894DEBF0FBECDBFFB0105
:1033300020812031D1F0AE014F5F5F4F0E94A7186E
:10334000882379F08D818F3351F020F48F3149F447
:1033500089E00CC08F3539F08F3739F002C08AE030
:1033600005C080E003C08BE001C08CE029960FB659
:10337000F894DEBF0FBECDBFDF91CF910895EF92DD
:10338000FF920F931F93CF93DF93CDB7DEB7619773
:103390000FB6F894DEBF0FBECDBF8C01FC01858156
:1033A00096810E946617F8011482FF24F394BE01EF
:1033B000665F7F4FF801858196810E949B17882365
:1033C000C9F1BE01665F7F4FC8010E945018882373
:1033D00071F3F8018081811108C0BE01665F7F4FE3
:1033E000C8010E941519811122C0AE014F5F5F4FC5
:1033F000BE01665F7F4FC8010E945F18F801E1803F
:10340000BE01665F7F4FC8010E948D198E1518F4AA
:10341000F801818106C0BE01665F7F4FC8010E942E
:103420008D19F801818384818F5F8483C0CFF80177
:10343000F082DBCF61960FB6F894DEBF0FBECDBF32
:10344000DF91CF911F910F91FF90EF900895FC01B4
:1034500062830895CF93DF93CDB7DEB729970FB678
:10346000F894DEBF0FBECDBFAE014F5F5F4F0E942D
:103470005F1881E09981911101C080E029960FB613
:10348000F894DEBF0FBECDBFDF91CF9108958F922C
:103490009F92AF92BF92CF92DF92EF92FF920F93E3
:1034A0001F93CF93DF93EC018A016950633048F496
:1034B000E62FF0E0EE0FFF1FEC53FC4F8080918071
:1034C00004C09EEE892E92E0992E0115110501F19E
:1034D0008B818823E9F0888181111AC00E94021E25
:1034E0006B017C01AA2497FCA094BA2CB801CE01F0
:1034F0000E942A1A81111FC00E94021E68197909B0
:103500008A099B096C157D058E059F05A0F4EECFF9
:10351000B401882777FD8095982FDF91CF911F9177
:103520000F91FF90EF90DF90CF90BF90AF909F9062
:103530008F900C94311EDF91CF911F910F91FF90CE
:10354000EF90DF90CF90BF90AF909F908F900895B5
:10355000CF93DF93EC018D819E810E943F168D8178
:103560009E810E946217488164E48D819E810E9441
:10357000DC168A81882341F040E050E06981CE0169
:10358000DF91CF910C94471ADF91CF910895FA0102
:10359000208148E0249F90011124818190E0982FA0
:1035A0008827990F990F990F282B392BDB018C91C4
:1035B0008031C1F4678170E08681AB01481B5109FD
:1035C000CA019695982F8827979587950E94AF26D0
:1035D00060517109207F53E0220F331F5A95E1F7A4
:1035E000260F371FC9010895EF92FF920F931F9383
:1035F000CF93DF93CDB7DEB729970FB6F894DEBF30
:103600000FBECDBF8C017B01AE014F5F5F4F0E94AB
:10361000A718882341F0AE014F5F5F4FB701C80183
:103620000E94C71A02C080E894EE29960FB6F8945B
:10363000DEBF0FBECDBFDF91CF911F910F91FF90E5
:10364000EF900895813824EE920774F0BC0188272A
:1036500077FD8095982F0E94292520E030E040E0FA
:103660005CE30E94DD25089560E070E08EEF92EC4F
:1036700008950E94F41A0C94221B80911A0790E07E
:1036800020911B07821B9109089520911B078091AF
:103690001A07281750F4E22FF0E0E45EF84F80811B
:1036A00090E02F5F20931B0708958FEF9FEF089501
:1036B000E0911B0780911A07E81730F4F0E0E45E10
:1036C000F84F808190E008958FEF9FEF089508955F
:1036D000CF92DF92EF92FF920F931F93CF93DF93DE
:1036E0007C01CB018A012091F706222389F0EB01AE
:1036F0006B01C40ED51ECC15DD0569F06991D701AB
:10370000ED91FC910190F081E02DC7010995F3CF77
:10371000642F0E94D81BC801DF91CF911F910F9198
:10372000FF90EF90DF90CF900895CF93DF931F929B
:10373000CDB7DEB769832091F7062223D1F020911F
:10374000F806203240F021E030E0FC013383228390
:1037500080E090E015C08091F906E82FF0E0E65097
:10376000F94F998190838F5F8093F9068093F806D3
:1037700005C061E0CE0101960E94D81B81E090E077
:103780000F90DF91CF910895FC011382128248EED1
:1037900053E060E070E044835583668377838EEC6A
:1037A00093E09183808308958BEE96E00C94C41B84
:1037B000613298F42091A907243089F460935E0760
:1037C000FC0180E697E0DC012A2F281B261718F45D
:1037D00021912D93F9CF80E0089581E0089582E052
:1037E000089585ED8093BC008091BC0084FDFCCFE2
:1037F0001092A907089585EC8093BC001092A90748
:1038000008951F920F920FB60F9211242F933F939A
:103810004F935F936F937F938F939F93AF93BF93D8
:10382000EF93FF938091B900887F803609F49CC0A4
:1038300068F5883209F45BC090F4803109F454C013
:1038400038F4882309F4F5C0883009F44DC0F5C078
:10385000883109F44CC0803209F45DC0EEC0803478
:1038600009F468C048F4803309F455C0883309F07E
:10387000E4C080933C07A8C0803509F44FC0883568
:1038800009F45DC0883409F0D8C0D5C0883909F47E
:10389000C6C0A8F4883709F467C038F4883609F43C
:1038A00063C0803709F460C0C8C0883809F4B7C065
:1038B000803909F45FC0803809F0BFC05BC0803B2D
:1038C00009F485C038F4803A09F466C0883A09F4EE
:1038D0007EC0B3C0803C09F4A6C0883C09F4A3C0F4
:1038E000883B09F489C0A9C08091A80710C09091B5
:1038F000810780918007981770F5E091810781E03A
:103900008E0F80938107F0E0EE57F84F808180930F
:10391000BB0085EC85C080933C078DC0E09181079A
:1039200081E08E0F809381078091BB00F0E0EE571D
:10393000F84F808390918107809180076DC0E0915E
:10394000810781E08E0F809381078091BB00F0E0BA
:10395000EE57F84F80838091A70781116CC081E0FA
:103960008093A60784EA60C083E08093A907109241
:103970003D07CFCF80913D07803208F050C0E091E5
:103980003D0781E08E0F80933D078091BB00F0E002
:10399000E25CF84F8083BDCF80913D07803230F4E8
:1039A000E0913D07F0E0E25CF84F10820E94F11BCD
:1039B00060913D0770E0E091A207F091A3078EE3CC
:1039C00097E0099510923D070E94FB1B36C084E0EA
:1039D0008093A90710925F0710925E07E091A407F9
:1039E000F091A507099580915E07811105C081E0DE
:1039F00080935E0710926007E0915F0781E08E0F71
:103A000080935F07F0E0E05AF84F80818093BB001D
:103A100090915F0780915E07981708F47ACF85E848
:103A20008093BC000AC085EC8093BC001092A9076B
:103A300004C010923C070E94F11BFF91EF91BF91CF
:103A4000AF919F918F917F916F915F914F913F9136
:103A50002F910F900FBE0F901F9018958230E8F4B1
:103A6000E82FF0E0EE0FFF1FE655F84F71836083FB
:103A7000813041F0809169008C7F842B80936900B4
:103A8000E89A089580916900440F551F440F551F0F
:103A9000837F842B80936900E99A0895823068F4CB
:103AA000813011F0E89801C0E998E82FF0E0EE0FBE
:103AB000FF1FE655F84F1182108208951F920F9252
:103AC0000FB60F9211242F933F934F935F936F93F1
:103AD0007F938F939F93AF93BF93EF93FF938091C7
:103AE000AA079091AB07892B29F0E091AA07F091E2
:103AF000AB070995FF91EF91BF91AF919F918F9186
:103B00007F916F915F914F913F912F910F900FBED9
:103B10000F901F9018951F920F920FB60F921124BD
:103B20002F933F934F935F936F937F938F939F93C5
:103B3000AF93BF93EF93FF938091AC079091AD0744
:103B4000892B29F0E091AC07F091AD070995FF9121
:103B5000EF91BF91AF919F918F917F916F915F9105
:103B60004F913F912F910F900FBE0F901F9018957E
:103B70001F920F920FB60F9211242F933F938F93A2
:103B80009F93AF93BF938091AF079091B007A0919F
:103B9000B107B091B2073091AE0723E0230F2D3764
:103BA00020F40196A11DB11D05C026E8230F029641
:103BB000A11DB11D2093AE078093AF079093B0076E
:103BC000A093B107B093B2078091B3079091B40767
:103BD000A091B507B091B6070196A11DB11D8093C4
:103BE000B3079093B407A093B507B093B607BF91FE
:103BF000AF919F918F913F912F910F900FBE0F909A
:103C00001F9018952FB7F8946091AF077091B00787
:103C10008091B1079091B2072FBF08953FB7F894F4
:103C20008091B3079091B407A091B507B091B60702
:103C300026B5A89B05C02F3F19F00196A11DB11D07
:103C40003FBF6627782F892F9A2F620F711D811D24
:103C5000911D42E0660F771F881F991F4A95D1F783
:103C60000895CF92DF92EF92FF92CF93DF936B0193
:103C70007C010E940E1EEB01C114D104E104F10489
:103C800089F00E9424240E940E1E6C1B7D0B683E4E
:103C9000734090F381E0C81AD108E108F108C851D7
:103CA000DC4FEACFDF91CF91FF90EF90DF90CF9084
:103CB00008958230910538F0880F991F880F991F59
:103CC00005970197F1F70895789484B5826084BDD3
:103CD00084B5816084BD85B5826085BD85B5816010
:103CE00085BDEEE6F0E0808181608083E1E8F0E070
:103CF0001082808182608083808181608083E0E89F
:103D0000F0E0808181608083E1EBF0E0808184607D
:103D10008083E0EBF0E0808181608083EAE7F0E07F
:103D200080818460808380818260808380818160E3
:103D300080838081806880831092C1000895809381
:103D4000190108958E3008F08E5087702091190166
:103D500090E4299F90011124822B80937C00809114
:103D60007A00806480937A0080917A0086FDFCCF8F
:103D7000809178002091790090E0922B08951F9314
:103D8000CF93DF93182FEB0161E00E94471F20972C
:103D900011F460E004C0CF3FD10539F461E0812F18
:103DA000DF91CF911F910C94801FE12FF0E0E65737
:103DB000FC4FE491E330F9F048F4E130B9F0E2303F
:103DC000A1F584B5806284BDC8BD34C0E730E9F098
:103DD000E83019F1E43049F58091800080628093E9
:103DE0008000D0938B00C0938A0024C084B5806883
:103DF00084BDC7BD1FC08091800080688093800013
:103E0000D0938900C093880015C08091B00080686D
:103E10008093B000C093B3000DC08091B000806269
:103E20008093B000C093B40005C0C038D1050CF039
:103E3000B5CFAFCFDF91CF911F910895833081F03F
:103E400028F4813099F08230A1F008958730A9F0EC
:103E50008830B9F08430D1F4809180008F7D03C028
:103E6000809180008F7780938000089584B58F774C
:103E700002C084B58F7D84BD08958091B0008F7796
:103E800003C08091B0008F7D8093B0000895CF93E0
:103E9000DF9390E0FC01E256FC4F2491FC01EE54CC
:103EA000FC4F8491882349F190E0880F991FFC0111
:103EB000E652FC4FA591B49180539C4FFC01C591F3
:103EC000D4919FB7611108C0F8948C9120958223FA
:103ED0008C93888182230AC0623051F4F8948C91CB
:103EE000322F309583238C938881822B888304C062
:103EF000F8948C91822B8C939FBFDF91CF91089582
:103F00000F931F93CF93DF931F92CDB7DEB7282F68
:103F100030E0F901E657FC4F8491F901E256FC4F7D
:103F20001491F901EE54FC4F04910023C9F0882349
:103F300021F069830E941E1F6981E02FF0E0EE0FDF
:103F4000FF1FE053FC4FA591B4919FB7F8948C915B
:103F5000611103C01095812301C0812B8C939FBFF9
:103F60000F90DF91CF911F910F910895CF93DF9321
:103F7000282F30E0F901E657FC4F8491F901E25611
:103F8000FC4FD491F901EE54FC4FC491CC2391F035
:103F900081110E941E1FEC2FF0E0EE0FFF1FEA536D
:103FA000FC4FA591B4912C912D2381E090E021F458
:103FB00080E002C080E090E0DF91CF910895FC01A5
:103FC000818D228D90E0805C9F4F821B91098F73C1
:103FD00099270895FC01918D828D981731F0828D7B
:103FE000E80FF11D858D90E008958FEF9FEF089504
:103FF000FC01918D828D981761F0828DDF01A80FF1
:10400000B11D5D968C91928D9F5F9F73928F90E012
:1040100008958FEF9FEF08958CE791E2892B49F087
:1040200080E090E0892B29F00E947C2181110C9482
:1040300000000895FC01848DDF01A80FB11DA35A73
:10404000BF4F2C91848D90E001968F739927848FB8
:10405000A689B7892C93A089B1898C9180648C93AF
:10406000938D848D981306C00288F389E02D80819A
:104070008F7D80830895CF93DF93EC01888D882313
:10408000C9F0EA89FB89808185FD05C0A889B989C5
:104090008C9186FD0FC00FB607FCF5CF808185FFA0
:1040A000F2CFA889B9898C9185FFEDCFCE010E940E
:1040B0001A20E7CFDF91CF910895CF92DF92FF9240
:1040C0000F931F93CF93DF931F92CDB7DEB76C0191
:1040D00081E0D60158968C9358975B969C915B979C
:1040E0005C968C915C97981307C05096ED91FC916B
:1040F0005197808185FD2EC0F601038D10E00F5F82
:104100001F4F0F731127F02EF601848DF81211C086
:104110000FB607FCF9CFD6015096ED91FC9151975F
:10412000808185FFF1CFC60169830E941A206981D1
:10413000EBCF838DE80FF11DE35AFF4F6083D6016B
:104140005B960C935B975296ED91FC91539780810F
:1041500080620CC0D6015696ED91FC915797608312
:104160005096ED91FC91519780818064808381E02D
:1041700090E00F90DF91CF911F910F91FF90DF9012
:10418000CF900895BF92CF92DF92EF92FF92CF939C
:10419000DF93EC016A017B01B22EE889F98982E0A4
:1041A0008083411581EE580761057105A1F060E03B
:1041B00079E08DE390E0A70196010E94C32621508B
:1041C000310941095109569547953795279521158C
:1041D00080E1380798F0E889F989108260E874E88E
:1041E0008EE190E0A70196010E94C326215031097B
:1041F000410951095695479537952795EC85FD85D9
:104200003083EE85FF852083188EEC89FD89B0828E
:10421000EA89FB89808180618083EA89FB898081CA
:1042200088608083EA89FB89808180688083EA894D
:10423000FB8980818F7D8083DF91CF91FF90EF900C
:10424000DF90CF90BF9008951F920F920FB60F92FC
:1042500011242F938F939F93EF93FF93E091C707C0
:10426000F091C8078081E091CD07F091CE0782FDE3
:1042700012C090818091D0078F5F8F732091D107FA
:10428000821751F0E091D007F0E0E954F84F958F94
:104290008093D00701C08081FF91EF919F918F9112
:1042A0002F910F900FBE0F901F9018951F920F9295
:1042B0000FB60F9211242F933F934F935F936F93F9
:1042C0007F938F939F93AF93BF93EF93FF9387EB6E
:1042D00097E00E941A20FF91EF91BF91AF919F91BB
:1042E0008F917F916F915F914F913F912F910F909F
:1042F0000FBE0F901F90189587EB97E00E94DF1F6D
:1043000021E0892B09F420E0822F08951092BA074A
:104310001092B90788EE93E0A0E0B0E08093BB076D
:104320009093BC07A093BD07B093BE078EED93E0BA
:104330009093B8078093B70785EC90E09093C407FB
:104340008093C30784EC90E09093C6078093C507E1
:1043500080EC90E09093C8078093C70781EC90E0D1
:104360009093CA078093C90782EC90E09093CC07A2
:104370008093CB0786EC90E09093CE078093CD0797
:104380001092D0071092D1071092D2071092D30743
:10439000089508950E94641E0E94C9210E94260764
:1043A000CCE0D0E20E94BA082097E1F30E940C20F2
:1043B000F9CFCF92DF92EF92FF920F931F93CF939B
:1043C000DF936C017A01EB01E60EF71E00E010E0CE
:1043D000CE15DF0561F06991D601ED91FC91019058
:1043E000F081E02DC6010995080F191FF1CFC80112
:1043F000DF91CF911F910F91FF90EF90DF90CF90C1
:1044000008956115710581F0DB010D900020E9F739
:10441000AD0141505109461B570BDC01ED91FC9158
:104420000280F381E02D099480E090E008950C94DF
:104430000122DC01ED91FC910190F081E02D0994C5
:104440006AEE73E00C9401220F931F93CF93DF93D6
:10445000EC010E9401228C01CE010E942022800FDB
:10446000911FDF91CF911F910F9108958F929F928D
:10447000AF92BF92CF92DF92EF92FF920F931F9372
:10448000CF93DF93CDB7DEB7A1970FB6F894DEBF19
:104490000FBECDBF7C01C42EE52FCB01D22E19A2B9
:1044A00021E02D1510F02AE0D22E8E010F5D1F4F56
:1044B0008D2C912CA12CB12C6C2D7E2FA50194015B
:1044C0000E94C3268C2DD29E8019112401501109FF
:1044D0008A3014F4805D01C0895CF8018083211565
:1044E00031054105510521F0C22EE32FCA01E4CF69
:1044F000B801C7010E940122A1960FB6F894DEBF51
:104500000FBECDBFDF91CF911F910F91FF90EF9024
:10451000DF90CF90BF90AF909F908F900895CF92F3
:10452000DF92EF92FF920F931F93CF93DF93EC01F3
:104530006A017B012115310579F4E881F981019047
:10454000F081E02D642FDF91CF911F910F91FF90AB
:10455000EF90DF90CF9009942A303105E9F477FF8E
:104560001AC06DE20E9419228C0144275527BA0116
:104570004C195D096E097F092AE0CE010E9436229E
:10458000800F911FDF91CF911F910F91FF90EF90BE
:10459000DF90CF9008952AE0B701A601CE01DF9108
:1045A000CF911F910F91FF90EF90DF90CF900C94DF
:1045B00036229A01AB01662757FD6095762F0C9441
:1045C0008F220F931F93CF93DF93EC019A01AB01DE
:1045D000662757FD6095762F0E948F228C01CE01B1
:1045E0000E942022800F911FDF91CF911F910F9188
:1045F00008952115310541F4DC01ED91FC91019004
:10460000F081E02D642F09940C9436229A01462FF4
:1046100050E060E070E00C94F9229A01AB0160E098
:1046200070E00C94F9220F931F93CF93DF93EC016A
:104630000E94F9228C01CE010E942022800F911F3E
:10464000DF91CF911F910F9108954F925F926F92DA
:104650007F928F929F92AF92BF92CF92DF92EF9212
:10466000FF920F931F93CF93DF93EC016A017B01BD
:10467000B22E9A01AB01C701B6010E94822688239F
:1046800019F06DEE73E027C026013701E89477F842
:104690002FEF3FEF4FE75FE7C301B2010E94822691
:1046A00081110DC02FEF3FEF4FE75FE7C301B2016C
:1046B0000E948A2418161CF461EF73E00CC02FEFDF
:1046C0003FEF4FE75FE4C701B6010E94D9251816F6
:1046D000ACF465EF73E0CE01DF91CF911F910F91A4
:1046E000FF90EF90DF90CF90BF90AF909F908F9012
:1046F0007F906F905F904F900C9401222FEF3FEFCF
:104700004FE75FECC701B6010E948A2487FDE1CF25
:1047100020E030E0A901C701B6010E948A2487FF8A
:104720000AC06DE2CE010E9419228C01F7FAF094C2
:10473000F7F8F09402C000E010E0A12C60E070E017
:1047400080E09FE3AB1441F020E030E040E251E430
:104750000E948E24A394F6CF9B01AC01C701B60141
:104760000E9426246B017C010E94FB242B013C014A
:104770000E9427259B01AC01C701B6010E94252498
:104780006B017C012AE0B301A201CE010E94362216
:10479000080F191FBB2039F063E373E0CE010E94BC
:1047A0000122080F191F7B2C772041F120E030E017
:1047B00040E251E4C701B6010E94DD256B017C0196
:1047C0000E94F6244B01AA2497FCA094BA2C2AE05C
:1047D00030E0B501A401CE010E948F22080F191FFD
:1047E000C501B4010E9429259B01AC01C701B60196
:1047F0000E9425246B017C017A94D6CFC801DF91F9
:10480000CF911F910F91FF90EF90DF90CF90BF90CD
:10481000AF909F908F907F906F905F904F90089592
:104820000C9425230F931F93CF93DF93EC010E94E9
:1048300025238C01CE010E942022800F911FDF9141
:10484000CF911F910F91089508955058BB27AA2723
:104850000ED075C166D130F06BD120F031F49F3F9E
:1048600011F41EF45BC10EF4E095E7FB51C1E92F92
:1048700077D180F3BA17620773078407950718F09A
:1048800071F49EF58FC10EF4E0950B2EBA2FA02D7A
:104890000B01B90190010C01CA01A0011124FF27ED
:1048A000591B99F0593F50F4503E68F11A16F040E8
:1048B000A22F232F342F4427585FF3CF46953795E7
:1048C0002795A795F0405395C9F77EF41F16BA0BAC
:1048D000620B730B840BBAF09150A1F0FF0FBB1F5A
:1048E000661F771F881FC2F70EC0BA0F621F731FA3
:1048F000841F48F4879577956795B795F7959E3F00
:1049000008F0B3CF9395880F08F09927EE0F97958D
:1049100087950895D9D008F481E008950CD00FC18F
:1049200007D140F0FED030F021F45F3F19F0F0C025
:10493000511139C1F3C014D198F39923C9F3552308
:10494000B1F3951B550BBB27AA2762177307840782
:1049500038F09F5F5F4F220F331F441FAA1FA9F338
:1049600033D00E2E3AF0E0E830D091505040E6952A
:10497000001CCAF729D0FE2F27D0660F771F881F8B
:10498000BB1F261737074807AB07B0E809F0BB0B7A
:10499000802DBF01FF2793585F4F2AF09E3F51059E
:1049A00068F0B6C000C15F3FECF3983EDCF386953B
:1049B00077956795B795F7959F5FC9F7880F911D14
:1049C0009695879597F90895E1E0660F771F881F00
:1049D000BB1F621773078407BA0720F0621B730BB3
:1049E000840BBA0BEE1F88F7E095089504D0689405
:1049F000B111D9C00895BCD088F09F5790F0B92F5D
:104A00009927B751A0F0D1F0660F771F881F991F23
:104A10001AF0BA95C9F712C0B13081F0C3D0B1E035
:104A20000895C0C0672F782F8827B85F39F0B93F45
:104A3000CCF3869577956795B395D9F73EF4909525
:104A40008095709561957F4F8F4F9F4F0895E894A3
:104A500009C097FB3EF490958095709561957F4FC6
:104A60008F4F9F4F9923A9F0F92F96E9BB27939574
:104A7000F695879577956795B795F111F8CFFAF484
:104A8000BB0F11F460FF1BC06F5F7F4F8F4F9F4FB5
:104A900016C0882311F096E911C0772321F09EE813
:104AA000872F762F05C0662371F096E8862F70E079
:104AB00060E02AF09A95660F771F881FDAF7880F53
:104AC0009695879597F90895990F0008550FAA0BA9
:104AD000E0E8FEEF16161706E807F907C0F0121611
:104AE0001306E407F50798F0621B730B840B950B14
:104AF00039F40A2661F0232B242B252B21F4089569
:104B00000A2609F4A140A6958FEF811D811D089505
:104B100097F99F6780E870E060E008959FEF80EC70
:104B2000089500240A941616170618060906089513
:104B300000240A9412161306140605060895092E79
:104B40000394000C11F4882352F0BB0F40F4BF2BE8
:104B500011F460FF04C06F5F7F4F8F4F9F4F089528
:104B600057FD9058440F551F59F05F3F71F047951E
:104B7000880F97FB991F61F09F3F79F08795089503
:104B8000121613061406551FF2CF4695F1DF08C022
:104B9000161617061806991FF1CF8695710561053F
:104BA00008940895E894BB2766277727CB0197F9E7
:104BB00008958ADF08F48FEF08950BD0C0CFB1DFDE
:104BC00028F0B6DF18F0952309F0A2CFA7CF112463
:104BD000EACFC6DFA0F3959FD1F3950F50E0551FA4
:104BE000629FF001729FBB27F00DB11D639FAA2742
:104BF000F00DB11DAA1F649F6627B00DA11D661F91
:104C0000829F2227B00DA11D621F739FB00DA11DB1
:104C1000621F839FA00D611D221F749F3327A00D6B
:104C2000611D231F849F600D211D822F762F6A2F07
:104C300011249F5750408AF0E1F088234AF0EE0F8C
:104C4000FF1FBB1F661F771F881F91505040A9F799
:104C50009E3F510570F05CCFA6CF5F3FECF3983ECE
:104C6000DCF3869577956795B795F795E7959F5F00
:104C7000C1F7FE2B880F911D9695879597F908959A
:104C800011F40EF44BCF42C073DFD0F39923D9F364
:104C9000CEF39F57550B87FF47D00024A0E640EA8C
:104CA000900180585695979528F4805C660F771F81
:104CB000881F20F026173707480730F4621B730B54
:104CC000840B202931294A2BA69517940794202577
:104CD00031254A2758F7660F771F881F20F02617BF
:104CE0003707480730F4620B730B840B200D311D1E
:104CF000411DA09581F7B901842F9158880F969591
:104D000087950895E1DE880B990B08959F3F31F058
:104D1000915020F4879577956795B795880F911DE9
:104D20009695879597F9089591505040660F771F93
:104D3000881FD2F70895AA1BBB1B51E107C0AA1F09
:104D4000BB1FA617B70710F0A61BB70B881F991F2C
:104D50005A95A9F780959095BC01CD01089597FBD0
:104D6000072E16F4009407D077FD09D00E949B26E9
:104D700007FC05D03EF4909581959F4F089570955E
:104D800061957F4F0895A1E21A2EAA1BBB1BFD015E
:104D90000DC0AA1FBB1FEE1FFF1FA217B307E4071A
:104DA000F50720F0A21BB30BE40BF50B661F771F72
:104DB000881F991F1A9469F7609570958095909552
:104DC0009B01AC01BD01CF010895052E97FB1EF498
:104DD00000940E94FC2657FD07D00E94C32607FCC2
:104DE00003D04EF40C94FC265095409530952195B7
:104DF0003F4F4F4F5F4F0895909580957095619507
:104E00007F4F8F4F9F4F0895EE0FFF1F0590F49136
:104E1000E02D09940E941227332312F48A1B9B0B66
:104E20000C942327A29FB001B39FC001A39F700DD4
:104E3000811D1124911DB29F700D811D1124911DA2
:104E400008950E941227B7FF0895821B930B0895BF
:104E50000E941227A59F900DB49F900DA49F800DD6
:0A4E6000911D11240895F894FFCF6E
:104E6A0000005408800000A0F04400181C4639C213
:104E7A00F3CB050101C3B58443014F6B0028002021
:104E8A002D3E2061636B00435420312043616C3A0C
:104E9A002000435420322043616C3A2000435420BE
:104EAA00332043616C3A2000435420342043616C20
:104EBA003A200056524D53204143207E0041432060
:104ECA0057617665204465746563746564202D2096
:104EDA005265616C20506F7765722063616C632044
:104EEA00656E61626C656400555341206D6F64653F
:104EFA002061637469766520005663616C3A20000C
:104F0A0056726D733A200050686173652053686960
:104F1A0066743A20004143204E4F542064657465FC
:104F2A0063746564202D204170706172656E74200F
:104F3A00506F7765722063616C6320656E61626C85
:104F4A00656400555341206D6F6465004173737544
:104F5A006D696E672056524D533A2000417373753E
:104F6A006D696E6720706F7765722066726F6D204B
:104F7A0062617474202F20355620555342202D200B
:104F8A00706F776572207361766520656E61626CF9
:104F9A006564006E6F2043542064657465637465AC
:104FAA00640043542031206465746563740043547B
:104FBA00203220646574656374004354203320648E
:104FCA0065746563740043542034206465746563B2
:104FDA007400446574656374200020445331384278
:104FEA003230003020445331384232302064657404
:104FFA0065637465640052464D3639435720496EDD
:10500A0069743A20004E6F6465200020467265710B
:10501A0020003433334D687A003836384D687A00C8
:10502A003931354D687A00204E6574776F726B207E
:10503A0000435431204354322043543320435434E0
:10504A002056524D532F424154542050554C5345EB
:10505A00002054656D706572617475726520312D1A
:10506A00004F4B200020282D302900656D6F6E50AF
:10507A00692056004F70656E456E657267794D6F8F
:10508A006E69746F722E6F726700737461727475D1
:10509A00702E2E2E002052464D3639435720666F09
:1050AA00756E642000504F53542E2E2E2E2E77618B
:1050BA00697420313073005B656D6F6E50692E0024
:1050CA005D0020690020670020402000204D487ABA
:1050DA00002055534120000A462C20200009696E01
:1050EA00742C2020003D3D3D3D3D3D3D3D3D3D3D37
:1050FA003D3D3D3D3D3D3D3D3D3D3D3D20444542DF
:10510A005547200074696D6509617672672061648C
:10511A0063093E20766F6C7409203E3E6375727295
:10512A00002B565A5E00BC00770100000000951B58
:10513A00681B3D1B451B581B671B000000005D20B8
:10514A00D921DF1FF81FEA1F3B200D0A006E616E8E
:0A515A0000696E66006F76660000C3
:00000001FF
