:100000000C94F5010C944D1D0C947A1D0C941D025A
:100010000C941D020C941D020C9460020C941D02A1
:100020000C941D020C941D020C941D020C941D02D4
:100030000C941D020C941D020C941D020C941D02C4
:100040000C94A71D0C941D020C9413210C944521B3
:100050000C941D020C941D020C941D020C941D02A4
:100060000C94F01B0C941D02ED0A7F0AF80AF80AA2
:10007000F80AF80AA30AF80A6B0AF80AF80AF80A52
:10008000F80AF80AF80AC40AF80AF80AED0AF80A9F
:10009000F80AD60A20620A00202D3E20000A417686
:1000A00061696C61626C6520636F6D6D616E647314
:1000B0003A0A20203C6E6E3E206920202020202D10
:1000C00020736574206E6F64652049447320287323
:1000D00074616E64617264206E6F6465206964731C
:1000E0002061726520312E2E3330290A20203C6E8B
:1000F0003E20622020202020202D20736574204D7A
:10010000487A2062616E64202834203D20343333E5
:100110002C2038203D203836382C2039203D2039FD
:100120003135290A20203C6E6E6E3E20672020204B
:10013000202D20736574206E6574776F726B206755
:10014000726F7570202852464D3132206F6E6C7977
:1001500020616C6C6F7773203231322C2030203D5F
:1001600020616E79290A20203C6E3E2063202020E9
:100170002020202D2073657420636F6C6C65637480
:10018000206D6F64652028616476616E6365642C00
:10019000206E6F726D616C6C792030290A20202EE0
:1001A0002E2E2C3C6E6E3E2061202D2073656E64D9
:1001B0002064617461207061636B657420746F20CA
:1001C0006E6F6465203C6E6E3E2C207265717565A5
:1001D00073742061636B0A20202E2E2E2C3C6E6ED1
:1001E0003E2073202D2073656E642064617461204D
:1001F0007061636B657420746F206E6F6465203C62
:100200006E6E3E2C206E6F2061636B0A20202E2EB6
:100210002E2C3C6E3E207020202D205365742041F2
:10022000432041646170746572205663616C2031B3
:1002300070203D20554B2C203270203D20555341DD
:100240000A202076202020202020202020202D2061
:1002500053686F77206669726D7761726520766585
:100260007273696F6E0A00010402000302048A05BA
:100270000506C30B2019421E2C25802E882F2D37F2
:100280000038003C8F3D106F2000005EBCE2613FF3
:10029000DD83C29C7E20A3FD1F419DC3217FFCA264
:1002A000401E5F01E3BD3E6082DC237D9FC1421C96
:1002B000FEA0E1BF5D0380DE3C62BEE0025CDF8148
:1002C000633D7C22C09E1D43A1FF4618FAA42779F6
:1002D0009BC584DA3866E5BB5907DB856739BAE424
:1002E00006581947A5FB7826C49A653BD987045A56
:1002F000B8E6A7F91B45C6987A24F8A6441A99C708
:10030000257B3A6486D85B05E7B98CD2306EEDB3B5
:10031000510F4E10F2AC2F7193CD114FADF3702EE3
:10032000CC92D38D6F31B2EC0E50AFF1134DCE9015
:10033000722C6D33D18F0C52B0EE326C8ED0530DC7
:10034000EFB1F0AE4C1291CF2D73CA947628ABF575
:1003500017490856B4EA6937D58B5709EBB53668A3
:100360008AD495CB2977F4AA4816E9B7550B88D6D5
:10037000346A2B7597C94A14F6A8742AC896154B87
:10038000A9F7B6E80A54D7896B35000000080002C7
:10039000010000030407000000000000000001024B
:1003A0000408102040800102040810200102040803
:1003B00010200404040404040404020202020202E1
:1003C00003030303030300000000230026002900A9
:1003D00000000000250028002B0000000000240081
:1003E00027002A008408C31B752111241FBECFEFEC
:1003F000D8E0DEBFCDBF13E0A0E0B1E0E8E4FEE46A
:1004000002C005900D92A23EB107D9F728E0A2EEF6
:10041000B3E001C01D92A433B207E1F713E0CAEEC6
:10042000D3E004C02297FE010E94F526C43ED10706
:10043000C9F70E94B9210C9422270C9400001F9345
:10044000CF93DF93EC01FE011491112371F01A3068
:1004500029F46DE087E997E00E940822612F87E97F
:1004600097E00E9408222196EECFDF91CF911F9155
:1004700008950F931F930E94F11D00914C04109159
:100480004D0420914E0430914F04601B710B820B80
:10049000930B6F3671058105910578F080915404B6
:1004A0008F5F809354040E94F11D60934C047093FD
:1004B0004D0480934E0490934F041F910F91089523
:1004C0001F920F920FB60F9211242F933F934F93C9
:1004D0005F936F937F938F939F93AF93BF93EF93AC
:1004E000FF930E94760FFF91EF91BF91AF919F9183
:1004F0008F917F916F915F914F913F912F910F90CD
:100500000FBE0F901F90189561E086E00E946F1F4C
:1005100062E370E080E090E00E94201E60E086E0F0
:100520000C946F1F61E086E00E946F1F69E170E02C
:1005300080E090E00E94201E60E086E00E946F1F35
:1005400061E086E00E946F1F69E170E080E090E06A
:100550000E94201E60E086E00C946F1FCF93DF9313
:100560006AE070E080E090E00E94201E20E436E027
:1005700040910E0160911301809112010E9481113E
:10058000CAE0D0E0D0936A04C09369044EE169E602
:1005900074E080E00E94F01164E670E080E090E09A
:1005A0000E94201E219770F782E00E940F12109285
:1005B0006A0410926904DF91CF910895FF920F931E
:1005C0001F93CF93DF930E94DA11882309F461C04F
:1005D000F09083068091C9069091CA06892B09F094
:1005E00059C06AE171E087E997E00E9406226BE753
:1005F00073E087E997E00E940622609182066F719E
:1006000070E04AE050E087E997E00E94C8226BE77B
:1006100073E087E997E00E94062204E816E0E8010B
:100620008C2F801B8F1570F4699170E04AE050E0C8
:1006300087E997E00E94FC2260E287E997E00E9448
:100640000822EECF6DE171E087E997E00E94062273
:100650006091770670E07595679571956195710960
:100660004AE050E087E997E00E94C82269E073E021
:1006700087E997E00E94062287E997E00E940F220F
:100680008091820685FF1BC08091820687FF04C08F
:1006900016C019C080E017C06FE171E087E997E0EC
:1006A0000E9406228091820686FD0BC08091820600
:1006B0008F71806C40E060E070E00E94EE1181E09C
:1006C00002C080E8F7CFDF91CF911F910F91FF908B
:1006D0000895809102048823D1F10E94EC118111C8
:1006E00001C0089561E086E00E946F1F68EC70E031
:1006F00080E090E00E94201E60E086E00E946F1F74
:1007000088E990E00E941F026091040470E04AE0D2
:1007100050E087E997E00E94FC2284E990E00E9483
:100720001F0280910204813681F080E090910304E1
:10073000992311F09064892B4091040466E074E0E1
:100740000E94EE1110920204089580E2EFCF089506
:10075000CF93DF9367E271E087E997E00E9406227A
:1007600022E030E04DEC5CEC65EB72E487E997E069
:100770000E94012462E371E087E997E00E9406226B
:1007800022E030E04DEC5CEC65EB72E487E997E049
:100790000E9401246DE371E087E997E00E94062240
:1007A00022E030E04DEC5CEC65EB72E487E997E029
:1007B0000E94012468E471E087E997E00E94062224
:1007C00022E030E049E25CE565E871E487E997E022
:1007D0000E94012468EE73E080E090E00E94201EF9
:1007E00063E571E087E997E00E9406224091610489
:1007F00050916204609163047091640422E030E0DF
:1008000087E997E00E94FF2362E173E087E997E0C0
:100810000E94132280915C04882309F461C0CAE01D
:10082000D0E061E086E00E946F1F68EC70E080E03D
:1008300090E00E94201E60E086E00E946F1F6CE244
:1008400071E080E090E00E94201E219751F76DE555
:1008500071E087E997E00E9413228091DD048823EC
:1008600031F068E871E087E997E00E94062269E9C3
:1008700071E087E997E00E9406224091650450915B
:100880006604609167047091680422E030E087E9B3
:1008900097E00E94012460EA71E087E997E00E94F6
:1008A00006224AE050E06091590487E997E00E94EF
:1008B000F52262E173E087E997E00E94132267EA7C
:1008C00071E087E997E00E94062222E030E04AE9E1
:1008D00059E969ED7FE387E997E00E9401243EC072
:1008E00068EE73E080E090E00E94201E61E086E008
:1008F0000E946F1F60ED77E080E090E00E94201E74
:1009000060E086E00E946F1F65EB71E087E997E089
:100910000E9413228091DD04882331F063EE71E0A0
:1009200087E997E00E9413226CEE71E087E997E077
:100930000E9406224AE050E06091590487E997E05E
:100940000E94F52262E173E087E997E00E9413229A
:100950006CEF71E087E997E00E94132280915A04BE
:10096000811103C063E372E024C080916004882396
:1009700031F062E472E087E997E00E9413228091EF
:100980005F04882331F06EE472E087E997E00E940B
:10099000132280915E04882331F06AE572E087E9D2
:1009A00097E00E94132280915D04882331F066E66F
:1009B00072E087E997E00E94132260ED77E080E023
:1009C00090E00E94201E80915B04882389F062E7FA
:1009D00072E087E997E00E9406224AE050E06091C9
:1009E0008B0487E997E00E94F5226AE772E002C073
:1009F00063E872E087E997E00E9413228091140176
:100A0000882309F474C066E972E087E997E00E94E0
:100A1000132265EA72E087E997E00E9406224AE025
:100A200050E06091120187E997E00E94F5226BEA9D
:100A300072E087E997E00E940622809113018130DD
:100A400031F462EB72E087E997E00E940622809120
:100A50001301823031F469EB72E087E997E00E947C
:100A6000062280911301833031F460EC72E087E953
:100A700097E00E94062267EC72E087E997E00E9407
:100A8000062240910E0150910F016091100170916A
:100A900011012AE030E087E997E00E94022361ED2E
:100AA00072E087E997E00E94062280915B04882328
:100AB00071F061EF72E087E997E00E9406224AE058
:100AC00050E060918B0487E997E00E94F5226BE784
:100AD00073E087E997E00E94132264EF71E080E001
:100AE00090E00E94201E8DE990E00E941F0264E1C8
:100AF00070E080E090E0DF91CF910C94201EEF92A7
:100B0000FF920F931F93CF93DF93CDB7DEB76E970E
:100B10000FB6F894DEBF0FBECDBF8EE1E9E6F4E07C
:100B2000DE01119601900D928A95E1F761E073E084
:100B300087E997E00E9406224AE050E060911201A6
:100B400087E997E00E94F5228E010F5F1F4F7E011B
:100B50008FE1E80EF11C60E287E997E00E9408222D
:100B6000F80161918F014AE050E087E997E00E9427
:100B7000F5220E151F0579F765E073E087E997E028
:100B80000E94062287E997E00E940F226AE070E047
:100B900080E090E06E960FB6F894DEBF0FBECDBF3A
:100BA000DF91CF911F910F91FF90EF900C94201E39
:100BB000CF92DF92EF92FF920F931F93CF93DF9329
:100BC000EB0100E010E0C12CD12C76010C171D07C1
:100BD0007CF480E00E94911EDC01B2509D010E94D5
:100BE000F926C60ED71EE81EF91E0F5F1F4FEECF67
:100BF000C701B6010E9416256B017C01BE01882742
:100C000077FD8095982F0E9418259B01AC01C701A4
:100C1000B6010E947D24DF91CF911F910F91FF902B
:100C2000EF90DF90CF900C94332661E086E00E9435
:100C3000361F61E086E00E946F1F61E084E00E9441
:100C4000361F60E084E00E946F1F60E083E00E9436
:100C5000361F26E040E056E960E070E087E997E063
:100C60000E94B1206BE073E087E997E00E940622C2
:100C700022E030E047E656E666E070E487E997E078
:100C80000E94012464E173E087E997E00E94132247
:100C90006AE273E087E997E00C94132281E00E94F6
:100CA000911E181619064CF481E08093600480911F
:100CB0005A048F5F80935A0402C01092600482E04D
:100CC0000E94911E181619064CF481E080935F046F
:100CD00080915A048F5F80935A0402C010925F047F
:100CE00083E00E94911E181619064CF481E080934F
:100CF0005E0480915A048F5F80935A0402C0109260
:100D00005E0484E00E94911E181619064CF481E0DE
:100D100080935D0480915A048F5F80935A0402C0CF
:100D200010925D0480915A04811103C081E0809388
:100D3000600480E197E20E94210F60E086E00E945B
:100D40006F1F61E08EE00E94361F6FEF70E08EE053
:100D50000E94AE1E60E070E08EE00E94AE1E60E079
:100D60008EE00E94361F64EF71E080E090E00E9408
:100D7000201E64EF76E080E090E00E94D80522E536
:100D800038EB4EE55FE30E94CC2520E030E044EBF9
:100D900052E40E94C825181624F481E080935C0474
:100DA000089510925C040895CF938CEB94E00E9418
:100DB000AE1960E08CEB94E00E94161A8CEB94E084
:100DC0000E943C1880938B048CEB94E00E943C18AA
:100DD00080938B04C0E080918B04C81760F488E096
:100DE000C89FB001112464577B4F8FEC94E00E94A0
:100DF0008A17811129C064EF71E080E090E00E94C1
:100E0000201EC0E080918B04C81768F488E0C89F5A
:100E1000B001112464577B4F4CE08CEB94E00E94AE
:100E20003819CF5FEFCF811103C010925B0408C067
:100E300091E090935B04873018F086E080938B04F8
:100E400080918B04CF910895CF5FC5CFEF92FF9231
:100E50000F931F93CF9361E086E00E94361F62E0FC
:100E600083E00E94361F61E086E00E946F1F26E04B
:100E700040E855E260E070E087E997E00E94B12029
:100E800065E373E087E997E00E94132264E173E071
:100E900087E997E00E94132265E473E087E997E011
:100EA0000E94132262E088E00E94361F62E089E01F
:100EB0000E94361F88E00E94A51F892B29F480918B
:100EC000120181508093120189E00E94A51F892B95
:100ED00019F481E08093DD0464E670E080E090E046
:100EE0000E94201E8091DD04882371F080E090E054
:100EF000A2E0B3E48093650490936604A093670432
:100F0000B09368048EE611C080911501909116018E
:100F1000A0911701B0911801809365049093660425
:100F2000A0936704B093680486EE809359040E94EE
:100F300015068091140181110E94AE020E94D40610
:100F40006CED75E080E090E00E94201E0E944E064D
:100F50000E94A8038DE697EEA3E5B0E48093E20437
:100F60009093E304A093E404B093E5041092DE04AC
:100F70001092DF041092E0041092E1041092F00449
:100F800000E010E09801AC01BD0188EE94E00E9401
:100F9000940D85E090E09093E7048093E60442E0AE
:100FA00050E069E372E081E00E941D1D109283040D
:100FB000109284041092850410928604C6E02DECF1
:100FC0003CEC45EB52E461E070E085E196E00E9484
:100FD0004A12C150A1F72DEC3CEC45EB52E462E023
:100FE00070E089EB95E00E944A122DEC3CEC45EB59
:100FF00052E463E070E08DE595E00E944A1229E238
:101000003CE545E851E464E070E081E095E00E9451
:101010004A1280915C048823F1F12091650430919B
:10102000660440916704509168041AE9E12E19E9B9
:10103000F12E09ED1FE360E070E085E196E00E948B
:101040002E122091650430916604409167045091FE
:10105000680460E070E089EB95E00E942E12209118
:10106000650430916604409167045091680460E023
:1010700070E08DE595E00E942E122091650430917C
:101080006604409167045091680460E070E081E07C
:1010900095E00E942E12CF911F910F91FF90EF903B
:1010A0000895CF92DF92EF92FF9298E0899FB0016E
:1010B000112464577B4F8CEB94E00E94281B6B013A
:1010C0007C0120E030E04AEF52E40E94792487FF5F
:1010D00016C020E030E04CE552ECC701B6010E949A
:1010E000C825181664F420E030E040E251E4C7015E
:1010F000B6010E94CC250E94E524CB0100C0FF90E0
:10110000EF90DF90CF90089583E393E3A3E5B0E4FD
:101110008093E8049093E904A093EA04B093EB046D
:101120001092EC041092ED041092EE041092EF0471
:101130001092F00483E090E09093F2048093F10425
:1011400081E090E09093F4048093F30484E690E0CF
:101150009093F6048093F50488EC90E09093F80463
:101160008093F7041092FD041092FE041092FF0485
:101170001092000565E08FEC94E00E9467176FEC19
:1011800074E08CEB94E00C942D188F929F92AF92A8
:10119000BF92CF92DF92EF92FF920F931F9383E162
:1011A0000E94911E9093F7038093F60364E670E02B
:1011B00080E090E00E94201E8091F6039091F7035A
:1011C00025E0289FB001299F700D1124882777FD05
:1011D0008095982F0E94182520E030E040E85AE3DF
:1011E0000E94CC256B017C016093FC037093FD038E
:1011F0008093FE039093FF03809006019090070177
:10120000A0900801B090090120910A0130910B01D2
:1012100040910C0150910D01C501B4010E941524AB
:101220009B01AC01C501B4010E947D249B01AC016E
:10123000C701B6010E947D246093EE037093EF0313
:101240008093F0039093F1030E94F11DC090E2039C
:10125000D090E303E090E403F090E5039B01AC0140
:101260002C193D094E095F0969017A0130EDC31659
:1012700037E0D306E104F10408F476C06093E2039A
:101280007093E3038093E4039093E50383E10E946A
:10129000911EBC01882777FD8095982F0E94182504
:1012A0006093F2037093F3038093F4039093F50338
:1012B00020E030E040EA50E40E94CC2520E030E01D
:1012C00040E85AE30E94CC256B017C016093E60361
:1012D0007093E7038093E8039093E90380900601FD
:1012E00090900701A0900801B090090120910A0197
:1012F00030910B0140910C0150910D01C501B401D9
:101300000E9415249B01AC01C501B4010E947D24FB
:101310009B01AC01C701B6010E947D246093EA03E2
:101320007093EB038093EC039093ED032091EE0315
:101330003091EF034091F0035091F1030E94152486
:1013400020E030E040E251E40E94CC2520E030E093
:1013500040E05FE30E94CC256093F8037093F903AB
:101360008093FA039093FB030E94F11D6093500455
:101370007093510480935204909353048091DD0440
:10138000882371F080E090E0A2E0B3E480936504EC
:1013900090936604A0936704B09368048EE611C02E
:1013A0008091150190911601A0911701B09118013B
:1013B0008093650490936604A0936704B0936804D7
:1013C00086EE809359042091650430916604409123
:1013D0006704509168041AE9E12E19E9F12E09ED2C
:1013E0001FE360E070E085E196E00E942E122091FC
:1013F000650430916604409167045091680460E090
:1014000070E089EB95E00E942E12209165043091E6
:101410006604409167045091680460E070E08DE5D7
:1014200095E00E942E12209165043091660440914F
:1014300067045091680460E070E081E095E00E94EC
:101440002E1287E997E00E94CE1F892B09F43EC136
:1014500087E997E00E94E71F90ED980F9A30A8F473
:1014600040910004509101049AE0949F9001959F4F
:10147000300D112420533109280F311D87FD3A9575
:1014800030930104209300041FC18C3281F4E09159
:101490000504E63408F014C181E08E0F8093050442
:1014A000F0E0EA5FFB4F80910004808309C1813244
:1014B0000CF404C1482F552747FD5095652F752F13
:1014C000FA01E156F109E631F10508F091C0EC5C52
:1014D000FF4F0C94F3268091000490910104009733
:1014E00071F08093120120911401222309F484C029
:1014F00020E436E040910E016091130142C08091DA
:101500000004843031F0883031F0893031F463E008
:1015100005C061E003C062E001C060E0862F90E09A
:101520009093010480930004892B09F465C06093B3
:10153000130180911401882309F45EC020E436E091
:1015400040910E011CC040910004509101044115CE
:10155000510509F451C0CA01A0E0B0E080930E012A
:1015600090930F01A0931001B09311018091140189
:10157000882309F441C020E436E060911301809192
:1015800012010E94811138C08091000490910104E1
:10159000009791F18130910519F41092DD042CC06F
:1015A000029751F581E08093DD0426C067E573E082
:1015B00087E997E00E94062222E030E047E656E6FF
:1015C00066E070E487E997E00E94FF2360E673E03D
:1015D00087E997E00E9406220FC080930204809161
:1015E000050480930404809100048093030404C0E4
:1015F0008DE990E00E941F0280911401882309F474
:1016000048C060E287E997E00E94082260911201D9
:101610006F71605C87E997E00E94082262E673E0E0
:1016200087E997E00E940622609112016F7170E0D5
:101630004AE050E087E997E00E94C82265E673E03F
:1016400087E997E00E94062268E673E087E997E061
:101650000E94062280911301813039F0823041F0DE
:10166000833049F463E973E008C061EB71E005C0C1
:1016700064E673E002C060E070E04AE050E087E9B1
:1016800097E00E94C8226CE673E087E997E00E9429
:10169000062261E773E087E997E00E9406226091E5
:1016A000DD0470E04AE050E087E997E00E94C8223C
:1016B0006BE773E087E997E00E941322109205041C
:1016C00010920104109200040E9492028091140171
:1016D000882339F00E94DE0281110E9492020E944A
:1016E00069038091500490915104A0915204B091EB
:1016F00053044091550450915604609157047091E1
:101700005804841B950BA60BB70B89389341A10590
:10171000B10508F4FEC10E94840280915C04882314
:1017200059F140ED57E064E170E085E196E00E94F8
:10173000811260911506709116068091170690919E
:1017400018060E94E52470936A046093690420E0FF
:1017500030E048EC52E460912106709122068091BD
:101760002306909124060E94CC250E94E5247093C4
:1017700076046093750424C068EC75E085E196E01A
:101780000E9452156B017C01B09059046B2D70E0E2
:1017900080E090E00E9418259B01AC01C701B601D2
:1017A0000E94CC250E94E52470936A04609369042A
:1017B00054E6B59EC001112490937604809375047D
:1017C00080915C04882359F140ED57E064E170E0BA
:1017D00089EB95E00E9481126091B9057091BA057C
:1017E0008091BB059091BC050E94E52470936C0428
:1017F00060936B0420E030E048EC52E46091C50552
:101800007091C6058091C7059091C8050E94CC25AE
:101810000E94E524709376046093750424C068ECFC
:1018200075E089EB95E00E9452156B017C01B09048
:1018300059046B2D70E080E090E00E9418259B0118
:10184000AC01C701B6010E94CC250E94E52470932B
:101850006C0460936B0424E6B29EC0011124909343
:1018600076048093750480915C04882359F140EDDF
:1018700057E064E170E08DE595E00E94811260918F
:101880005D0570915E0580915F05909160050E94F5
:10189000E52470936E0460936D0420E030E048EC22
:1018A00052E46091690570916A0580916B05909191
:1018B0006C050E94CC250E94E52470937604609309
:1018C000750424C068EC75E08DE595E00E94521522
:1018D0006B017C01B09059046B2D70E080E090E0CA
:1018E0000E9418259B01AC01C701B6010E94CC25BE
:1018F0000E94E52470936E0460936D0434E6B39EF9
:10190000C0011124909376048093750480915C0447
:10191000882359F140ED57E064E170E081E095E003
:101920000E9481126091010570910205809103056A
:10193000909104050E94E5247093700460936F04F5
:1019400020E030E048EC52E460910D0570910E0506
:1019500080910F05909110050E94CC250E94E524EE
:10196000709376046093750424C068EC75E081E0A0
:1019700095E00E9452156B017C01B09059046B2DCB
:1019800070E080E090E00E9418259B01AC01C70147
:10199000B6010E94CC250E94E524709370046093E8
:1019A0006F0444E6B49EC0011124909376048093A2
:1019B00075046091F8037091F9038091FA03909196
:1019C000FB030E94E524709372046093710488EE17
:1019D00094E00E94A10E6093870470938804809322
:1019E000890490938A0420E030E048EC52E40E949D
:1019F000CC250E94E5247093740460937304809155
:101A0000F004882381F167E773E087E997E00E949B
:101A10000622409187045091880460918904709156
:101A20008A0422E030E087E997E00E94FF236DE717
:101A300073E087E997E00E94062220E030E048EC5E
:101A400052E4609187047091880480918904909198
:101A50008A040E94CC250E94E5244AE050E087E9F0
:101A600097E00E94D02280915C04811103C087E03E
:101A70000E94911E80915B0481111FC080915404CB
:101A80008823A9F1F89420915404809183049091C3
:101A90008404A0918504B0918604820F911DA11D3C
:101AA000B11D8093830490938404A0938504B09324
:101AB00086041092540478941AC082E390E00E9445
:101AC000210F8CEB94E00E94971AF12C80918B04EB
:101AD000F816A0F68F2D0E945108EF2DF0E0EE0FC2
:101AE000FF1FE958FB4F91838083F394EFCF0E944F
:101AF0007F058091500490915104A0915204B091BF
:101B000053048093550490935604A0935704B093C4
:101B100058041F910F91FF90EF90DF90CF90BF90EE
:101B2000AF909F908F900895AF92BF92CF92DF9227
:101B3000EF92FF920F931F93CF93DF9300D000D0CB
:101B4000CDB7DEB75C016801790181E049835A8332
:101B50006B837C830E948E1E49815A816B817C81BC
:101B6000F5014083518362837383C482D582E68208
:101B7000F78283E090E09287818784E690E0968701
:101B8000858788EC90E0908B878781E090E0948750
:101B90008387158A168A178A108E0F900F900F90E0
:101BA0000F90DF91CF911F910F91FF90EF90DF90F9
:101BB000CF90BF90AF900895CF92DF92EF92FF92B7
:101BC0000F931F93CF93DF93EC010E94F11D698B5C
:101BD0007A8B8B8B9C8BC12CD12C760100E010E092
:101BE0008F85988908171907ECF483E10E94911EEC
:101BF000BC01882777FD8095982F0E9418259B01AE
:101C0000AC01C701B6010E9415246B017C010F5F76
:101C10001F4F6B857C85882777FD8095982F0E94C4
:101C2000201EDECF0E94F11D09891A892B893C896B
:101C3000601B710B820B930B698B7A8B8B8B9C8B4C
:101C40008885882381F065E873E087E997E00E9442
:101C5000062249895A896B897C892AE030E087E924
:101C600097E00E9402236F857889882777FD809509
:101C7000982F0E9418259B01AC01C701B6010E9454
:101C80007D246B017C018885882371F068E973E00D
:101C900087E997E00E94062222E030E0B701A60122
:101CA00087E997E00E940124288139814A815B817C
:101CB000C701B6010E94CC2520E030EC4FE754E488
:101CC0000E947D246B017C018885882371F06EE978
:101CD00073E087E997E00E94062222E030E0B70136
:101CE000A60187E997E00E94012421E73DEB4CE043
:101CF00053E4C701B6010E94CC2526EF38EE46EB2F
:101D000053E40E9414246B017C018885882371F0C0
:101D100064EA73E087E997E00E94062222E030E05F
:101D2000B701A60187E997E00E940124C701B60127
:101D3000DF91CF911F910F91FF90EF90DF90CF90A7
:101D40000895CF92DF92EF92FF920F931F93CF935C
:101D5000DF93EC0100E010E0C12CD12C7601698505
:101D60007A8506171707B4F4CE010E94DC0D9B019B
:101D7000AC01C701B6010E9415246B017C016D8581
:101D80007E85882777FD8095982F0E94201E0F5F03
:101D90001F4FE5CF882777FD8095982F0E94182543
:101DA0009B01AC01C701B6010E947D242C813D81BD
:101DB0004E815F810E9415246D8B7E8B8F8B988F57
:101DC000DF91CF911F910F91FF90EF90DF90CF9017
:101DD000089583FF02C098E2892787FD06C08064CA
:101DE000909160009093710602C08091710694B743
:101DF000977F94BFF89490916000986190936000F1
:101E00008093600078940895EAE7F0E09081808103
:101E10008F77808383B7817F846083BFF89483B793
:101E2000816083BF85B7806685BF85B78F79806401
:101E300085BF7894889583B78E7F83BF90937A000F
:101E40000895DF92EF92FF920F931F93CF93DF934A
:101E50008C01EC0128E0E22EF12CC031D10538F1E3
:101E60009E01D12C2032310538F0D39489E0D81668
:101E700019F036952795F6CF109272068D2D0E9497
:101E8000E90E0E94040F8FEF0E94E90EC70102C005
:101E9000880F991FDA94E2F7C81BD90B20917206BC
:101EA000222319F0C81BD90BD8CF80E001C081E0F4
:101EB00040918F0750919007609191077091920720
:101EC0000C1B1D0B400F511F611D711D40938F078F
:101ED000509390076093910770939207DF91CF9191
:101EE0001F910F91FF90EF90DF90089580917206FF
:101EF0008F5F8093720608958627682F6295682702
:101F0000062E669566956025062E66956025677097
:101F1000082E892F669507946795902D862706943D
:101F20006795902586270895E8982A988EBD0DB468
:101F300007FEFDCF8EB56EBD0DB407FEFDCF8EB58D
:101F40002A9AE89A089560E00C94940F88E20E941F
:101F5000A30F807521F080E00E94A30FF7CF0895B2
:101F6000CF93C82F81E00E94A30F682F637E6C2B54
:101F700081E8CF910C94940F22E0660F771F881FA1
:101F8000991F2A95D1F729E03DE340E050E00E94F7
:101F9000B22666E0220F331F441F551F6A95D1F702
:101FA00020937C0630937D0640937E0650937F06F7
:101FB000089580917506853021F4809176068823F6
:101FC00011F080E0089584E0809375060E94B00FC0
:101FD00081E008959091750681E094300CF080E0E6
:101FE0000895CF93DF932A9A229A2A9A84B18C6219
:101FF00084B980E58CBD8DB581608DBD6AEA8FEABC
:102000000E94940F8FE20E94A30F8A3AB9F765E508
:102010008FEA0E94940F8FE20E94A30F8535B9F7D3
:10202000C7E6D2E0FE018491882339F031966491AD
:1020300080680E94940F2296F5CF60917B0680EB1A
:102040000E94940F80917C0690917D06A0917E065F
:10205000B0917F06BD018827992787E80E94940FD9
:1020600080917C0690917D06A0917E06B0917F06BE
:10207000692F7A2F8B2F992788E80E94940F6091FF
:102080007C0689E80E94940F84E080937506DF91B6
:10209000CF910895CF93DF93EC0180917506843042
:1020A00019F0853021F14DC010928306109276060A
:1020B00060917B068FEF9FEF0E947C0F90937906D3
:1020C00080937806D0937406C093730685E080935E
:1020D00075060E94A60F60E885EA0E94940F80E1D1
:1020E0000E94B00F62E08EE90E94940F2AC0809196
:1020F00083062091760690E0049630E082179307DD
:1021000024F0809176068834E0F084E080937506B0
:102110000E94B00F809183068334B0F480917806DA
:1021200090917906892B81F48091820686FF0FC0F9
:1021300090917A069F3159F0809182068F718917AC
:1021400031F08FEF9FEF05C081E090E002C080E0AA
:1021500090E0DF91CF910895CF9340938306FB01E8
:1021600020E030E050E02417350744F4D901AC57A3
:10217000B94F91919C932F5F3F4FF5CF86FD04C0DF
:10218000807E90917A06890F8093820660917B060B
:102190008FEF9FEF0E947C0F9093790680937806D3
:1021A000909183068EEF891B809375060E94A60F7F
:1021B0008CE00E94B00F60E085EA0E94940F80914D
:1021C00075068330DCF588E20E94A30F87FDF7CF08
:1021D0008091750687FF1BC09091830680917506DC
:1021E000E0917306F0917406E90FF11DE80FF11DFF
:1021F00087FDFA95C3816C2F8091780690917906BE
:102200000E947C0F90937906809378060DC0809190
:102210007506882329F0813031F4C091790604C015
:10222000C091780601C0CAEA6C2F80E80E94940F22
:10223000809175068F5F80937506C1CFCF91089509
:1022400080917506853009F04DC060E485EA0E94F2
:10225000940F84E20E94A30F80937706789488E21B
:102260000E94A30F8075D9F38091760681110FC06B
:10227000E0917306F09174068091760691E0980FD4
:102280009093760690917B06E80FF11D908380E095
:102290000E94A30FE0917306F09174069091760668
:1022A00021E0290F20937606E90FF11D8083682F26
:1022B00080917806909179060E947C0F9093790620
:1022C00080937806809183062091760690E00496AC
:1022D00030E082179307A4F080917606883408F4E2
:1022E000BECF089588E20E94A30F83FF09C084E057
:1022F000809375060E94B00F60E885EA0C94940FF5
:102300000895CF92DF92EF92FF921F93CF93DF93C6
:10231000C82F162FD42FF901AFEFA60FA33028F442
:10232000B0E0A655BC4FAC9101C0A0E0B0E020E801
:1023300036E948E950E00E9417276B017C01212F04
:1023400030E0A4ECB9E00E940127DF019B01AC0161
:102350000E941727C60ED71EE81EF91EC701B60138
:102360000E94BC0FD0937B068C2F8F7180937A06CE
:1023700064E170E080E090E00E94201E80917A0687
:10238000882341F043E050E060E271E180E00E9488
:102390001D1D03C080E00E943D1D0E94F10FC093EF
:1023A00080068C2FDF91CF911F91FF90EF90DF90EF
:1023B000CF90089581E896E00E944A109093CA0653
:1023C0008093C9062091C9063091CA0681E02F3F4B
:1023D0003F4F09F480E008950C94D90F0C94AC1091
:1023E000EF92FF921F93CF93DF931F92CDB7DEB78B
:1023F000182F7B0149830E94D90F4981811105C0A3
:1024000049830E94DA114981F5CFB701812F0F90DE
:10241000DF91CF911F91FF90EF900C94AC10CF9370
:10242000C82F0E94EA0F8823B9F0CC23D1F383B7D9
:10243000817FC33021F0C23021F49CE003C094E0DE
:1024400001C090E0892B83BF83B7816083BF8895EB
:1024500083B78E7F83BFE5CFCF910895EF92FF9230
:102460000F931F93FC01758B648B208F318F428FEC
:10247000538FE0A2F1A202A313A340E050E060E07A
:1024800074E444AB55AB66AB77AB1F910F91FF90F3
:10249000EF900895FC01778B668B248F358F468FE4
:1024A000578F40E050E060E074E440AF51AF62AF5E
:1024B00073AF08958EE480937C0062E070E080E06A
:1024C00090E00E94201E80917A00806480937A00C0
:1024D00080917A0086FDFCCF809178002091790070
:1024E00030E0322F2227442737FD4095542F282BE8
:1024F00060E070E381E190E00E94D426CA01B90156
:1025000008952F923F924F925F926F927F928F9297
:102510009F92AF92BF92CF92DF92EF92FF920F9372
:102520001F93CF93DF93CDB7DEB7A8970FB6F8947C
:10253000DEBF0FBECDBF98A78FA37E8F6D8F8A01A0
:102540000E945A126D8B7E8B8F8B988F0E94F11D8B
:102550004B015C016FA078A428E5620E711CC801D4
:10256000A0E0B0E0898B9A8BAB8BBC8BAFA1B8A5F8
:1025700054968C910E94911EF30191838083BC013B
:10258000882777FD8095982F0E9418256B017C0184
:102590002DEC3CEC4CE054E40E94792487FF0BC006
:1025A00011E026E636E646EE53E4C701B6010E9486
:1025B000C82518160CF010E00E94F11D6819790961
:1025C0008A099B0929893A894B895C89261737072B
:1025D0004807590708F040C00E94F11D698F7A8FA3
:1025E0008B8F9C8F00E010E01A8219824FA158A5B2
:1025F000405C5F4F58A34F8F8FA198A58C5B9F4F76
:102600009C878B87AFA1B8A5A85BBF4FBAA3A9A32E
:10261000EFA1F8A5E45BFF4FFE87ED872FA138A55A
:10262000205B3F4F3CA32BA34FA158A54C5A5F4FB3
:10263000588B4F878FA198A5865A9F4F9E838D8375
:102640002FA038A49BE5290E311CAFA1B8A5A85A2C
:10265000BF4FBEA3ADA344C1112309F487CFBCCFA4
:102660000E94F11D298D3A8D4B8D5C8D621B730B81
:10267000840B950B29893A894B895C89621773070A
:102680008407950708F034C10F5F1F4FEFA1F8A52D
:1026900084A595A5A6A5B7A580A791A7A2A7B3A72E
:1026A00084890E94911EAFA1B8A595969C938E93A4
:1026B000949756968C910E94911E3C01EFA1F8A52B
:1026C00097A386A324A135A13A872987B901882732
:1026D00077FD8095982F0E9418256B017C01AFA192
:1026E000B8A5D4968D909D90AD90BC90D797A5013C
:1026F00094010E94142420E030E040E85AE30E9454
:10270000CC259B01AC01C501B4010E9415249B019D
:10271000AC01EFA1F8A564AB75AB86AB97ABC70175
:10272000B6010E9414244B015C01AFA1B8A59C9690
:102730006D937D938D939C939F97B301882777FD2D
:102740008095982F0E9418256B017C01EFA1F8A5B8
:1027500040AC51AC62AC73ACA30192010E94142452
:1027600020E030E040E85AE30E94CC259B01AC0118
:10277000C301B2010E9415249B01AC01AFA1B8A511
:10278000D8966D937D938D939C93DB97C701B6018B
:102790000E9414246B017C01EFA1F8A560AB71AB22
:1027A00082AB93ABA5019401C501B4010E94CC2575
:1027B0009B01AC01AF8DB8A16D937D938D939C93DC
:1027C0001397EB85FC8560817181828193810E94E2
:1027D0001524AB85BC856D937D938D939C93139746
:1027E000A7019601C701B6010E94CC259B01AC014F
:1027F000E9A1FAA16083718382839383AD85BE854D
:102800006D917D918D919C910E941524ED85FE85A1
:102810006083718382839383AFA1B8A598964D900E
:102820005D906D907C909B97A3019201C501B401CE
:102830000E941424EFA1F8A520A131A142A153A127
:102840000E94CC259B01AC01C301B2010E9415245A
:10285000AFA1B8A5DC966D937D938D939C93DF9784
:10286000A70196010E94CC259B01AC01EBA1FCA124
:102870006083718382839383AF85B8896D917D91E5
:102880008D919C910E941524EF85F8896083718356
:1028900082839383D1018C91ED81FE818083ADA1F0
:1028A000BEA18D919C91E985FA858E179F070CF04A
:1028B000F6C021E0F10120830130110529F4F10176
:1028C0008081AD81BE818C93ED81FE819081D101AB
:1028D0008C91981729F0E981FA813196FA83E9837E
:1028E00029813A814D8D5E8D2417350708F4B8CEC5
:1028F000AD89BE89BD01882777FD8095982F0E94FC
:10290000182520E030E04AE754E40E947D2420E0CE
:1029100030E040E85AE30E94CC252B013C01EFA1B6
:10292000F8A5208D318D428D538D0E94CC254B0111
:102930005C01B80180E090E00E9416256B017C01EB
:102940002FA038A4F4E42F0E311C9B01AC01D1015F
:102950006D917D918D919C910E947D240E943326E2
:102960009B01AC01C501B4010E94CC2569837A8327
:102970008B839C83EFA1F8A56487758786879787EB
:10298000248D358D468D578DC301B2010E94CC2513
:102990002B013C010FA118A5045B1F4FA701960155
:1029A000D8016D917D918D919C910E947D240E9412
:1029B00033269B01AC01C301B2010E94CC256D837B
:1029C0007E838F839887EFA1F8A5608B718B828BB4
:1029D000938BA3019201C501B4010E94CC25AFA045
:1029E000B8A4F4E5AF0EB11CD5012D913D914D91E8
:1029F0005C910E94CC25A70196010E947D246B0169
:102A00007C01EFA1F8A560837183828393832D817C
:102A10003E814F81588569817A818B819C810E949A
:102A2000CC259B01AC01AFA1B8A514966D937D9305
:102A30008D939C931797C701B6010E947D24EFA147
:102A4000F8A56087718782879387D1011D921D92B7
:102A50001D921C921397F801108211821282138228
:102A6000D5011D921D921D921C921397A8960FB628
:102A7000F894DEBF0FBECDBFDF91CF911F910F91B4
:102A8000FF90EF90DF90CF90BF90AF909F908F908E
:102A90007F906F905F904F903F902F900895D1015D
:102AA0001C920ACF2F923F924F925F926F927F9229
:102AB0008F929F92AF92BF92CF92DF92EF92FF924E
:102AC0000F931F93CF93DF9300D000D000D0CDB7EA
:102AD000DEB79E838D837A8369830E945A122B010D
:102AE0003C0100E010E08D819E81845B9F4F1C01C2
:102AF000ED81FE81E85BFF4FFC83EB8389819A8146
:102B00000817190709F455C0ED81FE8186890E94D6
:102B1000911EED81FE8197A386A3BC01882777FDD6
:102B20008095982F0E9418256B017C01ED81FE8114
:102B300080AC91ACA2ACB3ACA50194010E9414246A
:102B400020E030E040E85AE30E94CC259B01AC0134
:102B5000C501B4010E9415249B01AC01ED81FE81E9
:102B600060AF71AF82AF93AFC701B6010E9414246A
:102B7000ED81FE8160AB71AB82AB93AB9B01AC018D
:102B80000E94CC259B01AC01EB81FC8160837183A9
:102B900082839383F10160817181828193810E949C
:102BA0001524F10160837183828393830F5F1F4F2C
:102BB000A5CFB80180E090E00E9416259B01AC01F2
:102BC000F10160817181828193810E947D240E9444
:102BD00033266B017C01B201882777FD8095982F01
:102BE0000E94182520E030E04AE754E40E947D244A
:102BF00020E030E040E85AE30E94CC25ED81FE81E0
:102C0000248D358D468D578D0E94CC25A7019601C8
:102C10000E94CC25ED81FE81608B718B828B938B22
:102C2000F101108211821282138226960FB6F89457
:102C3000DEBF0FBECDBFDF91CF911F910F91FF90EF
:102C4000EF90DF90CF90BF90AF909F908F907F904C
:102C50006F905F904F903F902F900895FF920F9349
:102C60001F93CF93DF93FC010081C181D281F8943F
:102C70008981F02EF0948F21898378941DE711507B
:102C800029F182E090E00E94481E88818023B9F3F8
:102C9000F8948A818F218A838981802B8983789413
:102CA00080EE91E00E94481EF89489818F218983EB
:102CB00086E490E00E94481E8881802311E009F09C
:102CC00010E078948AE991E00E94481E812FDF91FC
:102CD000CF911F910F91FF9008951F93CF93DF9392
:102CE000FC011081C181D281912F909560FF12C0AB
:102CF000F8948A8189238A838981812B89838AE058
:102D000090E00E94481E8A81812B8A83789487E311
:102D100090E011C0F8948A8189238A838981812B6C
:102D2000898381E490E00E94481E8A81812B8A83F6
:102D3000789485E090E0DF91CF911F910C94481E2C
:102D40000F931F93CF93DF93FC011081C181D28138
:102D5000F8948981812B89838A81012F00958023B2
:102D60008A8383E090E00E94481E898180238983C2
:102D70008AE090E00E94481EC881789485E390E044
:102D80000E94481E1C2381E009F480E0DF91CF916E
:102D90001F910F910895CF92DF92EF92FF920F93C0
:102DA0001F93CF93DF931F92CDB7DEB76C01E62E52
:102DB00008E010E0FF24F39461E09F2D9E2109F4C8
:102DC00060E0C60149830E946D16FF0C0150110995
:102DD00049810115110581F7411115C0F894D601FB
:102DE0001196ED91FC91129791818C918095892398
:102DF00081831196ED91FC91129792818C9180952F
:102E00008923828378940F90DF91CF911F910F9146
:102E1000FF90EF90DF90CF900895EF92FF920F9385
:102E20001F93CF93DF938C01C8E0D0E0F12CEE2408
:102E3000E394C8010E94A0168111FE28EE0C219790
:102E4000C1F78F2DDF91CF911F910F91FF90EF90E0
:102E50000895CF92DF92FF920F931F93CF93DF934A
:102E60001F92CDB7DEB78C01F62E40E065E5798381
:102E70000E94CB16CF2C7981D72E88E0F82EF60150
:102E800061916F0140E0C8010E94CB16FA94B9F736
:102E90000F90DF91CF911F910F91FF90DF90CF9016
:102EA000089540E06CEC0C94CB16FC01138615865B
:102EB000148627E030E0DF01A20FB31F13961C92A7
:102EC0002115310519F021503109F5CF08951F93CF
:102ED000CF93DF93EC01162F60E0812F0E94361F05
:102EE000612F70E0FB01E256FC4FE491E883FB01A7
:102EF000EE54FC4FE491F0E0EE0FFF1FEA53FC4F5D
:102F0000859194919A838983CE01DF91CF911F910E
:102F10000C945517AF92BF92CF92DF92EF92FF922F
:102F20000F931F93CF93DF931F92CDB7DEB75C0152
:102F3000D62EE72EFC01858581115DC0C5010E945A
:102F40002E16811105C0F5011386158614866CC0F6
:102F500040E060EFC5010E94CB1601E0F12CC12CCE
:102F600011E0C5010E94A016682FC50169830E9467
:102F7000A0166981613019F48130B9F433C02F2D66
:102F800030E068131BC0F5018385181730F4E20F99
:102F9000F31F8381802349F402C0181731F060E0E9
:102FA000193058F4F501148708C0F501EF0DF11D33
:102FB0008381802B838361E009C0C12EF501E20F7C
:102FC000F31F8381902F909589238383C5010E94ED
:102FD0006D161F5F000F11F4F39401E0F7E0FF1589
:102FE00008F0BFCF113438F0F501C386C11009C015
:102FF00081E0858706C0F50113861586148680E07A
:1030000013C0F50183818823B1F3ED2DFE2D80E0FF
:1030100090E0D501A80FB91F13962C91219301962A
:1030200088309105B1F781E00F90DF91CF911F912A
:103030000F91FF90EF90DF90CF90BF90AF900895E9
:10304000DC0180E0615038F0ED91E827F0E0E657D0
:10305000FD4F8491F7CF08950895FC018CE298E12B
:10306000928B818B768365831482108289E08183C1
:1030700081E0828383830895FC0184810895CF9346
:10308000DF93EB0167E0CE010E94201891E02F81D1
:10309000821390E0892FDF91CF910895CF92DF9234
:1030A000EF92FF920F931F93CF93DF9300D0CDB792
:1030B000DEB76C01F42EE52EFC01858196816983D3
:1030C0007A830E942E1669817A81882311F1F60194
:1030D000858196810E94291740E06EEBF60185817B
:1030E00096810E94CB160F2D1E2D89E0F82EF60139
:1030F000858196810E940D17F80181938F01FA94C2
:10310000B1F7F601858196810E942E1691E08130FB
:1031100009F090E0892F0F900F90DF91CF911F91D0
:103120000F91FF90EF90DF90CF900895CF93DF93B2
:10313000EA010E944E18882351F068E0CE010E94F7
:10314000201891E02885821390E0892F01C080E04B
:10315000DF91CF910895EF92FF920F931F93CF933A
:10316000DF93EC018B017A018D819E810E942E16E6
:10317000B8018D819E810E94291740E06EE48D8107
:103180009E810E94CB1640E0F70162818D819E8175
:103190000E94CB1640E0F70163818D819E810E94E1
:1031A000CB16F8018081803139F040E0F70164816D
:1031B0008D819E810E94CB168D819E810E942E164C
:1031C000B8018D819E810E942917488168E48D8114
:1031D0009E810E94CB1664E170E080E090E00E9446
:1031E000201E8881882331F06AE070E080E090E062
:1031F0000E94201E8D819E81DF91CF911F910F91A2
:10320000FF90EF900C942E16EF92FF921F93CF93A6
:10321000DF9300D0CDB7DEB77C01FC0185819681BC
:1032200069837A830E942E1669817A81F7018581EC
:1032300096810E94291740E064EBF7018581968111
:103240000E94CB16F701858196810E94A016182F47
:10325000F701858196810E942E1681E0111180E090
:103260000F900F90DF91CF911F91FF90EF900895F5
:10327000EF92FF920F931F93CF93DF93CDB7DEB7FB
:103280002A970FB6F894DEBF0FBECDBF7C018B012D
:10329000242FAE014F5F5F4F2A870E9496182A8520
:1032A0008823D1F0F80180818031C1F02B3041F0CA
:1032B0002C3021F02A3031F48FE305C08FE703C0B2
:1032C0008FE501C08FE18D83AE014F5F5F4FB80185
:1032D000C7010E94AB1802C080E001C081E02A96BD
:1032E0000FB6F894DEBF0FBECDBFDF91CF911F9117
:1032F0000F91FF90EF900895CF93DF93CDB7DEB796
:1033000029970FB6F894DEBF0FBECDBFFB01208119
:103310002031D1F0AE014F5F5F4F0E949618882395
:1033200079F08D818F3351F020F48F3149F489E0A9
:103330000CC08F3539F08F3739F002C08AE005C0F4
:1033400080E003C08BE001C08CE029960FB6F894B2
:10335000DEBF0FBECDBFDF91CF910895EF92FF92F8
:103360000F931F93CF93DF93CDB7DEB761970FB65F
:10337000F894DEBF0FBECDBF8C01FC018581968124
:103380000E945517F8011482FF24F394BE01665F72
:103390007F4FF801858196810E948A178823C9F1A1
:1033A000BE01665F7F4FC8010E943F18882371F3FA
:1033B000F8018081811108C0BE01665F7F4FC8019E
:1033C0000E940419811122C0AE014F5F5F4FBE0100
:1033D000665F7F4FC8010E944E18F801E180BE0170
:1033E000665F7F4FC8010E947C198E1518F4F801A2
:1033F000818106C0BE01665F7F4FC8010E947C19B3
:10340000F801818384818F5F8483C0CFF801F082CB
:10341000DBCF61960FB6F894DEBF0FBECDBFDF9154
:10342000CF911F910F91FF90EF900895FC0162835F
:103430000895CF93DF93CDB7DEB729970FB6F894F1
:10344000DEBF0FBECDBFAE014F5F5F4F0E944E1873
:1034500081E09981911101C080E029960FB6F8941E
:10346000DEBF0FBECDBFDF91CF9108958F929F92A7
:10347000AF92BF92CF92DF92EF92FF920F931F9382
:10348000CF93DF93EC018A016950633048F4E62F53
:10349000F0E0EE0FFF1FE355FC4F8080918004C0E9
:1034A0009EEE892E92E0992E0115110501F18B8176
:1034B0008823E9F0888181111AC00E94F11D6B01F7
:1034C0007C01AA2497FCA094BA2CB801CE010E94DA
:1034D000191A81111FC00E94F11D681979098A0902
:1034E0009B096C157D058E059F05A0F4EECFB401F8
:1034F000882777FD8095982FDF91CF911F910F91AD
:10350000FF90EF90DF90CF90BF90AF909F908F9003
:103510000C94201EDF91CF911F910F91FF90EF909F
:10352000DF90CF90BF90AF909F908F900895CF93F2
:10353000DF93EC018D819E810E942E168D819E81EC
:103540000E945117488164E48D819E810E94CB16B0
:103550008A81882341F040E050E06981CE01DF910B
:10356000CF910C94361ADF91CF910895FA01208102
:1035700048E0249F90011124818190E0982F8827B2
:10358000990F990F990F282B392BDB018C918031E2
:10359000C1F4678170E08681AB01481B5109CA0103
:1035A0009695982F8827979587950E949E2660511B
:1035B0007109207F53E0220F331F5A95E1F7260F40
:1035C000371FC9010895EF92FF920F931F93CF9376
:1035D000DF93CDB7DEB729970FB6F894DEBF0FBEE5
:1035E000CDBF8C017B01AE014F5F5F4F0E949618EB
:1035F000882341F0AE014F5F5F4FB701C8010E94C1
:10360000B61A02C080E894EE29960FB6F894DEBF91
:103610000FBECDBFDF91CF911F910F91FF90EF9023
:103620000895813824EE920774F0BC01882777FD55
:103630008095982F0E94182520E030E040E05CE360
:103640000E94CC25089560E070E08EEF92EC089522
:103650000E94E31A0C94111B8091FA0690E02091CD
:10366000FB06821B910908952091FB068091FA06C2
:10367000281750F4E22FF0E0E450F94F808190E0F9
:103680002F5F2093FB0608958FEF9FEF0895E09141
:10369000FB068091FA06E81730F4F0E0E450F94FA9
:1036A000808190E008958FEF9FEF08950895CF9265
:1036B000DF92EF92FF920F931F93CF93DF937C01E2
:1036C000CB018A012091D706222389F0EB016B01FF
:1036D000C40ED51ECC15DD0569F06991D701ED91B9
:1036E000FC910190F081E02DC7010995F3CF642F83
:1036F0000E94C71BC801DF91CF911F910F91FF90CE
:10370000EF90DF90CF900895CF93DF931F92CDB7C6
:10371000DEB769832091D7062223D1F02091D80605
:10372000203240F021E030E0FC013383228380E04E
:1037300090E015C08091D906E82FF0E0E652F94FED
:10374000998190838F5F8093D9068093D80605C0B6
:1037500061E0CE0101960E94C71B81E090E00F90CE
:10376000DF91CF910895FC011382128248EE53E05D
:1037700060E070E0448355836683778387EB93E052
:103780009183808308958BEC96E00C94B31B613297
:1037900098F420918907243089F460933E07FC0156
:1037A00080E497E0DC012A2F281B261718F42191CA
:1037B0002D93F9CF80E0089581E0089582E0089587
:1037C00085ED8093BC008091BC0084FDFCCF1092FD
:1037D0008907089585EC8093BC00109289070895AD
:1037E0001F920F920FB60F9211242F933F934F9376
:1037F0005F936F937F938F939F93AF93BF93EF9359
:10380000FF938091B900887F803609F49CC068F5E9
:10381000883209F45BC090F4803109F454C038F464
:10382000882309F4F5C0883009F44DC0F5C088310B
:1038300009F44CC0803209F45DC0EEC0803409F454
:1038400068C048F4803309F455C0883309F0E4C0F7
:1038500080931C07A8C0803509F44FC0883509F44F
:103860005DC0883409F0D8C0D5C0883909F4C6C015
:10387000A8F4883709F467C038F4883609F463C0BF
:10388000803709F460C0C8C0883809F4B7C08039EF
:1038900009F45FC0803809F0BFC05BC0803B09F409
:1038A00085C038F4803A09F466C0883A09F47EC0CD
:1038B000B3C0803C09F4A6C0883C09F4A3C0883B8F
:1038C00009F489C0A9C08091880710C09091610750
:1038D00080916007981770F5E091610781E08E0F85
:1038E00080936107F0E0EE59F84F80818093BB0030
:1038F00085EC85C080931C078DC0E091610781E055
:103900008E0F809361078091BB00F0E0EE59F84F75
:10391000808390916107809160076DC0E09161079D
:1039200081E08E0F809361078091BB00F0E0EE593B
:10393000F84F80838091870781116CC081E080936C
:10394000860784EA60C083E08093890710921D0790
:10395000CFCF80911D07803208F050C0E0911D0745
:1039600081E08E0F80931D078091BB00F0E0E25E46
:10397000F84F8083BDCF80911D07803230F4E091F5
:103980001D07F0E0E25EF84F10820E94E01B60919C
:103990001D0770E0E0918207F09183078EE197E0C8
:1039A000099510921D070E94EA1B36C084E080939F
:1039B000890710923F0710923E07E0918407F0912B
:1039C0008507099580913E07811105C081E08093AC
:1039D0003E0710924007E0913F0781E08E0F8093F1
:1039E0003F07F0E0E05CF84F80818093BB0090914E
:1039F0003F0780913E07981708F47ACF85E88093B7
:103A0000BC000AC085EC8093BC001092890704C0FA
:103A100010921C070E94E01BFF91EF91BF91AF91A4
:103A20009F918F917F916F915F914F913F912F91D6
:103A30000F900FBE0F901F9018958230E8F4E82F7A
:103A4000F0E0EE0FFF1FE657F84F7183608381307F
:103A500041F0809169008C7F842B80936900E89A03
:103A6000089580916900440F551F440F551F837FAF
:103A7000842B80936900E99A0895823068F481303C
:103A800011F0E89801C0E998E82FF0E0EE0FFF1F71
:103A9000E657F84F1182108208951F920F920FB6C9
:103AA0000F9211242F933F934F935F936F937F93C4
:103AB0008F939F93AF93BF93EF93FF9380918A0768
:103AC00090918B07892B29F0E0918A07F0918B0761
:103AD0000995FF91EF91BF91AF919F918F917F9148
:103AE0006F915F914F913F912F910F900FBE0F906B
:103AF0001F9018951F920F920FB60F9211242F93BB
:103B00003F934F935F936F937F938F939F93AF9365
:103B1000BF93EF93FF9380918C0790918D07892B32
:103B200029F0E0918C07F0918D070995FF91EF91B5
:103B3000BF91AF919F918F917F916F915F914F91C5
:103B40003F912F910F900FBE0F901F9018951F92CD
:103B50000F920FB60F9211242F933F938F939F9341
:103B6000AF93BF9380918F0790919007A091910799
:103B7000B091920730918E0723E0230F2D3720F468
:103B80000196A11DB11D05C026E8230F0296A11DB7
:103B9000B11D20938E0780938F0790939007A09379
:103BA0009107B09392078091930790919407A09109
:103BB0009507B09196070196A11DB11D80939307BB
:103BC00090939407A0939507B0939607BF91AF91F8
:103BD0009F918F913F912F910F900FBE0F901F904B
:103BE00018952FB7F89460918F0770919007809186
:103BF0009107909192072FBF08953FB7F894809155
:103C0000930790919407A0919507B091960726B5D8
:103C1000A89B05C02F3F19F00196A11DB11D3FBF04
:103C20006627782F892F9A2F620F711D811D911D94
:103C300042E0660F771F881F991F4A95D1F70895B4
:103C4000CF92DF92EF92FF92CF93DF936B017C01D3
:103C50000E94FD1DEB01C114D104E104F10489F0BF
:103C60000E9413240E94FD1D6C1B7D0B683E734057
:103C700090F381E0C81AD108E108F108C851DC4F7F
:103C8000EACFDF91CF91FF90EF90DF90CF90089532
:103C90008230910538F0880F991F880F991F05977A
:103CA0000197F1F70895789484B5826084BD84B556
:103CB000816084BD85B5826085BD85B5816085BD27
:103CC000EEE6F0E0808181608083E1E8F0E0108240
:103CD000808182608083808181608083E0E8F0E081
:103CE000808181608083E1EBF0E08081846080836B
:103CF000E0EBF0E0808181608083EAE7F0E08081A2
:103D00008460808380818260808380818160808301
:103D10008081806880831092C1000895809319018A
:103D200008958E3008F08E5087702091190190E42C
:103D3000299F90011124822B80937C0080917A002E
:103D4000806480937A0080917A0086FDFCCF809118
:103D500078002091790090E0922B08951F93CF93E3
:103D6000DF93182FEB0161E00E94361F209711F4BA
:103D700060E004C0CF3FD10539F461E0812FDF91CD
:103D8000CF911F910C946F1FE12FF0E0E657FC4F8D
:103D9000E491E330F9F048F4E130B9F0E230A1F514
:103DA00084B5806284BDC8BD34C0E730E9F0E83036
:103DB00019F1E43049F580918000806280938000A1
:103DC000D0938B00C0938A0024C084B5806884BDE2
:103DD000C7BD1FC080918000806880938000D09311
:103DE0008900C093880015C08091B00080688093DE
:103DF000B000C093B3000DC08091B000806280938A
:103E0000B000C093B40005C0C038D1050CF0B5CFE8
:103E1000AFCFDF91CF911F910895833081F028F4C7
:103E2000813099F08230A1F008958730A9F0883070
:103E3000B9F08430D1F4809180008F7D03C08091EF
:103E400080008F7780938000089584B58F7702C0BB
:103E500084B58F7D84BD08958091B0008F7703C0B5
:103E60008091B0008F7D8093B0000895CF93DF9351
:103E700090E0FC01E256FC4F2491FC01EE54FC4F13
:103E80008491882349F190E0880F991FFC01E65244
:103E9000FC4FA591B49180539C4FFC01C591D491E6
:103EA0009FB7611108C0F8948C91209582238C9360
:103EB000888182230AC0623051F4F8948C91322FA9
:103EC000309583238C938881822B888304C0F89457
:103ED0008C91822B8C939FBFDF91CF9108950F938C
:103EE0001F93CF93DF931F92CDB7DEB7282F30E01B
:103EF000F901E657FC4F8491F901E256FC4F149109
:103F0000F901EE54FC4F04910023C9F0882321F0FD
:103F100069830E940D1F6981E02FF0E0EE0FFF1F03
:103F2000E053FC4FA591B4919FB7F8948C91611127
:103F300003C01095812301C0812B8C939FBF0F90EC
:103F4000DF91CF911F910F910895CF93DF93282F89
:103F500030E0F901E657FC4F8491F901E256FC4F3D
:103F6000D491F901EE54FC4FC491CC2391F081110E
:103F70000E940D1FEC2FF0E0EE0FFF1FEA53FC4FE5
:103F8000A591B4912C912D2381E090E021F480E063
:103F900002C080E090E0DF91CF910895FC01818D17
:103FA000228D90E0805C9F4F821B91098F7399272F
:103FB0000895FC01918D828D981731F0828DE80F64
:103FC000F11D858D90E008958FEF9FEF0895FC011E
:103FD000918D828D981761F0828DDF01A80FB11D40
:103FE0005D968C91928D9F5F9F73928F90E0089564
:103FF0008FEF9FEF08958BE691E2892B49F080E0E7
:1040000090E0892B29F00E946B2181110C94000013
:104010000895FC01848DDF01A80FB11DA35ABF4F85
:104020002C91848D90E001968F739927848FA689B7
:10403000B7892C93A089B1898C9180648C93938DDE
:10404000848D981306C00288F389E02D80818F7DCE
:1040500080830895CF93DF93EC01888D8823C9F086
:10406000EA89FB89808185FD05C0A889B9898C9181
:1040700086FD0FC00FB607FCF5CF808185FFF2CF1C
:10408000A889B9898C9185FFEDCFCE010E940920C6
:10409000E7CFDF91CF910895CF92DF92FF920F93F8
:1040A0001F93CF93DF931F92CDB7DEB76C0181E0F2
:1040B000D60158968C9358975B969C915B975C962B
:1040C0008C915C97981307C05096ED91FC91519795
:1040D000808185FD2EC0F601038D10E00F5F1F4F1C
:1040E0000F731127F02EF601848DF81211C00FB650
:1040F00007FCF9CFD6015096ED91FC915197808144
:1041000085FFF1CFC60169830E9409206981EBCF49
:10411000838DE80FF11DE35AFF4F6083D6015B9654
:104120000C935B975296ED91FC915397808180623E
:104130000CC0D6015696ED91FC915797608350962E
:10414000ED91FC91519780818064808381E090E0C3
:104150000F90DF91CF911F910F91FF90DF90CF9043
:104160000895BF92CF92DF92EF92FF92CF93DF93A9
:10417000EC016A017B01B22EE889F98982E0808333
:10418000411581EE580761057105A1F060E079E005
:104190008DE390E0A70196010E94B22621503109DB
:1041A000410951095695479537952795211580E185
:1041B000380798F0E889F989108260E874E88EE1A0
:1041C00090E0A70196010E94B226215031094109D1
:1041D00051095695479537952795EC85FD85308390
:1041E000EE85FF852083188EEC89FD89B082EA89EF
:1041F000FB89808180618083EA89FB898081886076
:104200008083EA89FB89808180688083EA89FB89D1
:1042100080818F7D8083DF91CF91FF90EF90DF9041
:10422000CF90BF9008951F920F920FB60F92112456
:104230002F938F939F93EF93FF93E091A707F091B4
:10424000A8078081E091AD07F091AE0782FD12C012
:1042500090818091B0078F5F8F732091B107821793
:1042600051F0E091B007F0E0E956F84F958F809358
:10427000B00701C08081FF91EF919F918F912F91A5
:104280000F900FBE0F901F9018951F920F920FB6B0
:104290000F9211242F933F934F935F936F937F93CC
:1042A0008F939F93AF93BF93EF93FF9387E997E02B
:1042B0000E940920FF91EF91BF91AF919F918F9143
:1042C0007F916F915F914F913F912F910F900FBE12
:1042D0000F901F90189587E997E00E94CE1F21E06C
:1042E000892B09F420E0822F089510929A071092EA
:1042F000990788EE93E0A0E0B0E080939B0790934D
:104300009C07A0939D07B0939E0787EC93E0909342
:1043100098078093970785EC90E09093A40780938B
:10432000A30784EC90E09093A6078093A50780EC08
:1043300090E09093A8078093A70781EC90E090937A
:10434000AA078093A90782EC90E09093AC07809332
:10435000AB0786EC90E09093AE078093AD07109288
:10436000B0071092B1071092B2071092B3070895E8
:1043700008950E94531E0E94B8210E942607CBEF89
:10438000DFE10E94C5082097E1F30E94FB1FF9CFEF
:10439000CF92DF92EF92FF920F931F93CF93DF9311
:1043A0006C017A01EB01E60EF71E00E010E0CE157D
:1043B000DF0561F06991D601ED91FC910190F081EA
:1043C000E02DC6010995080F191FF1CFC801DF9133
:1043D000CF911F910F91FF90EF90DF90CF900895B4
:1043E0006115710581F0DB010D900020E9F7AD0149
:1043F00041505109461B570BDC01ED91FC910280A5
:10440000F381E02D099480E090E008950C94F02170
:10441000DC01ED91FC910190F081E02D099463EDB8
:1044200073E00C94F0210F931F93CF93DF93EC0173
:104430000E94F0218C01CE010E940F22800F911F5B
:10444000DF91CF911F910F9108958F929F92AF921C
:10445000BF92CF92DF92EF92FF920F931F93CF9371
:10446000DF93CDB7DEB7A1970FB6F894DEBF0FBECE
:10447000CDBF7C01C42EE52FCB01D22E19A221E0A5
:104480002D1510F02AE0D22E8E010F5D1F4F8D2CBE
:10449000912CA12CB12C6C2D7E2FA50194010E9492
:1044A000B2268C2DD29E80191124015011098A3018
:1044B00014F4805D01C0895CF80180832115310509
:1044C0004105510521F0C22EE32FCA01E4CFB80106
:1044D000C7010E94F021A1960FB6F894DEBF0FBE6F
:1044E000CDBFDF91CF911F910F91FF90EF90DF90A3
:1044F000CF90BF90AF909F908F900895CF92DF9212
:10450000EF92FF920F931F93CF93DF93EC016A0119
:104510007B012115310579F4E881F9810190F08161
:10452000E02D642FDF91CF911F910F91FF90EF90BD
:10453000DF90CF9009942A303105E9F477FF1AC053
:104540006DE20E9408228C0144275527BA014C19BC
:104550005D096E097F092AE0CE010E942522800FA5
:10456000911FDF91CF911F910F91FF90EF90DF90FE
:10457000CF9008952AE0B701A601CE01DF91CF9137
:104580001F910F91FF90EF90DF90CF900C94252218
:104590009A01AB01662757FD6095762F0C947E2219
:1045A0000F931F93CF93DF93EC019A01AB01662722
:1045B00057FD6095762F0E947E228C01CE010E94CD
:1045C0000F22800F911FDF91CF911F910F910895BE
:1045D0002115310541F4DC01ED91FC910190F08150
:1045E000E02D642F09940C9425229A01462F50E067
:1045F00060E070E00C94E8229A01AB0160E070E0AA
:104600000C94E8220F931F93CF93DF93EC010E9449
:10461000E8228C01CE010E940F22800F911FDF91B2
:10462000CF911F910F9108954F925F926F927F9259
:104630008F929F92AF92BF92CF92DF92EF92FF92B2
:104640000F931F93CF93DF93EC016A017B01B22E8E
:104650009A01AB01C701B6010E947126882319F0A7
:1046600066ED73E027C026013701E89477F82FEF55
:104670003FEF4FE75FE7C301B2010E94712681114E
:104680000DC02FEF3FEF4FE75FE7C301B2010E947C
:10469000792418161CF46AED73E00CC02FEF3FEF7D
:1046A0004FE75FE4C701B6010E94C8251816ACF4B5
:1046B0006EED73E0CE01DF91CF911F910F91FF90CE
:1046C000EF90DF90CF90BF90AF909F908F907F90B2
:1046D0006F905F904F900C94F0212FEF3FEF4FE7DA
:1046E0005FECC701B6010E94792487FDE1CF20E08D
:1046F00030E0A901C701B6010E94792487FF0AC0F2
:104700006DE2CE010E9408228C01F7FAF094F7F8CE
:10471000F09402C000E010E0A12C60E070E080E0C6
:104720009FE3AB1441F020E030E040E251E40E940E
:104730007D24A394F6CF9B01AC01C701B6010E9472
:1047400015246B017C010E94EA242B013C010E948C
:1047500016259B01AC01C701B6010E9414246B0110
:104760007C012AE0B301A201CE010E942522080F9C
:10477000191FBB2039F063E373E0CE010E94F021E2
:10478000080F191F7B2C772041F120E030E040E238
:1047900051E4C701B6010E94CC256B017C010E9447
:1047A000E5244B01AA2497FCA094BA2C2AE030E01F
:1047B000B501A401CE010E947E22080F191FC50178
:1047C000B4010E9418259B01AC01C701B6010E94EB
:1047D00014246B017C017A94D6CFC801DF91CF916C
:1047E0001F910F91FF90EF90DF90CF90BF90AF900F
:1047F0009F908F907F906F905F904F9008950C9452
:1048000014230F931F93CF93DF93EC010E94142383
:104810008C01CE010E940F22800F911FDF91CF915A
:104820001F910F91089508955058BB27AA270ED0C5
:1048300075C166D130F06BD120F031F49F3F11F497
:104840001EF45BC10EF4E095E7FB51C1E92F77D16F
:1048500080F3BA17620773078407950718F071F49D
:104860009EF58FC10EF4E0950B2EBA2FA02D0B01F3
:10487000B90190010C01CA01A0011124FF27591BA5
:1048800099F0593F50F4503E68F11A16F040A22FAB
:10489000232F342F4427585FF3CF4695379527951C
:1048A000A795F0405395C9F77EF41F16BA0B620B1B
:1048B000730B840BBAF09150A1F0FF0FBB1F661F62
:1048C000771F881FC2F70EC0BA0F621F731F841FA5
:1048D00048F4879577956795B795F7959E3F08F0CB
:1048E000B3CF9395880F08F09927EE0F979587958A
:1048F0000895D9D008F481E008950CD00FC107D1F4
:1049000040F0FED030F021F45F3F19F0F0C05111BB
:1049100039C1F3C014D198F39923C9F35523B1F3E6
:10492000951B550BBB27AA2762177307840738F01E
:104930009F5F5F4F220F331F441FAA1FA9F333D07D
:104940000E2E3AF0E0E830D091505040E695001C31
:10495000CAF729D0FE2F27D0660F771F881FBB1FED
:10496000261737074807AB07B0E809F0BB0B802DC7
:10497000BF01FF2793585F4F2AF09E3F510568F013
:10498000B6C000C15F3FECF3983EDCF386957795A7
:104990006795B795F7959F5FC9F7880F911D969515
:1049A000879597F90895E1E0660F771F881FBB1F71
:1049B000621773078407BA0720F0621B730B840B1E
:1049C000BA0BEE1F88F7E095089504D06894B111F2
:1049D000D9C00895BCD088F09F5790F0B92F99277F
:1049E000B751A0F0D1F0660F771F881F991F1AF0FA
:1049F000BA95C9F712C0B13081F0C3D0B1E00895C3
:104A0000C0C0672F782F8827B85F39F0B93FCCF343
:104A1000869577956795B395D9F73EF490958095EF
:104A2000709561957F4F8F4F9F4F0895E89409C00F
:104A300097FB3EF490958095709561957F4F8F4FD1
:104A40009F4F9923A9F0F92F96E9BB279395F695E7
:104A5000879577956795B795F111F8CFFAF4BB0F65
:104A600011F460FF1BC06F5F7F4F8F4F9F4F16C0C9
:104A7000882311F096E911C0772321F09EE8872F53
:104A8000762F05C0662371F096E8862F70E060E00F
:104A90002AF09A95660F771F881FDAF7880F969588
:104AA000879597F90895990F0008550FAA0BE0E82C
:104AB000FEEF16161706E807F907C0F012161306E0
:104AC000E407F50798F0621B730B840B950B39F420
:104AD0000A2661F0232B242B252B21F408950A2686
:104AE00009F4A140A6958FEF811D811D089597F9C6
:104AF0009F6780E870E060E008959FEF80EC089584
:104B000000240A94161617061806090608950024AC
:104B10000A9412161306140605060895092E039426
:104B2000000C11F4882352F0BB0F40F4BF2B11F49A
:104B300060FF04C06F5F7F4F8F4F9F4F089557FDF9
:104B40009058440F551F59F05F3F71F04795880FFB
:104B500097FB991F61F09F3F79F087950895121692
:104B600013061406551FF2CF4695F1DF08C016163E
:104B700017061806991FF1CF8695710561050894EF
:104B80000895E894BB2766277727CB0197F9089506
:104B90008ADF08F48FEF08950BD0C0CFB1DF28F083
:104BA000B6DF18F0952309F0A2CFA7CF1124EACFE2
:104BB000C6DFA0F3959FD1F3950F50E0551F629F7C
:104BC000F001729FBB27F00DB11D639FAA27F00D66
:104BD000B11DAA1F649F6627B00DA11D661F829F8D
:104BE0002227B00DA11D621F739FB00DA11D621F72
:104BF000839FA00D611D221F749F3327A00D611D8F
:104C0000231F849F600D211D822F762F6A2F112470
:104C10009F5750408AF0E1F088234AF0EE0FFF1FC3
:104C2000BB1F661F771F881F91505040A9F79E3FFA
:104C3000510570F05CCFA6CF5F3FECF3983EDCF3FC
:104C4000869577956795B795F795E7959F5FC1F737
:104C5000FE2B880F911D9695879597F9089511F46D
:104C60000EF44BCF42C073DFD0F39923D9F3CEF3C8
:104C70009F57550B87FF47D00024A0E640EA9001DC
:104C800080585695979528F4805C660F771F881F8B
:104C900020F026173707480730F4621B730B840B8C
:104CA000202931294A2BA6951794079420253125D0
:104CB0004A2758F7660F771F881F20F026173707F7
:104CC000480730F4620B730B840B200D311D411D1E
:104CD000A09581F7B901842F9158880F96958795F3
:104CE0000895E1DE880B990B08959F3F31F09150B4
:104CF00020F4879577956795B795880F911D9695C0
:104D0000879597F9089591505040660F771F881F37
:104D1000D2F70895AA1BBB1B51E107C0AA1FBB1FF6
:104D2000A617B70710F0A61BB70B881F991F5A9537
:104D3000A9F780959095BC01CD01089597FB072EAA
:104D400016F4009407D077FD09D00E948A2607FC4C
:104D500005D03EF4909581959F4F0895709561958B
:104D60007F4F0895A1E21A2EAA1BBB1BFD010DC0A7
:104D7000AA1FBB1FEE1FFF1FA217B307E407F5070B
:104D800020F0A21BB30BE40BF50B661F771F881FE7
:104D9000991F1A9469F760957095809590959B017D
:104DA000AC01BD01CF010895052E97FB1EF40094C0
:104DB0000E94EB2657FD07D00E94B22607FC03D0C5
:104DC0004EF40C94EB2650954095309521953F4F2D
:104DD0004F4F5F4F089590958095709561957F4FE7
:104DE0008F4F9F4F0895EE0FFF1F0590F491E02D18
:104DF00009940E940127332312F48A1B9B0B0C9405
:104E00001227A29FB001B39FC001A39F700D811D07
:104E10001124911DB29F700D811D1124911D0895C3
:104E20000E940127B7FF0895821B930B08950E94EB
:104E30000127A59F900DB49F900DA49F800D911DFB
:084E400011240895F894FFCF3E
:104E480000003408800000A0F04400181C4639C255
:104E5800F3CB050101C3B58443014F6B0028002043
:104E68002D3E2061636B00435420312043616C3A2E
:104E78002000435420322043616C3A2000435420E0
:104E8800332043616C3A2000435420342043616C42
:104E98003A200056524D53204143207E0041432082
:104EA80057617665204465746563746564202D20B8
:104EB8005265616C20506F7765722063616C632066
:104EC800656E61626C656400555341206D6F646561
:104ED8002061637469766520005663616C3A20002E
:104EE80056726D733A200050686173652053686983
:104EF80066743A20004143204E4F5420646574651F
:104F080063746564202D204170706172656E742031
:104F1800506F7765722063616C6320656E61626CA7
:104F2800656400555341206D6F6465004173737566
:104F38006D696E672056524D533A20004173737560
:104F48006D696E6720706F7765722066726F6D206D
:104F580062617474202F20355620555342202D202D
:104F6800706F776572207361766520656E61626C1B
:104F78006564006E6F2043542064657465637465CE
:104F8800640043542031206465746563740043549D
:104F980020322064657465637400435420332064B0
:104FA80065746563740043542034206465746563D4
:104FB800740044657465637420002044533138429A
:104FC8003230003020445331384232302064657426
:104FD80065637465640052464D3639435720496EFF
:104FE80069743A20004E6F6465200020467265712E
:104FF80020003433334D687A003836384D687A00EB
:105008003931354D687A00204E6574776F726B20A0
:105018000043543120435432204354332043543402
:105028002056524D532F424154542050554C53450D
:10503800002054656D706572617475726520312D3C
:10504800004F4B200020282D302900656D6F6E50D1
:10505800692056004F70656E456E657267794D6FB1
:105068006E69746F722E6F726700737461727475F3
:10507800702E2E2E002052464D3639435720666F2B
:10508800756E642000504F53542E2E2E2E2E7761AD
:10509800697420313073005B656D6F6E50692E0046
:1050A8005D0020690020670020402000204D487ADC
:1050B800002055534120000A462C20200009696E23
:1050C800742C20200074696D6520666F72207265EB
:1050D8006164696E67200900617672670900766FFE
:1050E8006C7409006375727209002B565A5E00BC15
:1050F80000770100000000841B571B2C1B341B4742
:105108001B561B000000004C20C821CE1FE71FD9EA
:105118001F2A200D0A006E616E00696E66006F76A8
:0251280066001F
:00000001FF
