:100000000C94F5010C94751D0C94A21D0C941D020A
:100010000C941D020C941D020C9460020C941D02A1
:100020000C941D020C941D020C941D020C941D02D4
:100030000C941D020C941D020C941D020C941D02C4
:100040000C94CF1D0C941D020C943B210C946D213B
:100050000C941D020C941D020C941D020C941D02A4
:100060000C94181C0C941D02F00A820AFB0AFB0A6D
:10007000FB0AFB0AA60AFB0A6E0AFB0AFB0AFB0A3A
:10008000FB0AFB0AFB0AC70AFB0AFB0AF00AFB0A87
:10009000FB0AD90A20620A00202D3E20000A417680
:1000A00061696C61626C6520636F6D6D616E647314
:1000B0003A0A20203C6E6E3E206920202020202D10
:1000C00020736574206E6F64652049447320287323
:1000D00074616E64617264206E6F6465206964731C
:1000E0002061726520312E2E3330290A20203C6E8B
:1000F0003E20622020202020202D20736574204D7A
:10010000487A2062616E64202834203D20343333E5
:100110002C2038203D203836382C2039203D2039FD
:100120003135290A20203C6E6E6E3E20672020204B
:10013000202D20736574206E6574776F726B206755
:10014000726F7570202852464D3132206F6E6C7977
:1001500020616C6C6F7773203231322C2030203D5F
:1001600020616E79290A20203C6E3E2063202020E9
:100170002020202D2073657420636F6C6C65637480
:10018000206D6F64652028616476616E6365642C00
:10019000206E6F726D616C6C792030290A20202EE0
:1001A0002E2E2C3C6E6E3E2061202D2073656E64D9
:1001B0002064617461207061636B657420746F20CA
:1001C0006E6F6465203C6E6E3E2C207265717565A5
:1001D00073742061636B0A20202E2E2E2C3C6E6ED1
:1001E0003E2073202D2073656E642064617461204D
:1001F0007061636B657420746F206E6F6465203C62
:100200006E6E3E2C206E6F2061636B0A20202E2EB6
:100210002E2C3C6E3E207020202D205365742041F2
:10022000432041646170746572205663616C2031B3
:1002300070203D20554B2C203270203D20555341DD
:100240000A202076202020202020202020202D2061
:1002500053686F77206669726D7761726520766585
:100260007273696F6E0A00010402000302048A05BA
:100270000506C30B2019421E2C25802E882F2D37F2
:100280000038003C8F3D106F2000005EBCE2613FF3
:10029000DD83C29C7E20A3FD1F419DC3217FFCA264
:1002A000401E5F01E3BD3E6082DC237D9FC1421C96
:1002B000FEA0E1BF5D0380DE3C62BEE0025CDF8148
:1002C000633D7C22C09E1D43A1FF4618FAA42779F6
:1002D0009BC584DA3866E5BB5907DB856739BAE424
:1002E00006581947A5FB7826C49A653BD987045A56
:1002F000B8E6A7F91B45C6987A24F8A6441A99C708
:10030000257B3A6486D85B05E7B98CD2306EEDB3B5
:10031000510F4E10F2AC2F7193CD114FADF3702EE3
:10032000CC92D38D6F31B2EC0E50AFF1134DCE9015
:10033000722C6D33D18F0C52B0EE326C8ED0530DC7
:10034000EFB1F0AE4C1291CF2D73CA947628ABF575
:1003500017490856B4EA6937D58B5709EBB53668A3
:100360008AD495CB2977F4AA4816E9B7550B88D6D5
:10037000346A2B7597C94A14F6A8742AC896154B87
:10038000A9F7B6E80A54D7896B35000000080002C7
:10039000010000030407000000000000000001024B
:1003A0000408102040800102040810200102040803
:1003B00010200404040404040404020202020202E1
:1003C00003030303030300000000230026002900A9
:1003D00000000000250028002B0000000000240081
:1003E00027002A008508EB1B9D2111241FBECFEF9B
:1003F000D8E0DEBFCDBF13E0A0E0B1E0E8E9FEE465
:1004000002C005900D92A23EB107D9F728E0A2EEF6
:10041000B3E001C01D92A633B207E1F713E0CAEEC4
:10042000D3E004C02297FE010E941D27C43ED107DD
:10043000C9F70E94E1210C944A270C9400001F93F5
:10044000CF93DF93EC01FE011491112371F01A3068
:1004500029F46DE089E997E00E943022612F89E953
:1004600097E00E9430222196EECFDF91CF911F912D
:1004700008950F931F930E94191E00914C04109130
:100480004D0420914E0430914F04601B710B820B80
:10049000930B6F3671058105910578F080915404B6
:1004A0008F5F809354040E94191E60934C047093D4
:1004B0004D0480934E0490934F041F910F91089523
:1004C0001F920F920FB60F9211242F933F934F93C9
:1004D0005F936F937F938F939F93AF93BF93EF93AC
:1004E000FF930E949E0FFF91EF91BF91AF919F915B
:1004F0008F917F916F915F914F913F912F910F90CD
:100500000FBE0F901F90189561E086E00E94971F24
:1005100062E370E080E090E00E94481E60E086E0C8
:100520000C94971F61E086E00E94971F69E170E0DC
:1005300080E090E00E94481E60E086E00E94971FE5
:1005400061E086E00E94971F69E170E080E090E042
:100550000E94481E60E086E00C94971FCF93DF93C3
:100560006AE070E080E090E00E94481E20E436E0FF
:1005700040910E0160911301809112010E94A91116
:10058000CAE0D0E0D0936A04C093690440E269E60F
:1005900074E080E00E94181264E670E080E090E071
:1005A0000E94481E219770F782E00E943712109235
:1005B0006A0410926904DF91CF910895FF920F931E
:1005C0001F93CF93DF930E940212882309F461C026
:1005D000F09085068091CB069091CC06892B09F08E
:1005E00059C06AE171E089E997E00E942E226BE729
:1005F00073E089E997E00E942E22609184066F7172
:1006000070E04AE050E089E997E00E94F0226BE751
:1006100073E089E997E00E942E2206E816E0E801DF
:100620008C2F801B8F1570F4699170E04AE050E0C8
:1006300089E997E00E94242360E289E997E00E941B
:100640003022EECF6DE171E089E997E00E942E2221
:100650006091790670E0759567957195619571095E
:100660004AE050E089E997E00E94F02269E073E0F7
:1006700089E997E00E942E2289E997E00E943722BB
:100680008091840685FF1BC08091840687FF04C08B
:1006900016C019C080E017C06FE171E089E997E0EA
:1006A0000E942E228091840686FD0BC080918406D4
:1006B0008F71806C40E060E070E00E94161281E073
:1006C00002C080E8F7CFDF91CF911F910F91FF908B
:1006D0000895809102048823D1F10E94141281119F
:1006E00001C0089561E086E00E94971F68EC70E009
:1006F00080E090E00E94481E60E086E00E94971F24
:1007000088E990E00E941F026091040470E04AE0D2
:1007100050E089E997E00E94242384E990E00E9458
:100720001F0280910204813681F080E090910304E1
:10073000992311F09064892B4091040466E074E0E1
:100740000E94161210920204089580E2EFCF0895DD
:10075000CF93DF9367E271E089E997E00E942E2250
:1007600022E030E04DEC5CEC65EB72E489E997E067
:100770000E94292462E371E089E997E00E942E2219
:1007800022E030E04DEC5CEC65EB72E489E997E047
:100790000E9429246DE371E089E997E00E942E22EE
:1007A00022E030E04DEC5CEC65EB72E489E997E027
:1007B0000E94292468E471E089E997E00E942E22D2
:1007C00022E030E049E25CE565E871E489E997E020
:1007D0000E94292468EE73E080E090E00E94481EA9
:1007E00063E571E089E997E00E942E22409161045F
:1007F00050916204609163047091640422E030E0DF
:1008000089E997E00E94272462E173E089E997E093
:100810000E943B2280915C04882309F461C0CAE0F5
:10082000D0E061E086E00E94971F68EC70E080E015
:1008300090E00E94481E60E086E00E94971F6CE2F4
:1008400071E080E090E00E94481E219751F76DE52D
:1008500071E089E997E00E943B228091DF048823C0
:1008600031F068E871E089E997E00E942E2269E999
:1008700071E089E997E00E942E2240916504509131
:100880006604609167047091680422E030E089E9B1
:1008900097E00E94292460EA71E089E997E00E94CC
:1008A0002E224AE050E06091590489E997E00E94C5
:1008B0001D2362E173E089E997E00E943B2267EA29
:1008C00071E089E997E00E942E2222E030E04AE9B7
:1008D00059E969ED7FE389E997E00E9429243EC048
:1008E00068EE73E080E090E00E94481E61E086E0E0
:1008F0000E94971F60ED77E080E090E00E94481E24
:1009000060E086E00E94971F65EB71E089E997E05F
:100910000E943B228091DF04882331F063EE71E076
:1009200089E997E00E943B226CEE71E089E997E04B
:100930000E942E224AE050E06091590489E997E034
:100940000E941D2362E173E089E997E00E943B2247
:100950006CEF71E089E997E00E943B2280915A0494
:10096000811103C063E372E024C080916004882396
:1009700031F062E472E089E997E00E943B228091C5
:100980005F04882331F06EE472E089E997E00E9409
:100990003B2280915E04882331F06AE572E089E9A8
:1009A00097E00E943B2280915D04882331F066E647
:1009B00072E089E997E00E943B2260ED77E080E0F9
:1009C00090E00E94481E80915B04882389F062E7D2
:1009D00072E089E997E00E942E224AE050E060919F
:1009E0008D0489E997E00E941D236AE772E002C046
:1009F00063E872E089E997E00E943B22809114014C
:100A0000882309F474C066E972E089E997E00E94DE
:100A10003B2265EA72E089E997E00E942E224AE0D3
:100A200050E06091120189E997E00E941D236BEA72
:100A300072E089E997E00E942E22809113018130B3
:100A400031F462EB72E089E997E00E942E228091F6
:100A50001301823031F469EB72E089E997E00E947A
:100A60002E2280911301833031F460EC72E089E929
:100A700097E00E942E2267EC72E089E997E00E94DD
:100A80002E2240910E0150910F0160911001709142
:100A900011012AE030E089E997E00E942A2361ED04
:100AA00072E089E997E00E942E2280915B048823FE
:100AB00071F061EF72E089E997E00E942E224AE02E
:100AC00050E060918D0489E997E00E941D236BE757
:100AD00073E089E997E00E943B2264EF71E080E0D7
:100AE00090E00E94481E8DE990E00E941F0264E1A0
:100AF00070E080E090E0DF91CF910C94481EEF927F
:100B0000FF920F931F93CF93DF93CDB7DEB7A097DC
:100B10000FB6F894DEBF0FBECDBF80E2E9E6F4E089
:100B2000DE01119601900D928A95E1F761E073E084
:100B300089E997E00E942E224AE050E0609112017C
:100B400089E997E00E941D238E010F5F1F4F7E01F0
:100B500081E2E80EF11C60E289E997E00E94302210
:100B6000F80161918F014AE050E089E997E00E9425
:100B70001D230E151F0579F765E073E089E997E0FD
:100B80000E942E2289E997E00E9437226AE070E0F5
:100B900080E090E0A0960FB6F894DEBF0FBECDBF08
:100BA000DF91CF911F910F91FF90EF900C94481E11
:100BB000CF92DF92EF92FF920F931F93CF93DF9329
:100BC000EB0100E010E0C12CD12C76010C171D07C1
:100BD0007CF480E00E94B91EDC01B2509D010E94AD
:100BE0002127C60ED71EE81EF91E0F5F1F4FEECF3E
:100BF000C701B6010E943E256B017C01BE0188271A
:100C000077FD8095982F0E9440259B01AC01C7017C
:100C1000B6010E94A524DF91CF911F910F91FF9003
:100C2000EF90DF90CF900C945B2661E086E00E940D
:100C30005E1F61E086E00E94971F61E084E00E94F1
:100C40005E1F60E084E00E94971F60E083E00E94E6
:100C50005E1F26E040E056E960E070E089E997E039
:100C60000E94D9206BE073E089E997E00E942E2270
:100C700022E030E047E656E666E070E489E997E076
:100C80000E94292464E173E089E997E00E943B22F5
:100C90006AE273E089E997E00C943B2281E00E94CC
:100CA000B91E181619064CF481E0809360048091F7
:100CB0005A048F5F80935A0402C01092600482E04D
:100CC0000E94B91E181619064CF481E080935F0447
:100CD00080915A048F5F80935A0402C010925F047F
:100CE00083E00E94B91E181619064CF481E0809327
:100CF0005E0480915A048F5F80935A0402C0109260
:100D00005E0484E00E94B91E181619064CF481E0B6
:100D100080935D0480915A048F5F80935A0402C0CF
:100D200010925D0480915A04811103C081E0809388
:100D3000600480E197E20E94490F60E086E00E9433
:100D4000971F61E08EE00E945E1F6FEF70E08EE003
:100D50000E94D61E60E070E08EE00E94D61E60E029
:100D60008EE00E945E1F64EF71E080E090E00E94E0
:100D7000481E64EF76E080E090E00E94D80522E50E
:100D800038EB4EE55FE30E94F42520E030E044EBD1
:100D900052E40E94F025181624F481E080935C044C
:100DA000089510925C040895CF938EEB94E00E9416
:100DB000D61960E08EEB94E00E943E1A8EEB94E030
:100DC0000E94641880938D048EEB94E00E94641856
:100DD00080938D04C0E080918D04C81760F488E092
:100DE000C89FB001112462577B4F81ED94E00E94AF
:100DF000B217811129C064EF71E080E090E00E9499
:100E0000481EC0E080918D04C81768F488E0C89F30
:100E1000B001112462577B4F4CE08EEB94E00E94AE
:100E20006019CF5FEFCF811103C010925B0408C03F
:100E300091E090935B04873018F086E080938D04F6
:100E400080918D04CF910895CF5FC5CFEF92FF922F
:100E50000F931F93CF9361E086E00E945E1F62E0D4
:100E600083E00E945E1F61E086E00E94971F26E0FB
:100E700040E855E260E070E089E997E00E94D920FF
:100E800065E373E089E997E00E943B2264E173E047
:100E900089E997E00E943B2265E473E089E997E0E5
:100EA0000E943B2262E088E00E945E1F62E089E0CF
:100EB0000E945E1F88E00E94CD1F892B29F480913B
:100EC000120181508093120189E00E94CD1F892B6D
:100ED00019F481E08093DF0464E670E080E090E044
:100EE0000E94481E8091DF04882371F080E090E02A
:100EF000A2E0B3E48093650490936604A093670432
:100F0000B09368048EE611C080911501909116018E
:100F1000A0911701B0911801809365049093660425
:100F2000A0936704B093680486EE809359040E94EE
:100F300015068091140181110E94AE020E94D40610
:100F40006CED75E080E090E00E94481E0E944E0625
:100F50000E94A80385E296E0A1E5B0E48093E50451
:100F60009093E604A093E704B093E8041092E104A0
:100F70001092E2041092E3041092E40481E0809362
:100F8000E0041092F104EE24E39400E010E09801F4
:100F900045E256E061E570E489EE94E00E94AB0D15
:100FA00042E050E069E372E081E00E94451D10924A
:100FB0008504109286041092870410928804C6E07B
:100FC0002DEC3CEC45EB52E461E070E087E196E00B
:100FD0000E947212C150A1F72DEC3CEC45EB52E49B
:100FE00062E070E08BEB95E00E9472122DEC3CEC1D
:100FF00045EB52E463E070E08FE595E00E947212E9
:1010000029E23CE545E851E464E070E083E095E0E6
:101010000E94721280915C048823F1F12091650492
:101020003091660440916704509168041AE9E12EFA
:1010300019E9F12E09ED1FE360E070E087E196E029
:101040000E94561220916504309166044091670415
:101050005091680460E070E08BEB95E00E945612BE
:1010600020916504309166044091670450916804B2
:1010700060E070E08FE595E00E94561220916504D3
:1010800030916604409167045091680460E070E01C
:1010900083E095E00E945612CF911F910F91FF902F
:1010A000EF900895CF92DF92EF92FF9298E0899FA0
:1010B000B001112462577B4F8EEB94E00E94501BCD
:1010C0006B017C0120E030E04AEF52E40E94A12451
:1010D00087FF16C020E030E04CE552ECC701B601B6
:1010E0000E94F025181664F420E030E040E251E45C
:1010F000C701B6010E94F4250E940D25CB0100C056
:10110000FF90EF90DF90CF90089583E393E3A3E502
:10111000B0E48093E9049093EA04A093EB04B093C5
:10112000EC041092ED041092EE041092EF04109271
:10113000F0041092F1041092F20483E090E0909396
:10114000F4048093F30481E090E09093F60480939C
:10115000F50484E690E09093F8048093F70488EC1B
:1011600090E09093FA048093F9041092FF04109297
:101170000005109201051092020565E081ED94E0F2
:101180000E948F1761ED74E08EEB94E00C9455187B
:101190008F929F92AF92BF92CF92DF92EF92FF9287
:1011A0000F931F9383E10E94B91E9093F7038093DE
:1011B000F60364E670E080E090E00E94481E8091B3
:1011C000F6039091F70325E0289FB001299F700D49
:1011D0001124882777FD8095982F0E94402520E0D4
:1011E00030E040E85AE30E94F4256B017C016093F3
:1011F000FC037093FD038093FE039093FF038090A4
:10120000060190900701A0900801B090090120917B
:101210000A0130910B0140910C0150910D01C50163
:10122000B4010E943D249B01AC01C501B4010E94A0
:10123000A5249B01AC01C701B6010E94A5246093BF
:10124000EE037093EF038093F0039093F1030E94F9
:10125000191EC090E203D090E303E090E403F09005
:10126000E5039B01AC012C193D094E095F09690199
:101270007A0130EDC31637E0D306E104F10408F437
:1012800076C06093E2037093E3038093E40390934A
:10129000E50383E10E94B91EBC01882777FD809594
:1012A000982F0E9440256093F2037093F30380937C
:1012B000F4039093F50320E030E040EA50E40E940C
:1012C000F42520E030E040E85AE30E94F4256B0169
:1012D0007C016093E6037093E7038093E8039093A7
:1012E000E9038090060190900701A0900801B0905A
:1012F000090120910A0130910B0140910C0150919C
:101300000D01C501B4010E943D249B01AC01C50142
:10131000B4010E94A5249B01AC01C701B6010E9443
:10132000A5246093EA037093EB038093EC039093FE
:10133000ED032091EE033091EF034091F0035091C3
:10134000F1030E943D2420E030E040E251E40E949D
:10135000F42520E030E040E05FE30E94F425609354
:10136000F8037093F9038093FA039093FB030E94B0
:10137000191E60935004709351048093520490930B
:1013800053048091DF04882371F080E090E0A2E0B4
:10139000B3E48093650490936604A0936704B093CC
:1013A00068048EE611C08091150190911601A091FC
:1013B0001701B09118018093650490936604A0937F
:1013C0006704B093680486EE809359042091650405
:1013D0003091660440916704509168041AE9E12E47
:1013E00019E9F12E09ED1FE360E070E087E196E076
:1013F0000E94561220916504309166044091670462
:101400005091680460E070E08BEB95E00E9456120A
:1014100020916504309166044091670450916804FE
:1014200060E070E08FE595E00E945612209165041F
:1014300030916604409167045091680460E070E068
:1014400083E095E00E94561289E997E00E94F61F1A
:10145000892B09F43EC189E997E00E940F2090EDA5
:10146000980F9A30A8F440910004509101049AE03A
:10147000949F9001959F300D112420533109280F1E
:10148000311D87FD3A9530930104209300041FC15C
:101490008C3281F4E0910504E63408F014C181E057
:1014A0008E0F80930504F0E0EA5FFB4F809100040B
:1014B000808309C181320CF404C1482F552747FDB0
:1014C0005095652F752FFA01E156F109E631F105C6
:1014D00008F091C0EC5CFF4F0C941B278091000436
:1014E00090910104009771F08093120120911401F2
:1014F000222309F484C020E436E040910E0160917B
:10150000130142C080910004843031F0883031F002
:10151000893031F463E005C061E003C062E001C0DE
:1015200060E0862F90E09093010480930004892B63
:1015300009F465C06093130180911401882309F4B4
:101540005EC020E436E040910E011CC040910004D2
:10155000509101044115510509F451C0CA01A0E0A0
:10156000B0E080930E0190930F01A0931001B0930F
:10157000110180911401882309F441C020E436E070
:1015800060911301809112010E94A91138C08091CD
:10159000000490910104009791F18130910519F4B4
:1015A0001092DF042CC0029751F581E08093DF0494
:1015B00026C067E573E089E997E00E942E2222E0C9
:1015C00030E047E656E666E070E489E997E00E947D
:1015D000272460E673E089E997E00E942E220FC07D
:1015E0008093020480910504809304048091000498
:1015F0008093030404C08DE990E00E941F02809153
:101600001401882309F448C060E289E997E00E9448
:101610003022609112016F71605C89E997E00E944D
:10162000302262E673E089E997E00E942E22609101
:1016300012016F7170E04AE050E089E997E00E9482
:10164000F02265E673E089E997E00E942E2268E6C1
:1016500073E089E997E00E942E2280911301813086
:1016600039F0823041F0833049F463E973E008C017
:1016700061EB71E005C064E673E002C060E070E019
:101680004AE050E089E997E00E94F0226CE673E0BE
:1016900089E997E00E942E2261E773E089E997E0EB
:1016A0000E942E226091DF0470E04AE050E089E958
:1016B00097E00E94F0226BE773E089E997E00E94CF
:1016C0003B221092050410920104109200040E9423
:1016D000920280911401882339F00E94DE02811168
:1016E0000E9492020E9469038091500490915104DB
:1016F000A0915204B0915304409155045091560466
:101700006091570470915804841B950BA60BB70B7E
:1017100089389341A105B10508F412C20E948402E0
:1017200080915C04882359F140ED57E064E170E05A
:1017300087E196E00E94A912609117067091180641
:101740008091190690911A060E940D2570936A04E3
:101750006093690420E030E048EC52E46091230695
:101760007091240680912506909126060E94F4250A
:101770000E940D25709378046093770424C068EC70
:1017800075E087E196E00E947A156B017C01B090CC
:1017900059046B2D70E080E090E00E9440259B0191
:1017A000AC01C701B6010E94F4250E940D2570937B
:1017B0006A046093690454E6B59EC00111249093B5
:1017C00078048093770480915C04882359F140ED7C
:1017D00057E064E170E08BEB95E00E94A912609104
:1017E000BB057091BC058091BD059091BE050E941E
:1017F0000D2570936C0460936B0420E030E048EC9E
:1018000052E46091C7057091C8058091C905909117
:10181000CA050E94F4250E940D25709378046093F8
:10182000770424C068EC75E08BEB95E00E947A1594
:101830006B017C01B09059046B2D70E080E090E06A
:101840000E9440259B01AC01C701B6010E94F4250E
:101850000E940D2570936C0460936B0424E6B29E85
:10186000C0011124909378048093770480915C04E4
:10187000882359F140ED57E064E170E08FE595E091
:101880000E94A91260915F057091600580916105C9
:10189000909162050E940D2570936E0460936D0413
:1018A00020E030E048EC52E460916B0570916C05EB
:1018B00080916D0590916E050E94F4250E940D2582
:1018C000709378046093770424C068EC75E08FE52A
:1018D00095E00E947A156B017C01B09059046B2D44
:1018E00070E080E090E00E9440259B01AC01C701C0
:1018F000B6010E94F4250E940D2570936E0460933A
:101900006D0434E6B39EC001112490937804809353
:10191000770480915C04882359F140ED57E064E13D
:1019200070E083E095E00E94A91260910305709138
:10193000040580910505909106050E940D25709380
:10194000700460936F0420E030E048EC52E4609152
:101950000F057091100580911105909112050E945C
:10196000F4250E940D25709378046093770424C0B9
:1019700068EC75E083E095E00E947A156B017C01CC
:10198000B09059046B2D70E080E090E00E944025FB
:101990009B01AC01C701B6010E94F4250E940D25F0
:1019A0007093700460936F0444E6B49EC0011124E8
:1019B00090937804809377046091F8037091F90311
:1019C0008091FA039091FB030E940D25709372049D
:1019D0006093710489EE94E00E94BB0E60938904C9
:1019E00070938A0480938B0490938C0420E030E001
:1019F00048EC52E40E94F4250E940D257093740473
:101A0000609373044091710450917204469F900159
:101A1000479F300D569F300D1124C90164E670E0D8
:101A20000E94C62670937604609375048091F10439
:101A3000882381F167E773E089E997E00E942E220D
:101A40004091890450918A0460918B0470918C04B8
:101A500022E030E089E997E00E9427246DE773E0F7
:101A600089E997E00E942E2220E030E048EC52E421
:101A70006091890470918A0480918B0490918C0408
:101A80000E94F4250E940D254AE050E089E997E084
:101A90000E94F82280915C04811103C087E00E94BB
:101AA000B91E80915B0481111FC08091540488236A
:101AB000A9F1F894209154048091850490918604B2
:101AC000A0918704B0918804820F911DA11DB11DC2
:101AD0008093850490938604A0938704B093880430
:101AE0001092540478941AC082E390E00E94490F47
:101AF0008EEB94E00E94BF1AF12C80918D04F816B1
:101B0000A0F68F2D0E945208EF2DF0E0EE0FFF1F80
:101B1000E758FB4F91838083F394EFCF0E947F05BA
:101B20008091500490915104A0915204B0915304BB
:101B30008093550490935604A0935704B09358048F
:101B40001F910F91FF90EF90DF90CF90BF90AF90DB
:101B50009F908F9008958F929F92AF92BF92CF9255
:101B6000DF92EF920F931F93CF93DF9300D000D0BB
:101B7000CDB7DEB76C014801590181E049835A8332
:101B80006B837C830E94B61E49815A816B817C8164
:101B9000F601408351836283738384829582A68297
:101BA000B782E18683E090E09387828784E690E0C5
:101BB0009787868788EC90E0918B808B81E090E01E
:101BC00095878487168A178A108E118E0F900F9032
:101BD0000F900F90DF91CF911F910F91EF90DF90B9
:101BE000CF90BF90AF909F908F900895CF92DF924B
:101BF000EF92FF920F931F93CF93DF93EC010E941C
:101C0000191E6A8B7B8B8C8B9D8BC12CD12C760102
:101C100000E010E08889998908171907ECF484E13D
:101C20000E94B91EBC01882777FD8095982F0E94DD
:101C300040259B01AC01C701B6010E943D246B0108
:101C40007C010F5F1F4F6C857D85882777FD809510
:101C5000982F0E94481EDECF0E94191E0A891B89F8
:101C60002C893D89601B710B820B930B6A8B7B8BDC
:101C70008C8B9D8B8885882381F065E873E089E9EA
:101C800097E00E942E224A895B896C897D892AE02F
:101C900030E089E997E00E942A23688979898827BA
:101CA00077FD8095982F0E9440259B01AC01C701CC
:101CB000B6010E94A5246B017C018885882371F000
:101CC00068E973E089E997E00E942E2222E030E083
:101CD000B701A60189E997E00E942924288139816A
:101CE0004A815B81C701B6010E94F42520E030ECF7
:101CF0004FE754E40E94A5246B017C01888588236A
:101D000071F06EE973E089E997E00E942E2222E0EB
:101D100030E0B701A60189E997E00E94292421E774
:101D20003DEB4CE053E4C701B6010E94F42526EFD9
:101D300038EE46EB53E40E943C246B017C0188851D
:101D4000882371F064EA73E089E997E00E942E220B
:101D500022E030E0B701A60189E997E00E9429243A
:101D6000C701B601DF91CF911F910F91FF90EF90C6
:101D7000DF90CF900895CF92DF92EF92FF920F9372
:101D80001F93CF93DF93EC0100E010E0C12CD12C26
:101D900076016A857B8506171707B4F4CE010E9489
:101DA000F60D9B01AC01C701B6010E943D246B01F9
:101DB0007C016E857F85882777FD8095982F0E940E
:101DC000481E0F5F1F4FE5CF882777FD8095982F1E
:101DD0000E9440259B01AC01C701B6010E94A524C9
:101DE0002C813D814E815F810E943D246E8B7F8BD3
:101DF000888F998F2985222339F0DC01CB01B058D7
:101E00008E8B9F8BA88FB98F6E897F89888D998DD6
:101E1000DF91CF911F910F91FF90EF90DF90CF90C6
:101E2000089583FF02C098E2892787FD06C0806479
:101E3000909160009093730602C08091730694B7EE
:101E4000977F94BFF89490916000986190936000A0
:101E50008093600078940895EAE7F0E090818081B3
:101E60008F77808383B7817F846083BFF89483B743
:101E7000816083BF85B7806685BF85B78F798064B1
:101E800085BF7894889583B78E7F83BF90937A00BF
:101E90000895DF92EF92FF920F931F93CF93DF93FA
:101EA0008C01EC0128E0E22EF12CC031D10538F193
:101EB0009E01D12C2032310538F0D39489E0D81618
:101EC00019F036952795F6CF109274068D2D0E9445
:101ED000110F0E942C0F8FEF0E94110FC70102C03B
:101EE000880F991FDA94E2F7C81BD90B209174066A
:101EF000222319F0C81BD90BD8CF80E001C081E0A4
:101F000040919107509192076091930770919407C7
:101F10000C1B1D0B400F511F611D711D409391073C
:101F2000509392076093930770939407DF91CF913A
:101F30001F910F91FF90EF90DF90089580917406AC
:101F40008F5F8093740608958627682F62956827AF
:101F5000062E669566956025062E66956025677047
:101F6000082E892F669507946795902D86270694ED
:101F70006795902586270895E8982A988EBD0DB418
:101F800007FEFDCF8EB56EBD0DB407FEFDCF8EB53D
:101F90002A9AE89A089560E00C94BC0F88E20E94A7
:101FA000CB0F807521F080E00E94CB0FF7CF089512
:101FB000CF93C82F81E00E94CB0F682F637E6C2BDC
:101FC00081E8CF910C94BC0F22E0660F771F881F29
:101FD000991F2A95D1F729E03DE340E050E00E94A7
:101FE000DA2666E0220F331F441F551F6A95D1F78A
:101FF00020937E0630937F0640938006509381069F
:10200000089580917706853021F4809178068823A1
:1020100011F080E0089584E0809377060E94D80F45
:1020200081E008959091770681E094300CF080E093
:102030000895CF93DF932A9A229A2A9A84B18C62C8
:1020400084B980E58CBD8DB581608DBD6AEA8FEA6B
:102050000E94BC0F8FE20E94CB0F8A3AB9F765E568
:102060008FEA0E94BC0F8FE20E94CB0F8535B9F733
:10207000C7E6D2E0FE018491882339F0319664915D
:1020800080680E94BC0F2296F5CF60917D0680EBA0
:102090000E94BC0F80917E0690917F06A0918006E1
:1020A000B0918106BD018827992787E80E94BC0F5F
:1020B00080917E0690917F06A0918006B091810666
:1020C000692F7A2F8B2F992788E80E94BC0F609187
:1020D0007E0689E80E94BC0F84E080937706DF913A
:1020E000CF910895CF93DF93EC01809177068430F0
:1020F00019F0853021F14DC01092850610927806B6
:1021000060917D068FEF9FEF0E94A40F90937B0656
:1021100080937A06D0937606C093750685E0809307
:1021200077060E94CE0F60E885EA0E94BC0F80E12E
:102130000E94D80F62E08EE90E94BC0F2AC08091F5
:1021400085062091780690E0049630E08217930788
:1021500024F0809178068834E0F084E0809377065C
:102160000E94D80F809185068334B0F480917A065E
:1021700090917B06892B81F48091840686FF0FC0A5
:1021800090917C069F3159F0809184068F71891758
:1021900031F08FEF9FEF05C081E090E002C080E05A
:1021A00090E0DF91CF910895CF9340938506FB0196
:1021B00020E030E050E02417350744F4D901AA5755
:1021C000B94F91919C932F5F3F4FF5CF86FD04C08F
:1021D000807E90917C06890F8093840660917D06B5
:1021E0008FEF9FEF0E94A40F90937B0680937A0657
:1021F000909185068EEF891B809377060E94CE0F03
:102200008CE00E94D80F60E085EA0E94BC0F8091AC
:1022100077068330DCF588E20E94CB0F87FDF7CF8D
:102220008091770687FF1BC0909185068091770685
:10223000E0917506F0917606E90FF11DE80FF11DAA
:1022400087FDFA95C3816C2F80917A0690917B0669
:102250000E94A40F90937B0680937A060DC0809114
:102260007706882329F0813031F4C0917B0604C0C1
:10227000C0917A0601C0CAEA6C2F80E80E94BC0FA8
:10228000809177068F5F80937706C1CFCF910895B5
:1022900080917706853009F04DC060E485EA0E94A0
:1022A000BC0F84E20E94CB0F80937906789488E279
:1022B0000E94CB0F8075D9F38091780681110FC0F1
:1022C000E0917506F09176068091780691E0980F7E
:1022D0009093780690917D06E80FF11D908380E041
:1022E0000E94CB0FE0917506F091760690917806EA
:1022F00021E0290F20937806E90FF11D8083682FD4
:1023000080917A0690917B060E94A40F90937B06A1
:1023100080937A06809185062091780690E0049655
:1023200030E082179307A4F080917806883408F48F
:10233000BECF089588E20E94CB0F83FF09C084E0DE
:10234000809377060E94D80F60E885EA0C94BC0F52
:102350000895CF92DF92EF92FF921F93CF93DF9376
:10236000C82F162FD42FF901AFEFA60FA33028F4F2
:10237000B0E0A655BC4FAC9101C0A0E0B0E020E8B1
:1023800036E948E950E00E943F276B017C01212F8C
:1023900030E0A4ECB9E00E942927DF019B01AC01E9
:1023A0000E943F27C60ED71EE81EF91EC701B601C0
:1023B0000E94E40FD0937D068C2F8F7180937C0652
:1023C00064E170E080E090E00E94481E80917C060D
:1023D000882341F043E050E068E471E180E00E942E
:1023E000451D03C080E00E94651D0E941910C09326
:1023F00082068C2FDF91CF911F91FF90EF90DF909D
:10240000CF90089583E896E00E9472109093CC06D6
:102410008093CB062091CB063091CC0681E02F3FF4
:102420003F4F09F480E008950C9401100C94D410EF
:10243000EF92FF921F93CF93DF931F92CDB7DEB73A
:10244000182F7B0149830E9401104981811105C029
:1024500049830E9402124981F5CFB701812F0F9065
:10246000DF91CF911F91FF90EF900C94D410CF93F8
:10247000C82F0E9412108823B9F0CC23D1F383B760
:10248000817FC33021F0C23021F49CE003C094E08E
:1024900001C090E0892B83BF83B7816083BF88959B
:1024A00083B78E7F83BFE5CFCF910895EF92FF92E0
:1024B0000F931F93FC01758B648B208F318F428F9C
:1024C000538FE0A2F1A202A313A340E050E060E02A
:1024D00074E444AB55AB66AB77AB1F910F91FF90A3
:1024E000EF900895FC01778B668B248F358F468F94
:1024F000578F40E050E060E074E440AF51AF62AF0E
:1025000073AF08958EE480937C0062E070E080E019
:1025100090E00E94481E80917A00806480937A0047
:1025200080917A0086FDFCCF80917800209179001F
:1025300030E0322F2227442737FD4095542F282B97
:1025400060E070E381E190E00E94FC26CA01B901DD
:1025500008952F923F924F925F926F927F928F9247
:102560009F92AF92BF92CF92DF92EF92FF920F9322
:102570001F93CF93DF93CDB7DEB7A8970FB6F8942C
:10258000DEBF0FBECDBF98A78FA37E8F6D8F8A0150
:102590000E9482126D8B7E8B8F8B988F0E94191EEA
:1025A0004B015C016FA078A428E5620E711CC80184
:1025B000A0E0B0E0898B9A8BAB8BBC8BAFA1B8A5A8
:1025C00054968C910E94B91EF30191838083BC01C3
:1025D000882777FD8095982F0E9440256B017C010C
:1025E0002DEC3CEC4CE054E40E94A12487FF0BC08E
:1025F00011E026E636E646EE53E4C701B6010E9436
:10260000F02518160CF010E00E94191E68197909BF
:102610008A099B0929893A894B895C8926173707DA
:102620004807590708F040C00E94191E698F7A8F29
:102630008B8F9C8F00E010E01A8219824FA158A561
:10264000405C5F4F58A34F8F8FA198A58C5B9F4F25
:102650009C878B87AFA1B8A5A85BBF4FBAA3A9A3DE
:10266000EFA1F8A5E45BFF4FFE87ED872FA138A50A
:10267000205B3F4F3CA32BA34FA158A54C5A5F4F63
:10268000588B4F878FA198A5865A9F4F9E838D8325
:102690002FA038A49BE5290E311CAFA1B8A5A85ADC
:1026A000BF4FBEA3ADA344C1112309F487CFBCCF54
:1026B0000E94191E298D3A8D4B8D5C8D621B730B08
:1026C000840B950B29893A894B895C8962177307BA
:1026D0008407950708F034C10F5F1F4FEFA1F8A5DD
:1026E00084A595A5A6A5B7A580A791A7A2A7B3A7DE
:1026F00084890E94B91EAFA1B8A595969C938E932C
:10270000949756968C910E94B91E3C01EFA1F8A5B2
:1027100097A386A324A135A13A872987B9018827E1
:1027200077FD8095982F0E9440256B017C01AFA119
:10273000B8A5D4968D909D90AD90BC90D797A501EB
:1027400094010E943C2420E030E040E85AE30E94DB
:10275000F4259B01AC01C501B4010E943D249B01FD
:10276000AC01EFA1F8A564AB75AB86AB97ABC70125
:10277000B6010E943C244B015C01AFA1B8A59C9618
:102780006D937D938D939C939F97B301882777FDDD
:102790008095982F0E9440256B017C01EFA1F8A540
:1027A00040AC51AC62AC73ACA30192010E943C24DA
:1027B00020E030E040E85AE30E94F4259B01AC01A0
:1027C000C301B2010E943D249B01AC01AFA1B8A599
:1027D000D8966D937D938D939C93DB97C701B6013B
:1027E0000E943C246B017C01EFA1F8A560AB71ABAA
:1027F00082AB93ABA5019401C501B4010E94F425FD
:102800009B01AC01AF8DB8A16D937D938D939C938B
:102810001397EB85FC8560817181828193810E9491
:102820003D24AB85BC856D937D938D939C931397CD
:10283000A7019601C701B6010E94F4259B01AC01D6
:10284000E9A1FAA16083718382839383AD85BE85FC
:102850006D917D918D919C910E943D24ED85FE8529
:102860006083718382839383AFA1B8A598964D90BE
:102870005D906D907C909B97A3019201C501B4017E
:102880000E943C24EFA1F8A520A131A142A153A1AF
:102890000E94F4259B01AC01C301B2010E943D24BA
:1028A000AFA1B8A5DC966D937D938D939C93DF9734
:1028B000A70196010E94F4259B01AC01EBA1FCA1AC
:1028C0006083718382839383AF85B8896D917D9195
:1028D0008D919C910E943D24EF85F88960837183DE
:1028E00082839383D1018C91ED81FE818083ADA1A0
:1028F000BEA18D919C91E985FA858E179F070CF0FA
:10290000F6C021E0F10120830130110529F4F10125
:102910008081AD81BE818C93ED81FE819081D1015A
:102920008C91981729F0E981FA813196FA83E9832D
:1029300029813A814D8D5E8D2417350708F4B8CE74
:10294000AD89BE89BD01882777FD8095982F0E94AB
:10295000402520E030E04AE754E40E94A52420E02E
:1029600030E040E85AE30E94F4252B013C01EFA13E
:10297000F8A5208D318D428D538D0E94F4254B0199
:102980005C01B80180E090E00E943E256B017C0173
:102990002FA038A4F4E42F0E311C9B01AC01D1010F
:1029A0006D917D918D919C910E94A5240E945B2642
:1029B0009B01AC01C501B4010E94F42569837A83AF
:1029C0008B839C83EFA1F8A564877587868797879B
:1029D000248D358D468D578DC301B2010E94F4259B
:1029E0002B013C010FA118A5045B1F4FA701960105
:1029F000D8016D917D918D919C910E94A5240E949A
:102A00005B269B01AC01C301B2010E94F4256D83DA
:102A10007E838F839887EFA1F8A5608B718B828B63
:102A2000938BA3019201C501B4010E94F425AFA0CC
:102A3000B8A4F4E5AF0EB11CD5012D913D914D9197
:102A40005C910E94F425A70196010E94A5246B01C8
:102A50007C01EFA1F8A560837183828393832D812C
:102A60003E814F81588569817A818B819C810E944A
:102A7000F4259B01AC01AFA1B8A514966D937D938D
:102A80008D939C931797C701B6010E94A524EFA1CF
:102A9000F8A56087718782879387D1011D921D9267
:102AA0001D921C921397F8011082118212821382D8
:102AB000D5011D921D921D921C921397A8960FB6D8
:102AC000F894DEBF0FBECDBFDF91CF911F910F9164
:102AD000FF90EF90DF90CF90BF90AF909F908F903E
:102AE0007F906F905F904F903F902F900895D1010D
:102AF0001C920ACF2F923F924F925F926F927F92D9
:102B00008F929F92AF92BF92CF92DF92EF92FF92FD
:102B10000F931F93CF93DF9300D000D000D0CDB799
:102B2000DEB79E838D837A8369830E9482122B0194
:102B30003C0100E010E08D819E81845B9F4F1C0171
:102B4000ED81FE81E85BFF4FFC83EB8389819A81F5
:102B50000817190709F455C0ED81FE8186890E9486
:102B6000B91EED81FE8197A386A3BC01882777FD5E
:102B70008095982F0E9440256B017C01ED81FE819C
:102B800080AC91ACA2ACB3ACA50194010E943C24F2
:102B900020E030E040E85AE30E94F4259B01AC01BC
:102BA000C501B4010E943D249B01AC01ED81FE8171
:102BB00060AF71AF82AF93AFC701B6010E943C24F2
:102BC000ED81FE8160AB71AB82AB93AB9B01AC013D
:102BD0000E94F4259B01AC01EB81FC816083718331
:102BE00082839383F10160817181828193810E944C
:102BF0003D24F10160837183828393830F5F1F4FB4
:102C0000A5CFB80180E090E00E943E259B01AC0179
:102C1000F10160817181828193810E94A5240E94CB
:102C20005B266B017C01B201882777FD8095982F88
:102C30000E94402520E030E04AE754E40E94A524A9
:102C400020E030E040E85AE30E94F425ED81FE8167
:102C5000248D358D468D578D0E94F425A701960150
:102C60000E94F425ED81FE81608B718B828B938BAA
:102C7000F101108211821282138226960FB6F89407
:102C8000DEBF0FBECDBFDF91CF911F910F91FF909F
:102C9000EF90DF90CF90BF90AF909F908F907F90FC
:102CA0006F905F904F903F902F900895FF920F93F9
:102CB0001F93CF93DF93FC010081C181D281F894EF
:102CC0008981F02EF0948F21898378941DE711502B
:102CD00029F182E090E00E94701E88818023B9F380
:102CE000F8948A818F218A838981802B89837894C3
:102CF00080EE91E00E94701EF89489818F21898373
:102D000086E490E00E94701E8881802311E009F023
:102D100010E078948AE991E00E94701E812FDF9183
:102D2000CF911F910F91FF9008951F93CF93DF9341
:102D3000FC011081C181D281912F909560FF12C05A
:102D4000F8948A8189238A838981812B89838AE007
:102D500090E00E94701E8A81812B8A83789487E399
:102D600090E011C0F8948A8189238A838981812B1C
:102D7000898381E490E00E94701E8A81812B8A837E
:102D8000789485E090E0DF91CF911F910C94701EB4
:102D90000F931F93CF93DF93FC011081C181D281E8
:102DA000F8948981812B89838A81012F0095802362
:102DB0008A8383E090E00E94701E8981802389834A
:102DC0008AE090E00E94701EC881789485E390E0CC
:102DD0000E94701E1C2381E009F480E0DF91CF91F6
:102DE0001F910F910895CF92DF92EF92FF920F9370
:102DF0001F93CF93DF931F92CDB7DEB76C01E62E02
:102E000008E010E0FF24F39461E09F2D9E2109F477
:102E100060E0C60149830E949516FF0C015011091C
:102E200049810115110581F7411115C0F894D601AA
:102E30001196ED91FC91129791818C918095892347
:102E400081831196ED91FC91129792818C918095DE
:102E50008923828378940F90DF91CF911F910F91F6
:102E6000FF90EF90DF90CF900895EF92FF920F9335
:102E70001F93CF93DF938C01C8E0D0E0F12CEE24B8
:102E8000E394C8010E94C8168111FE28EE0C219718
:102E9000C1F78F2DDF91CF911F910F91FF90EF9090
:102EA0000895CF92DF92FF920F931F93CF93DF93FA
:102EB0001F92CDB7DEB78C01F62E40E065E5798331
:102EC0000E94F316CF2C7981D72E88E0F82EF601D8
:102ED00061916F0140E0C8010E94F316FA94B9F7BE
:102EE0000F90DF91CF911F910F91FF90DF90CF90C6
:102EF000089540E06CEC0C94F316FC0113861586E3
:102F0000148627E030E0DF01A20FB31F13961C9256
:102F10002115310519F021503109F5CF08951F937E
:102F2000CF93DF93EC01162F60E0812F0E945E1F8C
:102F3000612F70E0FB01E256FC4FE491E883FB0156
:102F4000EE54FC4FE491F0E0EE0FFF1FEA53FC4F0C
:102F5000859194919A838983CE01DF91CF911F91BE
:102F60000C947D17AF92BF92CF92DF92EF92FF92B7
:102F70000F931F93CF93DF931F92CDB7DEB75C0102
:102F8000D62EE72EFC01858581115DC0C5010E940A
:102F90005616811105C0F5011386158614866CC07E
:102FA00040E060EFC5010E94F31601E0F12CC12C56
:102FB00011E0C5010E94C816682FC50169830E94EF
:102FC000C8166981613019F48130B9F433C02F2DEE
:102FD00030E068131BC0F5018385181730F4E20F49
:102FE000F31F8381802349F402C0181731F060E099
:102FF000193058F4F501148708C0F501EF0DF11DE3
:103000008381802B838361E009C0C12EF501E20F2B
:10301000F31F8381902F909589238383C5010E949C
:1030200095161F5F000F11F4F39401E0F7E0FF1510
:1030300008F0BFCF113438F0F501C386C11009C0C4
:1030400081E0858706C0F50113861586148680E029
:1030500013C0F50183818823B1F3ED2DFE2D80E0AF
:1030600090E0D501A80FB91F13962C9121930196DA
:1030700088309105B1F781E00F90DF91CF911F91DA
:103080000F91FF90EF90DF90CF90BF90AF90089599
:10309000DC0180E0615038F0ED91E827F0E0E65780
:1030A000FD4F8491F7CF08950895FC0184E598E1E0
:1030B000928B818B768365831482108289E0818371
:1030C00081E0828383830895FC0184810895CF93F6
:1030D000DF93EB0167E0CE010E94481891E02F8159
:1030E000821390E0892FDF91CF910895CF92DF92E4
:1030F000EF92FF920F931F93CF93DF9300D0CDB742
:10310000DEB76C01F42EE52EFC0185819681698382
:103110007A830E94561669817A81882311F1F6011B
:10312000858196810E94511740E06EEBF601858102
:1031300096810E94F3160F2D1E2D89E0F82EF601C0
:10314000858196810E943517F80181938F01FA9449
:10315000B1F7F601858196810E94561691E0813083
:1031600009F090E0892F0F900F90DF91CF911F9180
:103170000F91FF90EF90DF90CF900895CF93DF9362
:10318000EA010E947618882351F068E0CE010E947F
:10319000481891E02885821390E0892F01C080E0D3
:1031A000DF91CF910895EF92FF920F931F93CF93EA
:1031B000DF93EC018B017A018D819E810E9456166E
:1031C000B8018D819E810E94511740E06EE48D818F
:1031D0009E810E94F31640E0F70162818D819E81FD
:1031E0000E94F31640E0F70163818D819E810E9469
:1031F000F316F8018081803139F040E0F7016481F5
:103200008D819E810E94F3168D819E810E945616AB
:10321000B8018D819E810E945117488168E48D819B
:103220009E810E94F31664E170E080E090E00E94CD
:10323000481E8881882331F06AE070E080E090E0E9
:103240000E94481E8D819E81DF91CF911F910F9129
:10325000FF90EF900C945616EF92FF921F93CF932E
:10326000DF9300D0CDB7DEB77C01FC01858196816C
:1032700069837A830E94561669817A81F701858174
:1032800096810E94511740E064EBF7018581968199
:103290000E94F316F701858196810E94C816182FA7
:1032A000F701858196810E94561681E0111180E018
:1032B0000F900F90DF91CF911F91FF90EF900895A5
:1032C000EF92FF920F931F93CF93DF93CDB7DEB7AB
:1032D0002A970FB6F894DEBF0FBECDBF7C018B01DD
:1032E000242FAE014F5F5F4F2A870E94BE182A85A8
:1032F0008823D1F0F80180818031C1F02B3041F07A
:103300002C3021F02A3031F48FE305C08FE703C061
:103310008FE501C08FE18D83AE014F5F5F4FB80134
:10332000C7010E94D31802C080E001C081E02A9644
:103330000FB6F894DEBF0FBECDBFDF91CF911F91C6
:103340000F91FF90EF900895CF93DF93CDB7DEB745
:1033500029970FB6F894DEBF0FBECDBFFB012081C9
:103360002031D1F0AE014F5F5F4F0E94BE1888231D
:1033700079F08D818F3351F020F48F3149F489E059
:103380000CC08F3539F08F3739F002C08AE005C0A4
:1033900080E003C08BE001C08CE029960FB6F89462
:1033A000DEBF0FBECDBFDF91CF910895EF92FF92A8
:1033B0000F931F93CF93DF93CDB7DEB761970FB60F
:1033C000F894DEBF0FBECDBF8C01FC0185819681D4
:1033D0000E947D17F8011482FF24F394BE01665FFA
:1033E0007F4FF801858196810E94B2178823C9F129
:1033F000BE01665F7F4FC8010E946718882371F382
:10340000F8018081811108C0BE01665F7F4FC8014D
:103410000E942C19811122C0AE014F5F5F4FBE0187
:10342000665F7F4FC8010E947618F801E180BE01F7
:10343000665F7F4FC8010E94A4198E1518F4F80129
:10344000818106C0BE01665F7F4FC8010E94A4193A
:10345000F801818384818F5F8483C0CFF801F0827B
:10346000DBCF61960FB6F894DEBF0FBECDBFDF9104
:10347000CF911F910F91FF90EF900895FC0162830F
:103480000895CF93DF93CDB7DEB729970FB6F894A1
:10349000DEBF0FBECDBFAE014F5F5F4F0E947618FB
:1034A00081E09981911101C080E029960FB6F894CE
:1034B000DEBF0FBECDBFDF91CF9108958F929F9257
:1034C000AF92BF92CF92DF92EF92FF920F931F9332
:1034D000CF93DF93EC018A016950633048F4E62F03
:1034E000F0E0EE0FFF1FE355FC4F8080918004C099
:1034F0009EEE892E92E0992E0115110501F18B8126
:103500008823E9F0888181111AC00E94191E6B017D
:103510007C01AA2497FCA094BA2CB801CE010E9489
:10352000411A81111FC00E94191E681979098A0960
:103530009B096C157D058E059F05A0F4EECFB401A7
:10354000882777FD8095982FDF91CF911F910F915C
:10355000FF90EF90DF90CF90BF90AF909F908F90B3
:103560000C94481EDF91CF911F910F91FF90EF9027
:10357000DF90CF90BF90AF909F908F900895CF93A2
:10358000DF93EC018D819E810E9456168D819E8174
:103590000E947917488164E48D819E810E94F31610
:1035A0008A81882341F040E050E06981CE01DF91BB
:1035B000CF910C945E1ADF91CF910895FA0120818A
:1035C00048E0249F90011124818190E0982F882762
:1035D000990F990F990F282B392BDB018C91803192
:1035E000C1F4678170E08681AB01481B5109CA01B3
:1035F0009695982F8827979587950E94C6266051A3
:103600007109207F53E0220F331F5A95E1F7260FEF
:10361000371FC9010895EF92FF920F931F93CF9325
:10362000DF93CDB7DEB729970FB6F894DEBF0FBE94
:10363000CDBF8C017B01AE014F5F5F4F0E94BE1872
:10364000882341F0AE014F5F5F4FB701C8010E9470
:10365000DE1A02C080E894EE29960FB6F894DEBF19
:103660000FBECDBFDF91CF911F910F91FF90EF90D3
:103670000895813824EE920774F0BC01882777FD05
:103680008095982F0E94402520E030E040E05CE3E8
:103690000E94F425089560E070E08EEF92EC0895AA
:1036A0000E940B1B0C94391B8091FC0690E020912A
:1036B000FD06821B910908952091FD068091FC066C
:1036C000281750F4E22FF0E0E250F94F808190E0AB
:1036D0002F5F2093FD0608958FEF9FEF0895E091EF
:1036E000FD068091FC06E81730F4F0E0E250F94F57
:1036F000808190E008958FEF9FEF08950895CF9215
:10370000DF92EF92FF920F931F93CF93DF937C0191
:10371000CB018A012091D906222389F0EB016B01AC
:10372000C40ED51ECC15DD0569F06991D701ED9168
:10373000FC910190F081E02DC7010995F3CF642F32
:103740000E94EF1BC801DF91CF911F910F91FF9055
:10375000EF90DF90CF900895CF93DF931F92CDB776
:10376000DEB769832091D9062223D1F02091DA06B1
:10377000203240F021E030E0FC013383228380E0FE
:1037800090E015C08091DB06E82FF0E0E452F94F9D
:10379000998190838F5F8093DB068093DA0605C062
:1037A00061E0CE0101960E94EF1B81E090E00F9056
:1037B000DF91CF910895FC011382128248EE53E00D
:1037C00060E070E0448355836683778387EB93E002
:1037D0009183808308958DEC96E00C94DB1B61321D
:1037E00098F420918B07243089F460934007FC0102
:1037F00082E497E0DC012A2F281B261718F4219178
:103800002D93F9CF80E0089581E0089582E0089536
:1038100085ED8093BC008091BC0084FDFCCF1092AC
:103820008B07089585EC8093BC0010928B07089558
:103830001F920F920FB60F9211242F933F934F9325
:103840005F936F937F938F939F93AF93BF93EF9308
:10385000FF938091B900887F803609F49CC068F599
:10386000883209F45BC090F4803109F454C038F414
:10387000882309F4F5C0883009F44DC0F5C08831BB
:1038800009F44CC0803209F45DC0EEC0803409F404
:1038900068C048F4803309F455C0883309F0E4C0A7
:1038A00080931E07A8C0803509F44FC0883509F4FD
:1038B0005DC0883409F0D8C0D5C0883909F4C6C0C5
:1038C000A8F4883709F467C038F4883609F463C06F
:1038D000803709F460C0C8C0883809F4B7C080399F
:1038E00009F45FC0803809F0BFC05BC0803B09F4B9
:1038F00085C038F4803A09F466C0883A09F47EC07D
:10390000B3C0803C09F4A6C0883C09F4A3C0883B3E
:1039100009F489C0A9C080918A0710C090916307FB
:1039200080916207981770F5E091630781E08E0F30
:1039300080936307F0E0EC59F84F80818093BB00DF
:1039400085EC85C080931E078DC0E091630781E000
:103950008E0F809363078091BB00F0E0EC59F84F25
:10396000808390916307809162076DC0E091630747
:1039700081E08E0F809363078091BB00F0E0EC59EB
:10398000F84F80838091890781116CC081E080931A
:10399000880784EA60C083E080938B0710921F073A
:1039A000CFCF80911F07803208F050C0E0911F07F1
:1039B00081E08E0F80931F078091BB00F0E0E05EF6
:1039C000F84F8083BDCF80911F07803230F4E091A3
:1039D0001F07F0E0E05EF84F10820E94081C609123
:1039E0001F0770E0E0918407F091850780E297E07F
:1039F000099510921F070E94121C36C084E0809324
:103A00008B071092410710924007E0918607F091D2
:103A10008707099580914007811105C081E0809357
:103A2000400710924207E091410781E08E0F80939A
:103A30004107F0E0EE5BF84F80818093BB009091EE
:103A4000410780914007981708F47ACF85E8809362
:103A5000BC000AC085EC8093BC0010928B0704C0A8
:103A600010921E070E94081CFF91EF91BF91AF9129
:103A70009F918F917F916F915F914F913F912F9186
:103A80000F900FBE0F901F9018958230E8F4E82F2A
:103A9000F0E0EE0FFF1FE457F84F71836083813031
:103AA00041F0809169008C7F842B80936900E89AB3
:103AB000089580916900440F551F440F551F837F5F
:103AC000842B80936900E99A0895823068F48130EC
:103AD00011F0E89801C0E998E82FF0E0EE0FFF1F21
:103AE000E457F84F1182108208951F920F920FB67B
:103AF0000F9211242F933F934F935F936F937F9374
:103B00008F939F93AF93BF93EF93FF9380918C0715
:103B100090918D07892B29F0E0918C07F0918D070A
:103B20000995FF91EF91BF91AF919F918F917F91F7
:103B30006F915F914F913F912F910F900FBE0F901A
:103B40001F9018951F920F920FB60F9211242F936A
:103B50003F934F935F936F937F938F939F93AF9315
:103B6000BF93EF93FF9380918E0790918F07892BDE
:103B700029F0E0918E07F0918F070995FF91EF9161
:103B8000BF91AF919F918F917F916F915F914F9175
:103B90003F912F910F900FBE0F901F9018951F927D
:103BA0000F920FB60F9211242F933F938F939F93F1
:103BB000AF93BF938091910790919207A091930743
:103BC000B09194073091900723E0230F2D3720F414
:103BD0000196A11DB11D05C026E8230F0296A11D67
:103BE000B11D209390078093910790939207A09323
:103BF0009307B09394078091950790919607A091B1
:103C00009707B09198070196A11DB11D8093950764
:103C100090939607A0939707B0939807BF91AF91A1
:103C20009F918F913F912F910F900FBE0F901F90FA
:103C300018952FB7F8946091910770919207809131
:103C40009307909194072FBF08953FB7F894809100
:103C5000950790919607A0919707B091980726B580
:103C6000A89B05C02F3F19F00196A11DB11D3FBFB4
:103C70006627782F892F9A2F620F711D811D911D44
:103C800042E0660F771F881F991F4A95D1F7089564
:103C9000CF92DF92EF92FF92CF93DF936B017C0183
:103CA0000E94251EEB01C114D104E104F10489F046
:103CB0000E943B240E94251E6C1B7D0B683E7340B6
:103CC00090F381E0C81AD108E108F108C851DC4F2F
:103CD000EACFDF91CF91FF90EF90DF90CF900895E2
:103CE0008230910538F0880F991F880F991F05972A
:103CF0000197F1F70895789484B5826084BD84B506
:103D0000816084BD85B5826085BD85B5816085BDD6
:103D1000EEE6F0E0808181608083E1E8F0E01082EF
:103D2000808182608083808181608083E0E8F0E030
:103D3000808181608083E1EBF0E08081846080831A
:103D4000E0EBF0E0808181608083EAE7F0E0808151
:103D500084608083808182608083808181608083B1
:103D60008081806880831092C1000895809319013A
:103D700008958E3008F08E5087702091190190E4DC
:103D8000299F90011124822B80937C0080917A00DE
:103D9000806480937A0080917A0086FDFCCF8091C8
:103DA00078002091790090E0922B08951F93CF9393
:103DB000DF93182FEB0161E00E945E1F209711F442
:103DC00060E004C0CF3FD10539F461E0812FDF917D
:103DD000CF911F910C94971FE12FF0E0E657FC4F15
:103DE000E491E330F9F048F4E130B9F0E230A1F5C4
:103DF00084B5806284BDC8BD34C0E730E9F0E830E6
:103E000019F1E43049F58091800080628093800050
:103E1000D0938B00C0938A0024C084B5806884BD91
:103E2000C7BD1FC080918000806880938000D093C0
:103E30008900C093880015C08091B000806880938D
:103E4000B000C093B3000DC08091B0008062809339
:103E5000B000C093B40005C0C038D1050CF0B5CF98
:103E6000AFCFDF91CF911F910895833081F028F477
:103E7000813099F08230A1F008958730A9F0883020
:103E8000B9F08430D1F4809180008F7D03C080919F
:103E900080008F7780938000089584B58F7702C06B
:103EA00084B58F7D84BD08958091B0008F7703C065
:103EB0008091B0008F7D8093B0000895CF93DF9301
:103EC00090E0FC01E256FC4F2491FC01EE54FC4FC3
:103ED0008491882349F190E0880F991FFC01E652F4
:103EE000FC4FA591B49180539C4FFC01C591D49196
:103EF0009FB7611108C0F8948C91209582238C9310
:103F0000888182230AC0623051F4F8948C91322F58
:103F1000309583238C938881822B888304C0F89406
:103F20008C91822B8C939FBFDF91CF9108950F933B
:103F30001F93CF93DF931F92CDB7DEB7282F30E0CA
:103F4000F901E657FC4F8491F901E256FC4F1491B8
:103F5000F901EE54FC4F04910023C9F0882321F0AD
:103F600069830E94351F6981E02FF0E0EE0FFF1F8B
:103F7000E053FC4FA591B4919FB7F8948C916111D7
:103F800003C01095812301C0812B8C939FBF0F909C
:103F9000DF91CF911F910F910895CF93DF93282F39
:103FA00030E0F901E657FC4F8491F901E256FC4FED
:103FB000D491F901EE54FC4FC491CC2391F08111BE
:103FC0000E94351FEC2FF0E0EE0FFF1FEA53FC4F6D
:103FD000A591B4912C912D2381E090E021F480E013
:103FE00002C080E090E0DF91CF910895FC01818DC7
:103FF000228D90E0805C9F4F821B91098F739927DF
:104000000895FC01918D828D981731F0828DE80F13
:10401000F11D858D90E008958FEF9FEF0895FC01CD
:10402000918D828D981761F0828DDF01A80FB11DEF
:104030005D968C91928D9F5F9F73928F90E0089513
:104040008FEF9FEF089583E991E2892B49F080E09B
:1040500090E0892B29F00E94932181110C9400009B
:104060000895FC01848DDF01A80FB11DA35ABF4F35
:104070002C91848D90E001968F739927848FA68967
:10408000B7892C93A089B1898C9180648C93938D8E
:10409000848D981306C00288F389E02D80818F7D7E
:1040A00080830895CF93DF93EC01888D8823C9F036
:1040B000EA89FB89808185FD05C0A889B9898C9131
:1040C00086FD0FC00FB607FCF5CF808185FFF2CFCC
:1040D000A889B9898C9185FFEDCFCE010E9431204E
:1040E000E7CFDF91CF910895CF92DF92FF920F93A8
:1040F0001F93CF93DF931F92CDB7DEB76C0181E0A2
:10410000D60158968C9358975B969C915B975C96DA
:104110008C915C97981307C05096ED91FC91519744
:10412000808185FD2EC0F601038D10E00F5F1F4FCB
:104130000F731127F02EF601848DF81211C00FB6FF
:1041400007FCF9CFD6015096ED91FC9151978081F3
:1041500085FFF1CFC60169830E9431206981EBCFD1
:10416000838DE80FF11DE35AFF4F6083D6015B9604
:104170000C935B975296ED91FC91539780818062EE
:104180000CC0D6015696ED91FC91579760835096DE
:10419000ED91FC91519780818064808381E090E073
:1041A0000F90DF91CF911F910F91FF90DF90CF90F3
:1041B0000895BF92CF92DF92EF92FF92CF93DF9359
:1041C000EC016A017B01B22EE889F98982E08083E3
:1041D000411581EE580761057105A1F060E079E0B5
:1041E0008DE390E0A70196010E94DA262150310963
:1041F000410951095695479537952795211580E135
:10420000380798F0E889F989108260E874E88EE14F
:1042100090E0A70196010E94DA2621503109410958
:1042200051095695479537952795EC85FD8530833F
:10423000EE85FF852083188EEC89FD89B082EA899E
:10424000FB89808180618083EA89FB898081886025
:104250008083EA89FB89808180688083EA89FB8981
:1042600080818F7D8083DF91CF91FF90EF90DF90F1
:10427000CF90BF9008951F920F920FB60F92112406
:104280002F938F939F93EF93FF93E091A907F09162
:10429000AA078081E091AF07F091B00782FD12C0BC
:1042A00090818091B2078F5F8F732091B30782173F
:1042B00051F0E091B207F0E0E756F84F958F809308
:1042C000B20701C08081FF91EF919F918F912F9153
:1042D0000F900FBE0F901F9018951F920F920FB660
:1042E0000F9211242F933F934F935F936F937F937C
:1042F0008F939F93AF93BF93EF93FF9389E997E0D9
:104300000E943120FF91EF91BF91AF919F918F91CA
:104310007F916F915F914F913F912F910F900FBEC1
:104320000F901F90189589E997E00E94F61F21E0F1
:10433000892B09F420E0822F089510929C07109297
:104340009B0788EE93E0A0E0B0E080939D079093F8
:104350009E07A0939F07B093A00787EC93E09093EC
:104360009A078093990785EC90E09093A607809335
:10437000A50784EC90E09093A8078093A70780ECB2
:1043800090E09093AA078093A90781EC90E0909326
:10439000AC078093AB0782EC90E09093AE078093DC
:1043A000AD0786EC90E09093B0078093AF07109232
:1043B000B2071092B3071092B4071092B507089590
:1043C00008950E947B1E0E94E0210E942607C3E2FE
:1043D000D0E20E94C8082097E1F30E942320F9CF81
:1043E000CF92DF92EF92FF920F931F93CF93DF93C1
:1043F0006C017A01EB01E60EF71E00E010E0CE152D
:10440000DF0561F06991D601ED91FC910190F08199
:10441000E02DC6010995080F191FF1CFC801DF91E2
:10442000CF911F910F91FF90EF90DF90CF90089563
:104430006115710581F0DB010D900020E9F7AD01F8
:1044400041505109461B570BDC01ED91FC91028054
:10445000F381E02D099480E090E008950C941822F7
:10446000DC01ED91FC910190F081E02D099463ED68
:1044700073E00C9418220F931F93CF93DF93EC01FA
:104480000E9418228C01CE010E943722800F911FBA
:10449000DF91CF911F910F9108958F929F92AF92CC
:1044A000BF92CF92DF92EF92FF920F931F93CF9321
:1044B000DF93CDB7DEB7A1970FB6F894DEBF0FBE7E
:1044C000CDBF7C01C42EE52FCB01D22E19A221E055
:1044D0002D1510F02AE0D22E8E010F5D1F4F8D2C6E
:1044E000912CA12CB12C6C2D7E2FA50194010E9442
:1044F000DA268C2DD29E80191124015011098A30A0
:1045000014F4805D01C0895CF801808321153105B8
:104510004105510521F0C22EE32FCA01E4CFB801B5
:10452000C7010E941822A1960FB6F894DEBF0FBEF5
:10453000CDBFDF91CF911F910F91FF90EF90DF9052
:10454000CF90BF90AF909F908F900895CF92DF92C1
:10455000EF92FF920F931F93CF93DF93EC016A01C9
:104560007B012115310579F4E881F9810190F08111
:10457000E02D642FDF91CF911F910F91FF90EF906D
:10458000DF90CF9009942A303105E9F477FF1AC003
:104590006DE20E9430228C0144275527BA014C1944
:1045A0005D096E097F092AE0CE010E944D22800F2D
:1045B000911FDF91CF911F910F91FF90EF90DF90AE
:1045C000CF9008952AE0B701A601CE01DF91CF91E7
:1045D0001F910F91FF90EF90DF90CF900C944D22A0
:1045E0009A01AB01662757FD6095762F0C94A622A1
:1045F0000F931F93CF93DF93EC019A01AB016627D2
:1046000057FD6095762F0E94A6228C01CE010E9454
:104610003722800F911FDF91CF911F910F91089545
:104620002115310541F4DC01ED91FC910190F081FF
:10463000E02D642F09940C944D229A01462F50E0EE
:1046400060E070E00C9410239A01AB0160E070E030
:104650000C9410230F931F93CF93DF93EC010E94D0
:1046600010238C01CE010E943722800F911FDF9111
:10467000CF911F910F9108954F925F926F927F9209
:104680008F929F92AF92BF92CF92DF92EF92FF9262
:104690000F931F93CF93DF93EC016A017B01B22E3E
:1046A0009A01AB01C701B6010E949926882319F02F
:1046B00066ED73E027C026013701E89477F82FEF05
:1046C0003FEF4FE75FE7C301B2010E9499268111D6
:1046D0000DC02FEF3FEF4FE75FE7C301B2010E942C
:1046E000A12418161CF46AED73E00CC02FEF3FEF05
:1046F0004FE75FE4C701B6010E94F0251816ACF43D
:104700006EED73E0CE01DF91CF911F910F91FF907D
:10471000EF90DF90CF90BF90AF909F908F907F9061
:104720006F905F904F900C9418222FEF3FEF4FE760
:104730005FECC701B6010E94A12487FDE1CF20E014
:1047400030E0A901C701B6010E94A12487FF0AC079
:104750006DE2CE010E9430228C01F7FAF094F7F856
:10476000F09402C000E010E0A12C60E070E080E076
:104770009FE3AB1441F020E030E040E251E40E94BE
:10478000A524A394F6CF9B01AC01C701B6010E94FA
:104790003D246B017C010E9412252B013C010E94EB
:1047A0003E259B01AC01C701B6010E943C246B0170
:1047B0007C012AE0B301A201CE010E944D22080F24
:1047C000191FBB2039F063E373E0CE010E94182269
:1047D000080F191F7B2C772041F120E030E040E2E8
:1047E00051E4C701B6010E94F4256B017C010E94CF
:1047F0000D254B01AA2497FCA094BA2C2AE030E0A6
:10480000B501A401CE010E94A622080F191FC501FF
:10481000B4010E9440259B01AC01C701B6010E9472
:104820003C246B017C017A94D6CFC801DF91CF91F3
:104830001F910F91FF90EF90DF90CF90BF90AF90BE
:104840009F908F907F906F905F904F9008950C9401
:104850003C230F931F93CF93DF93EC010E943C23E3
:104860008C01CE010E943722800F911FDF91CF91E2
:104870001F910F91089508955058BB27AA270ED075
:1048800075C166D130F06BD120F031F49F3F11F447
:104890001EF45BC10EF4E095E7FB51C1E92F77D11F
:1048A00080F3BA17620773078407950718F071F44D
:1048B0009EF58FC10EF4E0950B2EBA2FA02D0B01A3
:1048C000B90190010C01CA01A0011124FF27591B55
:1048D00099F0593F50F4503E68F11A16F040A22F5B
:1048E000232F342F4427585FF3CF469537952795CC
:1048F000A795F0405395C9F77EF41F16BA0B620BCB
:10490000730B840BBAF09150A1F0FF0FBB1F661F11
:10491000771F881FC2F70EC0BA0F621F731F841F54
:1049200048F4879577956795B795F7959E3F08F07A
:10493000B3CF9395880F08F09927EE0F9795879539
:104940000895D9D008F481E008950CD00FC107D1A3
:1049500040F0FED030F021F45F3F19F0F0C051116B
:1049600039C1F3C014D198F39923C9F35523B1F396
:10497000951B550BBB27AA2762177307840738F0CE
:104980009F5F5F4F220F331F441FAA1FA9F333D02D
:104990000E2E3AF0E0E830D091505040E695001CE1
:1049A000CAF729D0FE2F27D0660F771F881FBB1F9D
:1049B000261737074807AB07B0E809F0BB0B802D77
:1049C000BF01FF2793585F4F2AF09E3F510568F0C3
:1049D000B6C000C15F3FECF3983EDCF38695779557
:1049E0006795B795F7959F5FC9F7880F911D9695C5
:1049F000879597F90895E1E0660F771F881FBB1F21
:104A0000621773078407BA0720F0621B730B840BCD
:104A1000BA0BEE1F88F7E095089504D06894B111A1
:104A2000D9C00895BCD088F09F5790F0B92F99272E
:104A3000B751A0F0D1F0660F771F881F991F1AF0A9
:104A4000BA95C9F712C0B13081F0C3D0B1E0089572
:104A5000C0C0672F782F8827B85F39F0B93FCCF3F3
:104A6000869577956795B395D9F73EF4909580959F
:104A7000709561957F4F8F4F9F4F0895E89409C0BF
:104A800097FB3EF490958095709561957F4F8F4F81
:104A90009F4F9923A9F0F92F96E9BB279395F69597
:104AA000879577956795B795F111F8CFFAF4BB0F15
:104AB00011F460FF1BC06F5F7F4F8F4F9F4F16C079
:104AC000882311F096E911C0772321F09EE8872F03
:104AD000762F05C0662371F096E8862F70E060E0BF
:104AE0002AF09A95660F771F881FDAF7880F969538
:104AF000879597F90895990F0008550FAA0BE0E8DC
:104B0000FEEF16161706E807F907C0F0121613068F
:104B1000E407F50798F0621B730B840B950B39F4CF
:104B20000A2661F0232B242B252B21F408950A2635
:104B300009F4A140A6958FEF811D811D089597F975
:104B40009F6780E870E060E008959FEF80EC089533
:104B500000240A941616170618060906089500245C
:104B60000A9412161306140605060895092E0394D6
:104B7000000C11F4882352F0BB0F40F4BF2B11F44A
:104B800060FF04C06F5F7F4F8F4F9F4F089557FDA9
:104B90009058440F551F59F05F3F71F04795880FAB
:104BA00097FB991F61F09F3F79F087950895121642
:104BB00013061406551FF2CF4695F1DF08C01616EE
:104BC00017061806991FF1CF86957105610508949F
:104BD0000895E894BB2766277727CB0197F90895B6
:104BE0008ADF08F48FEF08950BD0C0CFB1DF28F033
:104BF000B6DF18F0952309F0A2CFA7CF1124EACF92
:104C0000C6DFA0F3959FD1F3950F50E0551F629F2B
:104C1000F001729FBB27F00DB11D639FAA27F00D15
:104C2000B11DAA1F649F6627B00DA11D661F829F3C
:104C30002227B00DA11D621F739FB00DA11D621F21
:104C4000839FA00D611D221F749F3327A00D611D3E
:104C5000231F849F600D211D822F762F6A2F112420
:104C60009F5750408AF0E1F088234AF0EE0FFF1F73
:104C7000BB1F661F771F881F91505040A9F79E3FAA
:104C8000510570F05CCFA6CF5F3FECF3983EDCF3AC
:104C9000869577956795B795F795E7959F5FC1F7E7
:104CA000FE2B880F911D9695879597F9089511F41D
:104CB0000EF44BCF42C073DFD0F39923D9F3CEF378
:104CC0009F57550B87FF47D00024A0E640EA90018C
:104CD00080585695979528F4805C660F771F881F3B
:104CE00020F026173707480730F4621B730B840B3C
:104CF000202931294A2BA695179407942025312580
:104D00004A2758F7660F771F881F20F026173707A6
:104D1000480730F4620B730B840B200D311D411DCD
:104D2000A09581F7B901842F9158880F96958795A2
:104D30000895E1DE880B990B08959F3F31F0915063
:104D400020F4879577956795B795880F911D96956F
:104D5000879597F9089591505040660F771F881FE7
:104D6000D2F70895AA1BBB1B51E107C0AA1FBB1FA6
:104D7000A617B70710F0A61BB70B881F991F5A95E7
:104D8000A9F780959095BC01CD01089597FB072E5A
:104D900016F4009407D077FD09D00E94B22607FCD4
:104DA00005D03EF4909581959F4F0895709561953B
:104DB0007F4F0895A1E21A2EAA1BBB1BFD010DC057
:104DC000AA1FBB1FEE1FFF1FA217B307E407F507BB
:104DD00020F0A21BB30BE40BF50B661F771F881F97
:104DE000991F1A9469F760957095809590959B012D
:104DF000AC01BD01CF010895052E97FB1EF4009470
:104E00000E94132757FD07D00E94DA2607FC03D023
:104E10004EF40C94132750954095309521953F4FB3
:104E20004F4F5F4F089590958095709561957F4F96
:104E30008F4F9F4F0895EE0FFF1F0590F491E02DC7
:104E400009940E942927332312F48A1B9B0B0C948C
:104E50003A27A29FB001B39FC001A39F700D811D8F
:104E60001124911DB29F700D811D1124911D089573
:104E70000E942927B7FF0895821B930B08950E9473
:104E80002927A59F900DB49F900DA49F800D911D83
:084E900011240895F894FFCFEE
:104E980000003608800000A0F04400181C4639C203
:104EA800F3CB050101C3B58443014F6B00280020F3
:104EB8002D3E2061636B00435420312043616C3ADE
:104EC8002000435420322043616C3A200043542090
:104ED800332043616C3A2000435420342043616CF2
:104EE8003A200056524D53204143207E0041432032
:104EF80057617665204465746563746564202D2068
:104F08005265616C20506F7765722063616C632015
:104F1800656E61626C656400555341206D6F646510
:104F28002061637469766520005663616C3A2000DD
:104F380056726D733A200050686173652053686932
:104F480066743A20004143204E4F542064657465CE
:104F580063746564202D204170706172656E7420E1
:104F6800506F7765722063616C6320656E61626C57
:104F7800656400555341206D6F6465004173737516
:104F88006D696E672056524D533A20004173737510
:104F98006D696E6720706F7765722066726F6D201D
:104FA80062617474202F20355620555342202D20DD
:104FB800706F776572207361766520656E61626CCB
:104FC8006564006E6F20435420646574656374657E
:104FD800640043542031206465746563740043544D
:104FE8002032206465746563740043542033206460
:104FF8006574656374004354203420646574656384
:105008007400446574656374200020445331384249
:1050180032300030204453313842323020646574D5
:1050280065637465640052464D3639435720496EAE
:1050380069743A20004E6F646520002046726571DD
:1050480020003433334D687A003836384D687A009A
:105058003931354D687A00204E6574776F726B2050
:1050680000435431204354322043543320435434B2
:105078002056524D532F424154542050554C5345BD
:10508800002054656D706572617475726520312DEC
:10509800004F4B200020282D302900656D6F6E5081
:1050A800692056004F70656E456E657267794D6F61
:1050B8006E69746F722E6F726700737461727475A3
:1050C800702E2E2E002052464D3639435720666FDB
:1050D800756E642000504F53542E2E2E2E2E77615D
:1050E800697420313073005B656D6F6E50692E00F6
:1050F8005D0020690020670020402000204D487A8C
:10510800002055534120000A462C20200009696ED2
:10511800742C20200074696D6520666F722072659A
:105128006164696E67200900617672670900766FAD
:105138006C7409006375727209002B565A5E00BCC4
:1051480000770100000000AC1B7F1B541B5C1B6F29
:105158001B7E1B000000007420F021F61F0F2001A9
:105168002052200D0A006E616E00696E66006F762F
:025178006600CF
:00000001FF
